:030000000267761E
:0C677600787FE4F6D8FD7581230267BD32
:03001E0025730047
:0944BF004212BF00004112C300CB
:103F60007F647E00127B37C2AF30C0FD125C161238
:103F700072F81272A2127EFF127AE6127C867FE835
:103F80007E03127B371278CFD2AF7F647E00127B24
:103F900037C2001252D012713F7F647E00127B370D
:103FA000127FD6127ECB127EE57F0612724A900CEB
:103FB000B0E0600C7B017A0C79B91223EF127F31EB
:103FC000900CB8E0601A90110A7401F0A3740EF01E
:103FD000A374B9F07BFF7A00791E1227CB127F4AB7
:103FE0001251AD201803024113C2181274771278CF
:103FF000099012BFE475F00112182AFED3E5F0947F
:10400000E8EE6480948350030240B9E49012BFF05C
:10401000A3F0120006B2C1127EB19011B2E070029C
:10402000A3E060119011B274FFF5F012182A45F068
:104030007003127ECB901200E06414701C9012A9E1
:1040400074FFF5F012182A45F07005127ECB800936
:104050009012A3E07003127589901200E06413704F
:10406000119012A974FFF5F012182A45F07003128E
:104070007ECB9012C3E004F0E075F00A84E5F0F026
:10408000901200E0640170319011B2E07002A3E080
:1040900070279011FEE0B4FF20A3E0B4FF1B901244
:1040A000C3E0FF7E0064056003EF700DEF4E700407
:1040B0007F0180027F001263CCD390125AE09400FB
:1040C000901259E0940040209012007404F0901275
:1040D0005AE024FFF0901259E034FFF0E07002A3A0
:1040E000E070057F63120DFC1253F29012C1E4F0F0
:1040F000A3EFF09012C1E07003A3E0F4600F7F1112
:1041000012724A9012C1E0A3E0FF124838125841DF
:1041100012783B200E03023FAE1208E6300F0E7FEE
:104120001112724A7B017A127953126FB4127EE532
:03413000023FAE9D
:10776C0055415254315F636F6E666967204F4B21F0
:10777C000D0A0055415254335F636F6E6669672082
:10778C004F4B210D0A0052657365744B6579546932
:05779C006D650D0A00FF
:1044C8004212A9000041129F004112A0004112A50A
:1044D8001F4112A81F4212A600004112A10041125A
:0644E800A2004112A30036
:107FD6009010817401F0E4A3F0A37407F07B017A9A
:067FE600107981027A6AA5
:107B37007C007D071217C3E4FDC3ED9FEC9E501533
:107B4700E4FBFA0BBB00010AEB646E4A70F50DBD4E
:057B570000010C80E4B8
:017B5C002206
:0E81DD0090112FEFF0127A1490112FE0FF2274
:0B7B5D00901107EBF0A3EAF0A3E9F0A1
:107B6800E4FF901107E0FBA3E475F001121840A9A7
:0A7B7800F0FA12174960030F80E8CD
:017B820022E0
:107F6300E4FF121749600F0F64D770011F740129D2
:067F7300F9E43AFA80EC8B
:017F790022E5
:0B5947009010B8EBF0A3EAF0A3E9F029
:10595200E49010BEF0A3F0A3F0A3F09010B8E0FB27
:10596200A3E0FAA3E0F99010BEE0FEA3E0F5828E78
:1059720083121762FF7003025A3A9010BBE0FBA336
:10598200E0FAA3E0F91217496F6003025A26901059
:10599200C0F0A3F09010BBE0FBA3E0FAA3E0F99003
:1059A20010C0E0FEA3E0F5828E8312176260519070
:1059B20010C0A3E0FF9010BFE02FFF9010BEE03EAA
:1059C200FE9010B8E0FBA3E0FAA3E0F98F828E8389
:1059D200121762FF9010BBE0FBA3E0FAA3E0F9907C
:1059E20010C0E0FCA3E0F5828C83121762B50710A9
:1059F2009010C1E004F0709C9010C0E004F080941C
:105A02009010BBE0FBA3E0FAA3E0F99010C0E0FE27
:105A1200A3E0F5828E8312176270099010BEE0FE39
:105A2200A3E0FF229010BFE004F0600302595D90F2
:0C5A320010BEE004F002595D7EFF7FFF13
:015A3E002245
:1079BC00901107EBF0A3EAF0A3E9F0ED1DAE047013
:1079CC00011C4E6016901107E0FBA3E475F0011248
:0C79DC001840A9F0FAE412178F80E02296
:1074BF009010B3EBF0A3EAF0A3E9F09010B974FFCA
:1074CF00F5F012184045F0602A9010B6E0FBA3E4E7
:1074DF0075F001121840A9F0FA121749FF9010B376
:1074EF00E0FBA3E475F001121840A9F0FAEF1217B0
:0474FF008F80C82290
:10798E009010CAEBF0A3EAF0A3E9F0ED1DAE04707F
:10799E00011C4E60179010CAE0FBA3E475F00112B3
:0E79AE001840A9F0FA12174960E1C322D32253
:105C160090108274FFF0E4901081F07B017A107985
:105C2600817F021233EA7B017A1079817F01123378
:105C3600EA7B017A1079817F031233EA901082742D
:105C460001F0FB7A1079817F041233EA9010827496
:105C560010F07B017A1079817F051233EA90108269
:105C660074F3F07B017A1079817F061233EA901083
:105C7600827440F07B017A1079817F071233EA90B3
:105C8600108274FFF09010817403F07B017A107912
:105C960081E4FF1233EA90108274BFF07B017A1020
:105CA60079817F071233EA90108274C0F07B017A03
:105CB6001079817F031233EA901082741EF07B0103
:105CC6007A1079817F041233EA901082740CF07B8B
:105CD600017A1079817F051233EA901082740DF0F3
:105CE6007B017A1079817F061233EAD2EED2EDD2A9
:085CF600EFC2C3C2EB028232CF
:1072A2009010817440F0A37402F0A3121A790000C6
:1072B20025809010887401F0E4A3F0A304F0A3F0F9
:1072C200E4A3F07B017A1079817F011212B37BFF74
:1072D2007A77796C1227CB90108C7402F07B017A4A
:1072E2001079817F031212B37F581279E87BFF7AFB
:0672F20077797F0227CB33
:1072F800E4901081F0A3F0A304F0E4A3F0A3F0A3BA
:1073080074A2F0A37440F0A37401F0FB7A107981A1
:10731800E4FF123D4390108674FFF0A37410F07BD5
:10732800017A1079817F01123D4390108674FDF037
:10733800A37412F07B017A1079817F04123D4343D4
:02734800D180F2
:01734A002220
:107EFF009010837401F0E4901082F0901081F07B69
:097F0F00017A107981FF026D8EE8
:1053F20090129FE0146036146052146063147003BC
:105402000254DC1470030254F02405600302550CAC
:1054120075A0F0E5A054F064F0700302550C9012F0
:10542200A07414F090129F7401F002550CE5A05480
:10543200F064F070030255089012A0E014F06003CB
:1054420002550C90129F7402F002550CE5A0440F15
:10545200901081F0E0F5A090129F7403F002550CB9
:10546200901081E5A0F075A0F090129F7404F09066
:105472001081E0121AAA54D97754D67B54D37D54A2
:10548200D07E54CDB754CABB54C7BD54C4BE54C158
:10549200D754BEDB54BBDD54B8DE54B5E754B2EB8F
:1054A20054AFED54ACEE0000550C7F04227F08226D
:1054B2007F0B227F0F227F03227F07227F00227F22
:1054C2000E227F02227F06227F0A227F0D227F0187
:1054D200227F05227F09227F0C22E5A054F064F08E
:1054E200702890129F7405F0A37414F0801CE5A03C
:1054F20054F064F0600890129F7404F0800C9012D3
:0C550200A0E014F0700490129FF07FFFF6
:01550E00227A
:105841009012A1E0146039047076A2CCE43325E013
:10585100440125E0FFA2C0E4334F25E0FFA2B5E4F7
:10586100334F25E0FFA2B4E4334FFF9012A5E06F60
:10587100604E9012A2741EF09012A17401F080404B
:10588100A2CCE43325E0440125E0FFA2C0E4334F7C
:1058910025E0FFA2B5E4334F25E0FFA2B4E4334F86
:1058A100FF9012A5E0B50707E49012A1F0801190D6
:1058B10012A2E014F070099012A1F09012A5EFF07D
:1058C1009012A5E0FF9012A8E0FE6F6047EE54032E
:1058D100FEEF5403FF6E6013EF6403600EC200120B
:1058E100814B9011B2E4F0A37405F09012A8E0543A
:1058F10004FF9012A5E054046F6011A37427F0A374
:105901007410F07BFF7A7779921227CB9012A5E081
:105911009012A8F09012A8E0540470299012A6E009
:105921007002A3E0601F9012A674FFF5F012182A0E
:1059310045F07011D2001252D01281CD9011B2E413
:05594100F0A37405F065
:01594600223E
:10814B009011FCE09012A3F0D2C3A2009201027F27
:01815B00180B
:106D1B009010A67401F0A37410F0A3749DF0901062
:106D2B009D740AF0A37405F0A37409F0A37401F029
:106D3B00A3EEF0A3EFF0A3EDF0A3E4F0A37455F0F2
:106D4B00E4FFEFC394077480948050249010A6E066
:106D5B00FBA3E0FAA3E0F98F82758300121762FDA3
:106D6B009010A5E02DF09010A4E03400F00F80D22D
:106D7B009010A6E0FBA3E0FAA3E0F990109FE0FDD2
:036D8B00027A3F4A
:1070180090109CEDF090109AEEF0A3EFF04E6052B5
:10702800A3E025E0F090109AE0FEA3E0FFD39410CF
:10703800EE94004006A3E0FD026D1B90109BE02437
:10704800FFF090109AE034FFF090109CE09012A4AA
:10705800F090109AE0FEA3E0FF33333354F844C0B5
:10706800F580C3EF9408EE940050045380BF225378
:03707800807F22F4
:078232004380C05380C72206
:107EB1009012A3E0600614F07002C2C39012A4E015
:0A7EC100600714F0700312823222F1
:1000A600000000384492BAFE828244380000000004
:1000B60000000038448282FEBA92443800000000F4
:1000C6000000003854AAAAAAC692443800000000CC
:1000D600000000384482AAF68A82443800000000F4
:1000E6000000000000000000000303000000000004
:1000F6000003030F0F3F3FFFFFFFFF00000000005C
:1001060000000000422418182442000000000000ED
:100116000000003844BAC6AAAAAA54380000000053
:1001260000003C42A599FF99A5423C000000000052
:1001360000000000000000000000000000000000B9
:100146000000183C3C3C1818180018180000000065
:10015600006363632200000000000000000000004E
:1001660000000036367F3636367F36360000000011
:100176000C0C3E6361603E030343633E0C0C0000BF
:1001860000000000006163060C18336300000000E5
:100196000000001C36361C3B6E66663B0000000005
:1001A6000030303060000000000000000000000059
:1001B60000000C18183030303018180C0000000001
:1001C6000000180C0C060606060C0C1800000000B1
:1001D6000000000042663CFF3C6642000000000052
:1001E60000000000181818FF18181800000000007A
:1001F6000000000000000000000018181830000081
:1002060000000000000000FF0000000000000000E9
:1002160000000000000000000000181800000000A8
:1002260000000103070E1C3870E0C08000000000CB
:1002360000003E6363636B6B6363633E0000000014
:1002460000000C1C3C0C0C0C0C0C0C3F00000000BD
:1002560000003E6303060C183061637F0000000057
:1002660000003E6303031E030303633E0000000019
:100276000000060E1E3666667F06060F00000000AA
:1002860000007F6060607E030363733E0000000031
:1002960000001C3060607E636363633E0000000004
:1002A60000007F630306060C0C18181800000000F7
:1002B60000003E6363633E636363633E00000000C9
:1002C60000003E636363633F0303063C00000000D7
:1002D60000000000001818000000181800000000B8
:1002E6000000000000181800000018181830000060
:1002F600000000060C18306030180C0600000000E4
:100306000000000000007E00007E000000000000EB
:100316000000006030180C060C1830600000000069
:1003260000003E6363060C0C0C000C0C0000000081
:1003360000003E63636F6B6B6E60603E0000000002
:100346000000081C366363637F636363000000007C
:1003560000007E3333333E333333337E00000000F8
:1003660000001E33616060606061331E00000000A3
:1003760000007C36333333333333367C00000000E1
:1003860000007F3331343C343031337F00000000CD
:1003960000007F3331343C343030307800000000C8
:1003A60000001E336160606F6363371D000000004C
:1003B6000000636363637F6363636363000000003D
:1003C60000003C18181818181818183C00000000EF
:1003D60000000F06060606060666663C00000000DC
:1003E6000000733336363C36363333730000000074
:1003F60000007830303030303031337F000000007C
:10040600000063777F6B63636363636300000000D0
:1004160000006363737B7F6F6763636300000000A4
:1004260000001C36636363636363361C00000000D0
:1004360000007E3333333E30303030780000000029
:1004460000003E6363636363636B6F3E06070000F1
:1004560000007E3333333E363633337300000000FC
:1004660000003E6363301C060363633E0000000029
:100476000000FFDB991818181818183C0000000037
:1004860000006363636363636363633E00000000AD
:10049600000063636363636363361C080000000047
:1004A600000063636363636B6B7F36360000000096
:1004B6000000C3C3663C18183C66C3C300000000B6
:1004C6000000C3C3C3663C181818183C000000009F
:1004D60000007F6343060C183061637F0000000054
:1004E60000003C30303030303030303C000000000E
:1004F600000080C0E070381C0E07030100000000F9
:1005060000003C0C0C0C0C0C0C0C0C3C000000000D
:10051600081C366300000000000000000000000018
:10052600000000000000000000000000FF000000C6
:1005360018180C0000000000000000000000000079
:1005460000000000003C46063E66663B00000000D8
:1005560000007030303C36333333336E0000000019
:1005660000000000003E63606060633E0000000023
:1005760000000E06061E36666666663B0000000034
:1005860000000000003E63637E60633E00000000E2
:1005960000001C3632307C303030307800000000ED
:1005A60000000000003B666666663E06663C00008C
:1005B6000000703030363B333333337300000000B5
:1005C60000000C0C001C0C0C0C0C0C1E0000000097
:1005D60000000606000E060606060666663C0000D5
:1005E60000007030303333363C3633730000000081
:1005F60000001C0C0C0C0C0C0C0C0C1E000000005B
:1006060000000000006E7F6B6B6B6B6B00000000E0
:1006160000000000006E3333333333330000000034
:1006260000000000003E63636363633E0000000059
:1006360000000000006E333333333E303078000064
:1006460000000000003B666666663E06060F000078
:1006560000000000006E3B333030307800000000B0
:1006660000000000003E63380E03633E00000000F9
:1006760000000818187E181818181B0E0000000035
:1006860000000000006666666666663B00000000C5
:100696000000000000636336361C1C0800000000E2
:1006A60000000000006363636B6B7F360000000090
:1006B600000000000063361C1C1C366300000000AE
:1006C600000000000063636363633F03063C0000B1
:1006D60000000000007F660C1830637F00000000F9
:1006E60000000E18181870181818180E00000000D0
:1006F6000000181818181800181818181800000004
:100706000000701818180E1818181870000000004D
:1007160000003B6E0000000000000000000000002A
:100726000070D8D870000000000000000000000033
:100736000000C6C66676DCCCC6C600000000000017
:100746000000F80C0C0C0C0C0CFE00000000000065
:1007560000007018181818386C66000000000000B9
:100766000000FE0C0C0C0C0C0C0C00000000000031
:1007760000007C060606666666660000000000004D
:1007860000001818181818181818000000000000A3
:1007960000007818303030303030000000000000A3
:1007A6000000FCC6C6C6C6C6C6C6000000000000DD
:1007B6000000CCC6C6C6C6C6C67C00000000000047
:1007C60000001818181800000000000000000000C3
:1007D60000007018181818181818180000000000E3
:1007E60000007C0606060606067C000000000000E7
:1007F600C0C0FC060606060C181800000000000023
:100806000000FC66C6C6C6C6C6FE000000000000A4
:100816000000DC7666C6C6C6C6DC00000000000026
:1008260000001818181818181818181818000000BA
:100836000000380C0C0C0C0C0C3C000000000000F6
:1008460000007C66C6C6C6C6CC7800000000000064
:1008560000006666663636361C7000000000000032
:100866000000F84CCCCCCC6C0C0C0C0C0E00000030
:100876000000FC46C6C6E606867C000000000000B6
:1008860000666C38181818181818000000000000C8
:100896000000EE666634180C06FE0000000000003C
:1008A6000000FC060666646C6E6060600000000076
:1008B6000000F80C0C0C0C0C0C0C000000000000E6
:1008C6000000D6D6D6D6D6F6E67C0000000000009C
:1008D6000000FC6666666666E6E60000000000004C
:1044EE00410CA800410CA500C1144208A3000041D4
:0744FE000CA6FF410CA7FF13
:107CAB007590FFC2C4D2CBD2CA00000000E590543D
:107CBB008064807003D38001C39202C2CA000000AB
:037CCB0000A20212
:017CCE002293
:0575030090110FEFF0F4
:107508007FE87E03127CAB500DEF1F70011E1494B0
:1075180000EE940050EEEF4E70057F1112724AC2D1
:10752800C4C2CBC2CA000090110FE0F59000000061
:0D7538000000000000D2CA00000000C2CA1E
:017545002223
:0C734B00E0FBA3E0FAA3E0F9121749FFF1
:0573570090110FEFF0A2
:10735C007FE87E03127CAB500DEF1F70011E14945E
:10736C0000EE940050EEEF4E70057F1112724AD26F
:10737C00C4C2CBC2CA90110FE0F59000000000000F
:0B738C00000000D2CA00000000C2CACE
:0173970022D3
:1078CF00C2CA7F30127503000000007F30127503AB
:1078DF00000000007F0C127503000000007F0112F2
:1078EF007503000000007F061275030000000022E0
:107E22007F01127503000000007B017A0879A57DAD
:0D7E3200007C041279BC7DFF7FFF028221DD
:0B61CE00901107EBF0A3EAF0A3E9F04A
:1061D9002400F9EA3402FA90110CEBF0A3EAF0A3D7
:1061E900E9F0E490110AF090110AE0C39420748058
:1061F9009480507B7F3612750390110AE04480FF2A
:106209001275037F801275037F30127503E49011B4
:106219000BF090110BE0C3941074809480501B9084
:10622900110712734B901108E475F00112182A1224
:1062390051AD90110BE004F080D890110B7410F05F
:1062490090110BE0C39420748094805019A31273A9
:106259004B90110DE475F00112182A1251AD9011ED
:0F6269000BE004F080DA90110AE004F00261F01B
:016278002203
:10606400901081EFF0A3EDF07F361275039010824B
:10607400E0FFD39401748094804006EF24FEFF80F7
:1060840005901082E0FFEFC454F0240E4480FF1208
:106094007503901082E0D394017480948040047F4F
:1060A4000880027F00901081E0FEC3132F4480FF1C
:1060B4001275037F30127503901081E0FF30E025E4
:1060C400A3E0FE75F000A42484F582E5F03409F51C
:1060D40083EE2583F583E5822FF582E43583F5830A
:1060E400E0FF1273573000047FFF8027901081E097
:1060F400FFA3E0FE75F000A42485F582E5F03409E1
:10610400F583EE2583F583E5822FF582E43583F567
:0661140083E0FF02735757
:107D7E00121749FF6019640A6015D3EF948074805E
:107D8E0094804002D322740129F9E43AFA80E1C3C7
:017D9E0022C2
:10816D00900CA8E004F0E05403F0E4900CA5F0228C
:0B4B1E00901107EBF0A3EAF0A3E9F010
:104B2900127D7E9213901107A3E0FAA3E04A700365
:104B3900024C7A901107E0FBA3E0FAA3E0F91217FF
:104B490049FF7003024C7A640A7003024C7A90118F
:104B59000BEFF0900CA5E004F0E0D394107480946E
:104B690080400312816D90110C74FFF0A37403F05F
:104B7900A37426F090110BE0FFC394204072D3EF89
:104B89009480748094805010E075F010A42436F954
:104B990074FF35F0FAA3804F901108E475F0011203
:104BA900182A90110BE07F00FE901107E0FBA3E0AB
:104BB900FAA3E0F91217492FFFE43EFEC3EF9490E0
:104BC900EE94D7402BD3EF94ABEE94D75022EFC499
:104BD900F8540FC868FFEEC454F048FE74362FF934
:104BE900748E3EFA90110C74FFF0A3EAF0A3E9F079
:104BF900900CA5E060071490110AF0800AE4901166
:104C09000AF0900CA504F030130A90110AE0FFC3D2
:104C1900740F9FF0E4FFEFC39410748094805044A4
:104C290090110CE0FBA3E0FAA3E0F98F82758300F1
:104C3900121762FE900CA8E0C454F02F75F010A46E
:104C490024A5F582E5F03408F583C083C08290116C
:104C59000AE0D082D0832582F582E43583F583EE9C
:104C6900F00F80B2901108E475F00112182A024B76
:014C79003CFE
:014C7A002217
:086B3D00901084EFF0A3EDF0CD
:106B4500EB75F010A424A6F9740035F0FA901088BE
:106B550074FFF0A3EAF0A3E9F0E4FFEFC394107427
:106B6500809480504A901088E0FBA3E0FAA3E0F9F6
:106B75008F82758300121762FE901087E05EFE908B
:106B85001084E0C454F02F75F010A424A5F582E517
:106B9500F03408F583C083C082901085E0D082D0A0
:0F6BA500832582F582E43583F583EEF00F80AC13
:016BB40022BE
:107FEC00900CA8EFF0900CA5EDF0124B1E7B017AD3
:067FFC000879A50261CE28
:1081390090108774FFF0126B3D7B017A0879A502D4
:0281490061CE05
:09822100900CA6EDF0A3EFF02291
:10780900900CA6E0FFF46029A3E0FDF46023900842
:10781900A3E475F00112182AABF0FABA0113BB2CD4
:1078290010E49008A3F0A3F0A2149200126064B2CD
:02783900142217
:105EC5002575002573257300446F776E6C6F6164CB
:105ED500204E616D656C697374204572723A282095
:105EE5006E6F7420696E2073657474696E672029FE
:105EF500210D0A00433A005265764E616D656C6965
:105F0500737428436E743A2575290D0A00523A00B8
:105F150025753B004E3A0052593A004964783A25B6
:105F2500642D282564293B20523A25753B204E3A9D
:105F350025733B2052593A25753B0D0A00446F776E
:105F45006E6C6F6164204E616D656C697374204F72
:105F55004B21202328257529230D0A00446F776ED0
:105F65006C6F6164204E616D656C69737420457258
:105F7500723A28257523257529210D0A00969798CB
:105F8500939495909192A09FA19C9E9D999B9AA870
:085F9500A9AAA6A5A7A2A4A3D6
:104505004112890041128A00C11742125900004127
:07451500125800411257FF8C
:107CF300C374EB94E9FF74119411CF2480CF340043
:107D0300FE7B017A1179EB9010EBE4F0A37402F09F
:037D130002688D76
:0A81F900E49011EBF0A3F0027CF318
:1080ED00D39011ECE094649011EBE09400400312F6
:0380FD0081F922E4
:0B004E009010B8E0FBA3E0FAA3E0F97B
:0B0059009010E3EBF0A3EAF0A3E9F045
:100064007C007D2E1217C3E42FFFEE3401FE9010A6
:10007400E3E0FBA3E0FAA3E0F99010EBE4F0A3744F
:050084002EF002688D62
:0B78FF009010E3EBF0A3EAF0A3E9F027
:10790A007C007D2E1217C3E42FFFEE3401FE901087
:10791A00E3E0FBA3E0FAA3E0F99010EBE4F0A37430
:05792A002EF002707B4D
:0B73E5009010B3EBF0A3EAF0A3E9F076
:1073F00074FFA3F0A3F07D01126AB89010B6EEF00E
:10740000A3EFF0F47002EEF4601F9010B6E0FEA35C
:10741000E0FF9010B3E0FBA3E0FAA3E0F91278FFDD
:0D7420009010B6E0FEA3E0FF227EFF7FFF8C
:01742D00223C
:0B6C2D009010B8EBF0A3EAF0A3E9F030
:106C380074FFA3F0A3F0121856FFAEF07D01126A9C
:106C4800B89010BBEEF0A3EFF0F47002EEF460140D
:106C58009010BBE0FEA3E0FF12004E9010BBE0FED8
:106C6800A3E0FF229011EBE0FEA3E0FFC39464EEE3
:106C78009400502312004E9011ECE004F07006903E
:106C880011EBE004F0127CF39011ECE024FFFF908C
:0B6C980011EBE034FFFE227EFF7FFFC7
:016CA30022CE
:086E00009010B3EEF0A3EFF0D7
:106E08009011EBE0FCA3E0FDD39FEC9E4058ED24ED
:106E1800FFFFEC34FFFE9010B3E0B50616A3E0B513
:106E280007119011ECE024FFF09011EBE034FFF033
:106E3800027CF39011ECE024FFF09011EBE034FFBA
:106E4800F0127CF39011EBE0FEA3E0FF7B017A10D7
:106E580079B51278FF9010B3E0FEA3E0FF7B017ACA
:066E68001079B51200597B
:016E6E002201
:10815C007D01126AB8EFF47002EEF46003126E0047
:01816C0022F0
:0B3661009010B3EBF0A3EAF0A3E9F037
:10366C00127E229010B3E0FBA3E0FAA3E0F912184B
:10367C0056D39400E5F09400407A7BFF7A20799B36
:10368C00E4FDFF127FEC90110A74FFF0A3745EF05E
:10369C00A374C5F09010B3E0FBA3E0FAA3E0F91219
:1036AC001856FF90110DE5F0F0A3EFF07B017A10A6
:1036BC0079B61227C57BFF7A20799B127F63C3747E
:1036CC00109FFFC0077B017A1079B6127B5DC3D0C7
:1036DC00E09FFD7B017A1079B6E4FF127FEC90122B
:1036EC0089E07043901200E0FF64046027EF6405EA
:1036FC00703580207BFF7A20799BE4FDFF127FECF4
:10370C00901289E07021901200E0FF64046005EFD4
:10371C00640570137BFF7A20799B127F63C3740F4F
:10372C009FFDE4FF12822190110A74FFF0A3745ED6
:10373C00F0A374C8F0A374FFF0A37420F0A374ACCE
:10374C00F09010B3E0FBA3E0FAA3E02402F9E43A12
:10375C00FA901110EBF0A3EAF0A3E9F07B017A10D8
:10376C0079B61227C57B017A1079B6E4FD7F011278
:10377C007FEC901289E064017061901200E0FF64AC
:10378C00046005EF640570539010B3E0FBA3E0FAFE
:10379C00A3E02402F9E43AFA127F63901106EFF0E9
:1037AC00E0FF901259E07002A3E07003FE80027EED
:1037BC0001C3EF9E901106F0D3940C74809480504A
:1037CC000BE0FFC3740C9FFD7F01800C901106E091
:1037DC00FFC3741C9FFD7F0212822120000302385C
:1037EC00BB9010B3E0FBA3E0FAA3E0F990002C121D
:1037FC00188145F070030238857BFF7A2079B2E49A
:10380C00FD7F03127FEC90110A74FFF0A3745EF03D
:10381C00A374C5F09010B3E0FBA3E0FAA3E0F99019
:10382C00002C121881FF90110DE5F0F0A3EFF07B46
:10383C00017A1079B61227C57BFF7A2079B2127FF4
:10384C0063C3740F9FFFC0077B017A1079B6127B9C
:10385C005DC3D0E09FFD7B017A1079B67F03127FA8
:10386C00EC901289E064027046901200E0FF640450
:10387C00602AEF6405703880237BFF7A2079B2E4EC
:10388C00FD7F03127FEC901289E06402702190128C
:10389C0000E0FF64046005EF640570137BFF7A2081
:0F38AC0079B2127F63C3740F9FFD7F03128221D5
:0138BB0022EA
:100026007B017A12795B7D2E7C001279BCE49012FA
:1000360089F0A3F09012007404F07B017A12795BC8
:05004600D2000236614A
:105CFE00901289E0146051147003025DA4147003B5
:105D0E00025DDD24036003025DE2E4901289F0A3DC
:105D1E00F090125BE0FFA3E0901083CF80249010F0
:105D2E0083E0FEA3E0FFD39400EE94005003025DE7
:105D3E00E290128AE004F07C007D0A1217D59010D2
:105D4E0083EEF0A3EFF080D690125BE0FEA3E0FFAF
:105D5E00901083EEF0A3EFF07B017A107985127329
:105D6E00E5EFF47002EEF4601E9010B67401F0A32D
:105D7E007410F0A37485F0A3E4F0A3742EF07B01ED
:105D8E007A12795B1274BF7B017A12795D127B5D98
:105D9E0090128AEFF022E490128AF0901287E0FFC0
:105DAE00A3E0901083CF8021901083E0FEA3E0FF4C
:105DBE00D39400EE9400401C90128AE004F07C0014
:105DCE007D0A1217D5901083EEF0A3EFF080D91252
:045DDE00817DC217EA
:015DE200229E
:050DFC00901082EFF0F1
:100E0100640B6003020E94901289E06403706230F7
:100E110017137B017A12795B7D2EFC1279BCE49069
:100E2100128AF0804CD390125CE0940090125BE047
:100E310094004037D3901288E09400901287E09498
:100E41000040287B017A12795B126C2DEFF470025D
:100E5100EEF4600512809B800312819D7B017A1262
:100E6100795B7D2E7C001279BC800312819DD217A3
:100E710022901289E004F0E05403F0125CFEE49049
:100E81001258F0A3F0A3F0901289E064036003020A
:100E9100103222901082E0640E7019901289E0C322
:100EA1009404748094805005E004F08027E490124B
:100EB10089F08020901082E0640D701E901289E00C
:100EC100D39400748094804005E014F08006901261
:100ED100897402F0125CFE021029901082E0640A0B
:100EE1006003020FEB901289E014603B147003025F
:100EF1000FB1147003020FE124036003020FE990A4
:100F0100128AE0D39400748094804018E014F09029
:100F1100125BE0FEA3E0FF7C007D0A1217D5901260
:100F21005B020FD3020FF3901259E07002A3E0703D
:100F31006190128AE0FF245DF582E43412F583E0CA
:100F41007050D3EF940074809480403E90128AE0F8
:100F5100245DF582E43412F583E4F090128AE01402
:100F6100F0E0FF245DF582E43412F583E0D3948050
:100F710074809480401C745D2FF582E43412F583F3
:100F8100E4F090128AE014F08008E4901289F012E3
:100F91005CFE90128AE0FF245DF582E43412F58351
:100FA100E4F0745E2FF582E43412F583E4F08038C6
:100FB10090128AE0D3940074809480401CE014F075
:100FC100901287E0FEA3E0FF7C007D0A1217D59006
:100FD1001287EEF0A3EFF0800F901289E0148004E5
:100FE100E4901289F0125CFE803E901082E0640F62
:100FF1007003026802901082E06463703490128979
:10100100E06401702CA3E0245DF582E43412F583E1
:10101100E0601ED3948074809480400690128AE030
:1010210004F090128AE004F0E4901258F0A3F0A3C7
:10103100F0901082E0FF7E00C37480948050030220
:10104100129FD3EF940974809480400302129F9001
:101051001289E014605914700302125524026003CE
:1010610002129F90128AE0C3940474809480502FDE
:1010710090125BE0FEA3E0FF7C007D0A1217C39093
:10108100125BEEF0A3EFF0901082E0FF90125CE0B3
:101091002FF090125BE03400F090128AE004F0909F
:1010A100125BE07002A3E0600302129F02129B7BBD
:1010B100017A12795D127F63C3EF94147480948076
:1010C100401C901259E07002A3E070030212B2902A
:1010D1001082E0FF901257E06F60030212B290108D
:1010E10082E0FF901257E06F602A90128AE0245D3F
:1010F100F582E43412F583E0601AD394807480940D
:1011010080400690128AE004F090128AE004F0E434
:10111100901258F0EF700B901258E0902022930239
:1011210011FE901258E0FFFD7C00C394037480947B
:1011310080503B90128AE0FE245DF582E43412F582
:101141008374D7F0901082E075F003A42FF582E448
:1011510035F0F583E582247FF582E583345FF583FD
:10116100E493FF745E2EF582E4341202120AED64F8
:10117100034C701890128AE0FF245EF582E4341269
:10118100F583E4F0901082E02430803090128AE000
:10119100FF245EF582E43412F583E4F0901258E006
:1011A100F924FCFE901082E064097063EEFD7C007E
:1011B100C39402748094805012EE2459FE745D2F02
:1011C100F582E43412F583EEF08071ED64024C7027
:1011D1001290128AE0245DF582E43412F583742EB4
:1011E100F08059E96405701290128AE0245DF5825D
:1011F100E43412F583742CF08042EE2476FF9012D1
:101201008AE0245DF582E43412F583EFF0802D90BD
:101211001082E01475F003A42EFFEED394027480C3
:10122100948040047E5E80027E41EF2EFF90128A00
:10123100E0245DF582E43412F583EFF0901258E07A
:1012410004F0E075F00A84E5F0F0A37403F0A374F0
:10125100E8F0804A90128AE0C3940374809480502D
:101261002F901287E0FEA3E0FF7C007D0A1217C3D6
:10127100901287EEF0A3EFF0901082E0FF901288B9
:10128100E02FF0901287E03400F090128AE004F031
:10129100901287E07002A3E0700490128AF090101F
:1012A10082E0901257F07B017A12795BD2001236FC
:0112B10061DB
:0112B2002219
:107B83007B017A12795B7D2E7C001279BCE4901222
:107B930089F0A3F09012007405F07B017A12795BEF
:057BA300C20002366182
:053B0E00901082EFF0B1
:103B1300640B6003023BEF901289E064027024306F
:103B230017137B017A12795B7D2EFC1279BCE4902A
:103B3300128AF0800E90125BE0FEA3E0FF12815C1C
:103B4300D21722901289E004F0E075F00384AFF0FD
:103B5300EFF0146046147003023BE6240260030294
:103B63003CBBE490128AF090125BE0FFA3E090105C
:103B730083CF8021901083E0FEA3E0FFD39400EE77
:103B83009400406590128AE004F07C007D0A1217CD
:103B9300D5901083EEF0A3EFF080D990125BE0FE96
:103BA300A3E0FF7B017A1079851273E5EFF47002CD
:103BB300EEF4601E9010B67401F0A37410F0A374B9
:103BC30085F0A3E4F0A3742EF07B017A12795B12E3
:103BD30074BF7B017A12795D127B5D90128AEFF0DC
:103BE300023CBB12818DC21722023CBB901082E0C3
:103BF300640A6003023CC6901289E01460371460C3
:103C03007324026003023CBB90128AE0D3940074D5
:103C1300809480401DE014F090125BE0FEA3E0FF6F
:103C23007C007D0A1217D590125BEEF0A3EFF00231
:103C33003CBB023CCEE4901289F0A3F090125DF0FD
:103C430090125BE0FFA3E0901083CF80219010835C
:103C5300E0FEA3E0FFD39400EE9400405B90128A51
:103C6300E004F07C007D0A1217D5901083EEF0A3D8
:103C7300EFF080D9E4901289F090125DF090125B1E
:103C8300E0FFA3E0901083CFF0A3EFF0E490128A5B
:103C9300F0901083E0FEA3E0FFD39400EE94004085
:103CA3001790128AE004F07C007D0A1217D5901059
:103CB30083EEF0A3EFF080D9E4901258F0A3F0A3C1
:103CC300F0800B901082E0640F7003026802901082
:103CD30082E0FF7E00C3748094804058D3EF940940
:103CE30074809480504E901289E07048A3E0C3948E
:103CF3000474809480502F90125BE0FEA3E0FF7C5D
:103D0300007D0A1217C390125BEEF0A3EFF0901040
:103D130082E0FF90125CE02FF090125BE03400F041
:103D230090128AE004F090125BE07002A3E070044A
:0F3D330090128AF07B017A12795BC2001236611E
:013D4200225E
:108002009012007406F0127E227BFF7A207980E4BF
:06801200FD7F01027FEC7E
:107F7A00EF24F6600E24FB600A240470091281F9CA
:077F8A000281AD1268022222
:106802009012007403F0127E227BFF7A207948E412
:10681200FDFF127FEC7BFF7A207961E4FD7F01129C
:106822007FEC7BFF7A20796FE4FD7F02127FEC7BA5
:10683200FF7A217979E4FD7F03127FEC90110A74CB
:10684200FFF0A3745EF0A374C5F09011EBE0FFA318
:10685200E090110DCFF0A3EFF07B017A1079B31223
:1068620027C57BFF7A217979127F63C3740F9FFF5B
:10687200C0077B017A1079B3127B5DC3D0E09FFD24
:0B6882007B017A1079B37F03027FECEA
:107D9F00EF24FE601214601224F9601124FB600DB1
:107DAF00240E700C020026027B830280021276C71B
:017DBF0022A1
:107D5C00D39011ECE09F9011EBE09E40147B017AE4
:107D6C001079831278FF7B017A107983C200123666
:017D7C0061A5
:017D7D0022E3
:0B550F00901083EBF0A3EAF0A3E9F09A
:10551A0090002C121881D39400E5F09400500302F5
:10552A005623127E22901083E0FBA3E0FAA3E0F94F
:10553A0090002C121881FFAEF09011F9E0FD127064
:10554A00189011F9E0FF7E001281EB901083E0FBC6
:10555A00A3E0FAA3E02402F9E43AFA127B5DEF70C1
:10556A006B7BFF7A22792DFD7F01127FEC901083ED
:10557A00E0FBA3E0FAA3E0F9121856FFAEF0D394C9
:10558A0000EE9400500302562190110A74FFF0A312
:10559A00745EF0A374C5F0A3EEF0A3EFF07B017A7A
:1055AA001079861227C57BFF7A22792D127F63C371
:1055BA00740F9FFFC0077B017A107986127B5DC347
:1055CA00D0E09FFD7B017A107986804690110A749B
:1055DA00FFF0A3745EF0A374C8F0A374FFF0A37481
:1055EA0022F0A3742DF0901083E0FBA3E0FAA3E06D
:1055FA002402F9E43AFA901110EBF0A3EAF0A3E9D5
:10560A00F07B017A1079861227C57B017A10798698
:0A561A00E4FD7F01127FECD322C3F0
:015624002263
:1023EF009010B5EBF0A3EAF0A3E9F0901200E064CF
:1023FF000260147BFF7A5E79CD1227CB900CACE094
:10240F00700302275F80F59011B2E4F0A3740FF010
:10241F009010BB74FFF0A3745EF0A374F9F09010EA
:10242F00B5E0FBA3E0FAA3E0F9125947901081EE53
:10243F00F0A3EFF0F47002EEF4603AE02402FF90A4
:10244F001081E034009010B68FF012182A9010BB54
:10245F0074FFF0A3745EF0A374C5F0A37401F0A32E
:10246F007410F0A37483F09010B5E0FBA3E0FAA30F
:10247F00E0F9122E767BFF7A5E79FC901083E0FFF5
:10248F00A3E090110ACFF0A3EFF01227CBE4901046
:10249F0081F0A3F0901083E0FEA3E0FFC3901082C1
:1024AF00E09F901081E09E400302270C9010BB74B8
:1024BF00FFF0A3745FF0A37412F09010B5E0FBA3CC
:1024CF00E0FAA3E0F9125947901085EEF0A3EFF070
:1024DF00F47002EEF470030226EFE02402FF901076
:1024EF0085E034009010B68FF012182A7B017A1015
:1024FF0079877D2E7C001279BC9010BB74FFF0A3FE
:10250F00745FF0A37415F0A37401F0A37410F0A31B
:10251F007487F09010B5E0FBA3E0FAA3E0F9122E58
:10252F00769010BB74FFF0A3745FF0A37419F09052
:10253F0010B5E0FBA3E0FAA3E0F91259479010851C
:10254F00EEF0A3EFF0F47002EEF4607BE02402FFF4
:10255F00901085E034009010B68FF012182AE49096
:10256F001085F0A3F09010B5E0FBA3E0FAA3E0F91B
:10257F00121749643B603E901085E0FEA3E0FFC355
:10258F00942AEE9400502E9010B5A3E475F001122A
:10259F001840A9F0FA121749FD74892FF5827410AB
:1025AF003EF583EDF0901086E004F070B890108542
:1025BF00E004F080B0901085E0FEA3E02489F5825E
:1025CF0074103EF583E4F09010BB74FFF0A3745FBA
:1025DF00F0A3741CF09010B5E0FBA3E0FAA3E0F9B0
:1025EF00125947901085EEF0A3EFF0F47002EEF45D
:1025FF007003022684E02403FF901085E0340090DE
:10260F0010B68FF012182AE4901085F0A3F09010F6
:10261F00B3F0A3F09010B5E0FBA3E0FAA3E0F9123A
:10262F001749FB643B604EC3901086E094039010F3
:10263F0085E09400503F9010B3E0FEA3E0FF7C00D4
:10264F007D0A1217C39010B3EEF0A3EFF0EB24D076
:10265F00FFE02FF09010B3E03400F0901086E0040C
:10266F00F07006901085E004F09010B6E475F0015C
:10267F0012182A809F7B017A107987126C2D901087
:10268F0085EEF0FCA3EFF0FD901082E02401FE90A8
:10269F001081E0340090110AF0A3CEF0ED2401FE7A
:1026AF00E43CA3F0A3CEF0901087E0FFA3E09011DD
:1026BF000ECFF0A3EFF0A37401F0A37410F0A37486
:1026CF0089F09010B3E0FFA3E0901113CFF0A3EFC8
:1026DF00F07BFF7A5F79201227CB900CACE070FA79
:1026EF00901085E0F47003A3E0F46011901082E085
:1026FF0004F07006901081E004F00224A390108380
:10270F00E0FEA3E0FF901081E0B50617A3E0B50748
:10271F00127BFF7A5F79429011EBE0FFA3E09011FB
:10272F000A801F7BFF7A5F7961901081E0FFA3E041
:10273F0090110ACFF0A3EFF0901085E0FFA3E09087
:10274F00110CCFF0A3EFF01227CB900CACE070FA86
:01275F002257
:10801800AD071FED600FE4FEEEC3946E748094808C
:0580280050EE0E80F394
:01802D002230
:10802E00D2ED0000000000D2EE0000000000C2ED14
:06803E000000000000221A
:10804400C2ED0000000000D2EE0000000000D2EDFE
:0680540000000000002204
:087A940012802E7FA01275463E
:107A9C00E4FFD2EE000000000030ED0DEFC394FACD
:107AAC007480948050030F80F0C2EE000000000040
:017ABC0022A7
:10008E00D2EDC2EE0000000000D2EE000000000033
:05009E00C2EEC2ED22DC
:10810000C2EDC2EE0000000000D2EE000000000050
:03811000C2EE229A
:10754600E4FEEEC39408748094805028C2EE0000D6
:10755600000000EF5480648070028001C392EDEF5A
:1075660025E0FF0000000000D2EE0000000000C28F
:10757600EE0E80CEC2EE0000000000D2ED0000004C
:02758600000003
:0175880022E0
:10773600C2EE0000000000D2ED0000000000E4FEF2
:10774600EEC3940874809480501BD2EE00000000B3
:1077560000EF25E0FFA2EDE4334FFFC2EE0000008C
:0577660000000E80DBB5
:01776B0022FB
:10688D009010E6EEF0A3EFF0A3EBF0A3EAF0A3E98E
:10689D00F0C2EF80559010EB74FFF5F012184045E3
:1068AD00F060609010E8E0FBA3E475F00112184071
:1068BD00A9F0FA121749FF127546127A9C9010E74B
:1068CD00E004F070069010E6E004F09010E7E0545C
:1068DD003F70C2D39010ECE094009010EBE0940068
:1068ED0040B31280447F64128018127A949010E69F
:1068FD00E0FF127546127A9CA3E0FF127546127ADC
:0B690D009C80921280447F640280187E
:04707B00AD07AC06AB
:10707F00127A94ECFF127546127A9CAF0512754680
:10708F00127A9C12802E7FA1127546127A9CD39091
:10709F0010ECE094019010EBE09400401FA3E0246B
:1070AF00FFF09010EBE034FFF0127736EF12178FEE
:1070BF00128100740129F9E43AFA80D2127736EF7F
:0E70CF0012178F12008E1280449010EDE0FF19
:0170DD002290
:106A2E0052696E674F757454733A202562640D0A6D
:106A3E0000546F6E65456E3A202562640D0A004360
:106A4E00616D6572614F6E3A202562640D0A0052C7
:106A5E0065616C7954696D653A202562640D0A0092
:106A6E004E616D65436F756E743A2025750D0A0083
:106A7E00507377436F756E743A2025750D0A004377
:106A8E00617264436F756E743A2025750D0A005459
:106A9E00616C6B566F6C756D3A202562640D0A0041
:0A6AAE0025750025732500257300EF
:10451C00411200014811E9000000000000000042B7
:10452C0011FEFFFF4211B200004111E203411201E2
:10453C00004211E300004111E600441202000000A9
:0A454C00004111E5044211E7012CC3
:1052D0007B017A1179F19010EBE4F0A3740DF0E406
:1052E000FFFE12707B9011F1E0B45A08A3E0B4699C
:1052F0000330003D9011F1745AF0A37469F09011DD
:10530000F97402F0A314F0E4A3F0A3740AF0A374F8
:1053100003F09011F3121A79000A2C2A7B017A11FA
:1053200079F19010EBE4F0A3740DF0E4FFFE126845
:105330008D7BFF7A6A792E9011F9E090110AF012B4
:1053400027CB7BFF7A6A793F9011FAE090110AF03F
:105350001227CB7BFF7A6A794D9011FBE090110AFE
:10536000F01227CB7BFF7A6A795D9011FCE09011F7
:105370000AF01227CB7BFF7A6A796E9011EBE0FF7F
:10538000A3E090110ACFF0A3EFF01227CB7BFF7AB6
:105390006A797E9011EDE0FFA3E090110ACFF0A3AF
:1053A000EFF01227CB7BFF7A6A798D9011EFE0FF47
:1053B000A3E090110ACFF0A3EFF01227CB7BFF7A86
:1053C0006A799D9011FDE090110AF01227CB90119F
:1053D000FDE0D394057480948040037403F0901131
:1053E000FDE09011E2F09011FBE06003D2C222C216
:0253F000C222D7
:10713F007B017A1179E99010EBE4F0A37408F07FEA
:10714F00807E0012707B9011E9E0645A7004A3E016
:10715F006469602C9011E9745AF0A37469F0E4A388
:10716F00F0A3F0A3F0A3F0A3F0A3F07B017A1179C1
:10717F00E99010EBF0A37408F07F807E0012688D09
:09718F001280ED12811302812629
:10719800ED24FE6017146027240270327C007D2ED7
:1071A8001217C3E42FFF74013EFE8022EF7802C35A
:1071B80033CE33CED8F924F8FF74123EFE800F7C0C
:1071C800007D061217C374202FFF74133EFE7B0147
:1071D8007A1079C49010EBE4F0A37402F012707B7B
:0871E8009010C4E0FEA3E0FFDB
:0171F000227C
:0B6AB8009010BDEEF0A3EFF0A3EDF096
:106AC300E4A3F0A3F0ED24FE600C14600E24027026
:106AD300199011EB80089011ED80039011EFE0FF06
:106AE300A3E09010C2CFF0A3EFF09010C2E0FCA39C
:106AF300E0FD9010C0E0FEA3E0FFC39DEE9C503587
:106B03009010BFE0FD1271989010BDE0B5060EA382
:106B1300E0B507099010C0E0FEA3E0FF22EFF47098
:106B230002EEF460109010C1E004F070BD9010C04C
:096B3300E004F080B57EFF7FFF55
:016B3C002236
:107ECB009012007401F074FF9011FEF0A3F0E49097
:0A7EDB0011B2F0A3F07F010263CCA6
:1076C7009012007402F0127E227BFF7A20792D7DC2
:1076D700017F01127FEC7BFF7A2079437D017F03D5
:1076E700127FEC7B027D067F03128139E49011E360
:0876F700F0A3F09011E6F0226F
:106F4D00127E227BFF7A20799BE4FD7F01127FEC7C
:106F5D009011E3E0FEA3E0FFD39400EE94004046D1
:106F6D0090110A74FFF0A3746AF0A374AEF0A3EE4F
:106F7D00F0A3EFF07B017A1079831227C57BFF7A9E
:106F8D0020799B127F63C3740F9FFFC0077B017A2B
:106F9D00107983127B5DC3D0E09FFD7B017A107960
:066FAD00837F01127FEC5E
:016FB30022BB
:10795F009012007407F07E009011E3EEF0A3EFF0A9
:10796F009011E67401F0EF7001F0126F4D7B017A08
:0F797F001179B47D2E7C001279BC7F100265B0A7
:10562500901082EFF024F6607724FB60030256D7D2
:105635009011E3E0FEA3E0FFD39400EE9400404216
:105645007B017A1179B41273E5EFF47002EEF46020
:1056550031E4901201F07B017A1179B412550F50A3
:10566500149012007413F09011F9E0FF9012A9E460
:10567500F0A3EFF02212819D9011B2E4F0A3740320
:10568500F0221281BD7F041265B09011B2E4F0A33F
:105695007403F0E49011E3F0A3F09011E6F080328A
:1056A5009011E6E0D3940074809480401FE014F0DC
:1056B5009011E3E0FEA3E0FF7C007D0A1217D59070
:1056C50011E3EEF0A3EFF0126F4D80061277A112F1
:1056D5007ECB901082E0FFC3748094804051D3EF5D
:1056E50094097480948050479011E6E0C394047443
:1056F500809480503AE004F09011E3E0FEA3E0FFCF
:105705007C007D0A1217C39011E3EEF0A3EFF09031
:105715001082E0FF9011E4E02FF09011E3E03400F7
:10572500F0E07002A3E070049011E6F0126F4D22D4
:06632400901202121A6D36
:10632A00127E22901200E0640E700C7BFF7A2179B3
:10633A0086FD7F01127FEC90110A74FFF0A3746A44
:10634A00F0A374B1F0A374FFF0A37421F0A37465F1
:10635A00F07B017A1079831227C5E49010A1F0909E
:10636A0011E6E0FF9010A1E0C39F50227BFF7A2143
:10637A007965127B5D9010A1E02F2483F582E434C5
:10638A0010F583742AF09010A1E004F080D17BFF0D
:10639A007A217965127B5D9010A1E02F2483F58222
:1063AA00E43410F583E4F07B017A107983FD7F02EF
:1063BA00127FEC9011E6E0FFC374099FFD7F020291
:0263CA0082212E
:107E3F00901200740EF0901202121A7900000000D6
:0D7E4F00E49011E6F012632A7F020265B094
:10573500901082EFF024F6606724FB70030257D1C6
:10574500240460030257D7E4FFFEFDFC901202E03B
:10575500F8A3E0F9A3E0FAA3E0FBD31219D640279A
:105765009011E6E06406701F9011F3E0FCA3E0FDE4
:10577500A3E0FEA3E0FF901202E0F8A3A3A3E012CA
:1057850019D670030276C712819D7F051265B09008
:105795001202121A7900000000E49011E6F080323E
:1057A5009011E6E0D3940074809480401FE014F0DB
:1057B500901202E0FCA3E0FDA3E0FEA3E0FFE47B82
:1057C5000AFAF9F812194412632480061277A11215
:1057D5007ECB901082E0FFC374809480405DD3EF50
:1057E50094097480948050539011E6E0C394067434
:1057F5008094805046E004F0901202E0FCA3E0FDA6
:10580500A3E0FEA3E0FFE47B0AFAF9F81218B990C9
:105815001202121A6D901202E0F8A3E0F9A3E0FA61
:10582500A3E0FB901082E0FFE4FCFDFEEB2FFFEE12
:0C5835003AFEED39FDEC38FC1263242231
:104F2300901082EFF024F5601C14601F14602214AB
:104F3300605E147003024FF924056003025050129F
:104F43007ECB025050127CCF025050127E3F025053
:104F5300509011EBE0FEA3E0FFD39400EE940050D9
:104F630003025050EF24FFFFEE34FFFEC39011FF06
:104F7300E09F9011FEE09E500EA3E004F0706A9053
:104F830011FEE004F08062E49011FEF0A3F080597A
:104F93009011EBE0FEA3E0FFD39400EE94005003E6
:104FA3000250509011FEE0FCA3E0FD9FEC9E5025C3
:104FB300ED9400EC9400400DE024FFF09011FEE02E
:104FC30034FFF08024EF24FFFFEE34FF9011FEF056
:104FD300A3EFF080149011ECE024FFFE9011EBE0BE
:104FE30034FF9011FEF0A3CEF09011FEE0FEA3E09B
:104FF300FF127D5C80579011EBE0FCA3E0FD901164
:10500300FEE0FEA3E0FFC39DEE9C503CE490120142
:10501300F07B017A1179B41278FF7B017A1179B4AC
:1050230012550F50159012007413F09011F9E0FF10
:105033009012A9E4F0A3EFF0801312819D9011B2B6
:10504300E4F0A37403F08005E4FF12795F9010820B
:10505300E0FF7E00D3940074809480400DD3EF94DE
:0B5063000974809480500312795F22D2
:105DE300901082EFF07E00C374809480406BD3EFF9
:105DF30094097480948050619011E6E0C394027416
:105E03008094805040E004F09011E3E0FEA3E0FFB3
:105E13007C007D0A1217C39011E3EEF0A3EFF0901C
:105E23001082E0FF7E009011E4E02FF09011E3E098
:105E33003EF0D3A3E0940D9011E3E09400500302ED
:105E43005EC4EE8009901082E0FF9011E3E4F0A3BA
:105E5300EFF09011E67401F022901082E0640F706D
:105E6300028008901082E0640A7003027ECB9010D7
:105E730082E0640B704B9011E3E0FEA3E0FFC39458
:105E830004EE9400400EEF940CEE94005006EF24C1
:105E930011FF802A9011E3E0FEA3E0FFEE7022EFF2
:105EA30014601014601014601024F6600F04701155
:105EB300027C170268020269180269A37F1D125F40
:025EC3009D221E
:0C000E00EF24F67006128232127ECB2224
:104DD000127E22901200E024E86033147003024E29
:104DE0005E24FD6044147003024E792406600302C1
:104DF0004E9C90110A74FFF0A3746AF0A374B5F08E
:104E0000A374FFF0A37422F0A3745F024E9290117A
:104E10000A74FFF0A3746AF0A374B5F0A374FFF0F2
:104E2000A37422F0A37472806990110A74FFF0A336
:104E3000746AF0A374B5F0A374FFF0A37422F0A316
:104E4000748DF07B017A1079831227C59011E3E00D
:104E50007002A3E06004D2C28042C2C2803E9011C0
:104E60000A74FFF0A3746AF0A374B5F0A374FFF0A2
:104E7000A37422F0A37499801990110A74FFF0A30F
:104E8000746AF0A374B5F0A374FFF0A37422F0A3C6
:104E900074BCF07B017A1079831227C5901200E070
:104EA000FF64186005EF641C70297B017A10798318
:104EB000E4FD7F01127FEC9011E3E07004A3E06455
:104EC000017BFF70067A2279D280047A2279DB7D19
:104ED00005804A7B017A107983E4FD7F01127FEC23
:104EE0009011E3E0FEA3E0FFD39400EE9400403283
:104EF000901200E0641C602A90110A74FFF0A37401
:104F00006AF0A374AEF0A3EEF0A3EFF07B017A1089
:104F100079831227C57B017A1079837D087F02127D
:024F20007FEC24
:014F2200226C
:105F9D00EF24E8602514604824FD60311460552419
:105FAD000660030260639011E57402F09011E7E45E
:105FBD00F0A3745AF09011F9804C9011E57401F032
:105FCD009011E7E4F0A304F09011FA80399011E5F7
:105FDD007401F09011E7E4F0A304F09011FB80261A
:105FED009011E57402F09011E7E4F0A37463F09062
:105FFD0011FC80129011E57401F09011E7E4F0A30B
:10600D007405F09011FDE0FD9011E3E4F0A3EDF0C7
:10601D00901200EFF0E49011E6F09011E3E0FEA392
:10602D00E0FFD3EF9400EE9400400F9011E6E004F2
:10603D00F07C007D0A1217D580E8901200E0FF6415
:10604D0018600AEF641C6005EF641D70069011E680
:06605D007401F0124DD0A9
:01606300221A
:105A3F00901083ECF0A3EDF0EF24E8603014607B5E
:105A4F0024FD6050147003025AF124066003025BB8
:105A5F0029901083A3E09011F9F0C374F994F1FF2A
:105A6F0074119411FE7B017A1179F980689010837B
:105A7F00E07002A3E07003FF80027F019011FAEF44
:105A8F00F0C374FA94F1FF74119411FE7B017A1133
:105A9F0079FA8041901083E07002A3E07003FF80D9
:105AAF00027F019011FBEFF0C374FB94F1FF7411AF
:105ABF009411FE7B017A1179FB801A901083A3E079
:105ACF009011FCF0C374FC94F1FF74119411FE7BE0
:105ADF00017A1179FC9010EBE4F0A304F012688DB9
:105AEF008038901083E0FEA3E0FFD39400EE940083
:105AFF0040289011FDEFF074FD94F1FF7411941193
:105B0F00FE7B017A1179FD9010EBE4F0A304F01203
:0D5B1F00688D9011FDE09011E2F002809B76
:1049B600901082EFF09011E6E064637002807A90C6
:1049C6001082E024F5604E24FC60482405706D904A
:1049D6001200E0FF6418600BEF641C60069011E69D
:1049E600E0700E9011FBE06004D2C28002C2C28069
:1049F600489011E6E014F09011E3E0FEA3E0FF7C9E
:104A0600007D0A1217D59011E3EEF0A3EFF0124DD8
:104A1600D0802980249011E6E0D39400748094809D
:104A26004017901200E0FF9011E3E0FCA3E0FD12B6
:104A36005A3F9011E67463F0220276C7901082E026
:104A4600FF7E00C3748094805003024B1AD3EF9408
:104A560009748094804003024B1A901200E0FF64B0
:104A6600186005EF641C70129011E67401F0901046
:104A760082E0FF9011E3E4024B16901200E0641D01
:104A8600702B901082E0FFD39400748094805003C2
:104A9600024B1A7E009011E8E09F9011E7E09E40DD
:104AA600739011E67401F09011E31480639011E5A0
:104AB600E0FFA3E0C39F505C9011E3E0FEA3E0FF9C
:104AC6007C007D0A1217C39011E7E0FCA3E0FDC34A
:104AD6009FEC9E403F9011E6E004F09011E3EEF06B
:104AE600A3EFF0901082E0F92FFFE43EFEC3ED9FA6
:104AF600EC9E4011E9FF9011E4E02FF09011E3E005
:104B06003400F0800F9011E7E0FFA3E09011E3CFAF
:084B1600F0A3EFF0124DD022D4
:10483800901081EFF09011B2E4F0A3741EF0901282
:1048480000E014B41D00400302498590486175F0EA
:1048580003A4C58325F0C583730248B80248C30280
:1048680048CE0248D90248E40248EF02492D0248DE
:10487800FA02490502490F0249190249230249412E
:1048880002493702495F02496902497302497D02B8
:10489800494B02494B02498502498502495502495B
:1048A800550249550249850249850249550249552B
:1048B800901081E0FF124F23024985901081E0FF9C
:1048C800125DE3024985901081E0FF127D9F024945
:1048D80085901081E0FF120DFC024985901081E05F
:1048E800FF123B0E024985901081E0FF127F7A0289
:1048F8004985901081E0FF127DC0024985901081A2
:10490800E0FF121BD98076901081E0FF12467D806F
:104918006C901081E0FF127F918062901081E0FF1F
:10492800124C7B8058901081E0FF125625804E90E3
:104938001081E0FF1257358044901081E0FF12315A
:104948000F803A901081E0FF12000E8030901081A5
:10495800E0FF1249B68026901081E0FF127DE180C9
:104968001C901081E0FF1242FC8012901081E0FF41
:104978001241338008901081E0FF127FA8D3901174
:10498800B3E0940A9011B2E094004021901200E044
:10499800FF640E600FEF640C600AEF64076005EFB8
:0E49A800640170099011B2E4F0A3740AF022C9
:106FB400901081EBF0A3EAF0A3E9F0901200E02432
:106FC400F1605024FE60071460492402700E901092
:106FD40081E0FBA3E0FAA3E0F902768C901081E053
:106FE400FBA3E0FAA3E0F9126279EFF47002EEF485
:106FF4006007D20012814B80031280B0901200E02F
:10700400FF6414600EEF641360099011B2E4F0A3FE
:047014007403F022EF
:10808600436865636B5073773A25750D0A0025754D
:05809600002573250028
:0E4556004112B5004112B600C10AC10BC10CE2
:107D1600C374ED94E9FF74119411CF2480CF34001D
:107D2600FE7B017A1179ED9010EBE4F0A37402F07A
:037D360002688D53
:0A820300E49011EDF0A3F0027D16E7
:10811300D39011EEE0940A9011EDE0940040031225
:03812300820322B2
:0B7B0F00901089E0FBA3E0FAA3E0F96E
:107B1A00EF7802C333CE33CED8F924F8FFEE34120D
:0D7B2A00FE9010EBE4F0A37404F002688DEF
:107E5C00EF7802C333CE33CED8F924F8FFEE3412C8
:0D7E6C00FE9010EBE4F0A37404F002707BB4
:0B742E009012C4EBF0A3EAF0A3E9F019
:1074390074FFA3F0A3F07D02126AB89012C7EEF0B0
:10744900A3EFF0F47002EEF4601F9012C7E0FEA300
:10745900E0FF9012C4E0FBA3E0FAA3E0F9127E5C1E
:0D7469009012C7E0FEA3E0FF227EFF7FFF30
:0174760022F3
:086BB500901083EEF0A3EFF055
:106BBD00E4A3F0A3F07BFF7A80798690110AEEF0C2
:106BCD00A3EFF01227CB9011EDE07002A3E070025D
:106BDD00C322E4901085F0A3F09011EDE0FCA3E04A
:106BED00FD901085E0FEA3E0FFC39DEE9C502F7B32
:106BFD00017A107987127E5C901083E0FEA3E0FF8E
:106C0D00901089E0B50607A3E0B50702D3229010D6
:0F6C1D0086E004F070C3901085E004F080BBC3E4
:016C2C002245
:0B6CA400901089EBF0A3EAF0A3E9F0E8
:106CAF0074FFA3F0A3F0121856FFAEF07D02126A24
:106CBF00B890108CEEF0A3EFF0F47002EEF46014C5
:106CCF0090108CE0FEA3E0FF127B0F90108CE0FE83
:106CDF00A3E0FF229011EDE0FEA3E0FFC3940AEEC4
:106CEF0094005023127B0F9011EEE004F070069089
:106CFF0011EDE004F0127D169011EEE024FFFF90ED
:0B6D0F0011EDE034FFFE227EFF7FFF4D
:016D1A002256
:086E6F00901087EEF0A3EFF094
:106E77009011EDE0FCA3E0FDD39FEC9E4058ED247C
:106E8700FFFFEC34FFFE901087E0B50616A3E0B5D0
:106E970007119011EEE024FFF09011EDE034FFF0C0
:106EA700027D169011EEE024FFF09011EDE034FF23
:106EB700F0127D169011EDE0FEA3E0FF7B017A1042
:106EC7007989127E5C901087E0FEA3E0FF7B017A50
:066ED700107989127B1AFC
:016EDD002292
:087BA800901085EEF0A3EFF050
:107BB0008013EFF47002EEF46012126E6F90108575
:0C7BC000E0FEA3E0FF7D02126AB880E640
:017BCC002296
:082AC5007B017A1279ABD2000B
:0B2ACD00901089EBF0A3EAF0A3E9F001
:102AD800127E22901200E0640D700F7BFF7A21793C
:102AE80086FD7F01127FEC022B9D901200E0FF64AF
:102AF8000D7003022B9DEF640C7003022B9D901048
:102B080089E0FBA3E0FAA3E0F9121856D39400E594
:102B1800F094007BFF7A2079A5E4FD7F01405A12EA
:102B28007FEC90110A74FFF0A37480F0A37494F002
:102B3800901089E0FBA3E0FAA3E0F9121856FF9081
:102B4800110DE5F0F0A3EFF07B017A10798C1227D4
:102B5800C57BFF7A2079A5127F63C374109FFFC0DD
:102B6800077B017A10798C127B5DC3D0E09FFD7BD7
:102B7800017A10798C7F018000127FEC9012B5E009
:102B880070137BFF7A2079A5127F63C3740F9FFDB2
:102B98007F01128221200003022DEC901089E0FBB6
:102BA800A3E0FAA3E0F9900002121A0DE4FBFAF987
:102BB800F8C31219D64003022C9990110A74FFF039
:102BC800A37480F0A37497F0A374FFF0A37421F0AA
:102BD800A37465F00B7A10798C1227C59012ADE0BA
:102BE800FCA3E0FDA3E0FEA3E0FF9010A1121A6D84
:102BF800E49010A0F0E4FFFEFDFC9010A1E0F8A323
:102C0800E0F9A3E0FAA3E0FBD31219D6403F7BFF1B
:102C18007A217965127B5D9010A0E02F248CF582D3
:102C2800E43410F583742AF09010A1E0FCA3E0FDD1
:102C3800A3E0FEA3E0FFE47B0AFAF9F81219449036
:102C480010A1121A6D9010A0E004F080A87BFF7A02
:102C5800217965127B5D9010A0E02F248CF582E429
:102C68003410F583E4F07B017A10798CFD7F021231
:102C78007FEC901200E0640D60047F0180027F0009
:102C88009012B5E06F7033A3E0FFC374099FFD8015
:102C9800247BFF7A217965E4FD7F02127FEC901294
:102CA80000E0640D60047F0180027F009012B5E0AF
:102CB800B507077D097F02128221901200E0640C9B
:102CC8007003022DEC901089E0FBA3E0FAA3E0F971
:102CD800900006121A0DE4FBFAF9F8C31219D6404F
:102CE80003022DC390110A74FFF0A37480F0A3743B
:102CF80097F0A374FFF0A37421F0A37471F00B7A1A
:102D080010798C1227C59012B1E0FCA3E0FDA3E076
:102D1800FEA3E0FF9010A1121A6DE49010A0F0E459
:102D2800FFFEFDFC9010A1E0F8A3E0F9A3E0FAA3F0
:102D3800E0FBD31219D6403F7BFF7A217971127BD1
:102D48005D9010A0E02F248CF582E43410F5837494
:102D58002AF09010A1E0FCA3E0FDA3E0FEA3E0FFB1
:102D6800E47B0AFAF9F81219449010A1121A6D902E
:102D780010A0E004F080A87BFF7A217971127B5DB6
:102D88009010A0E02F248CF582E43410F583E4F051
:102D98007B017A10798CFD7F03127FEC901200E0A2
:102DA800640D60047F0280027F019012B5E06F70AD
:102DB80033A3E0FFC3740B9FFD80247BFF7A217946
:102DC80071E4FD7F03127FEC901200E0640D600453
:102DD8007F0280027F019012B5E0B507077D0B7F67
:042DE800031282212F
:012DEC0022C4
:107BCD007B017A1279AB7D0A7C001279BCE49012AC
:107BDD00B5F0A3F09012007409F07B017A1279AB25
:057BED00D200022ACDC8
:051BD900901082EFF006
:101BDE00640B6003021D269012B5E06403600302DD
:101BEE001CAE300A147B017A1279AB7D0AFC127995
:101BFE00BCE49012B6F0021CAED39012ACE094008E
:101C0E009012ABE094005003021CABE4FFFEFDFC0F
:101C1E009012ADE0F8A3E0F9A3E0FAA3E0FB1219ED
:101C2E00D6607A9012B1E0FCA3E0FDA3E0FEA3E043
:101C3E00FF9012ADE0F8A3A3A3E0C31219D6705D16
:101C4E009012ABE0FFA3E0901085CFF0A3EFF090E1
:101C5E0012ADA3A3E0FFA3E0901087CFF0A3EFF0A7
:101C6E007B017A107985126CA4EFF47002EEF460A9
:101C7E000512809B800312819D7B017A1279AB7DC8
:101C8E000A7C001279BCD20A9012AD121A790000A9
:101C9E0000009012B1121A79000000002202819DFC
:101CAE009012B5E004F0E05403FFF0E4A3F0EF145B
:101CBE00604914604B14605A24036003021E99E4B9
:101CCE009012B5F09012ABE0FFA3E0901083CF809E
:101CDE0024901083E0FEA3E0FFD39400EE94005016
:101CEE0003021E999012B6E004F07C007D0A1217D2
:101CFE00D5901083EEF0A3EFF080D69012AD800356
:101D0E009012B1121A7900000000E49012B6F0029F
:101D1E001E9912817DC20A22901082E0640A60032D
:101D2E00021E8E9012B5E0146040147003021DE482
:101D3E00147003021E5324036003021E999012B600
:101D4E00E0D3940074809480401DE014F09012ABA8
:101D5E00E0FEA3E0FF7C007D0A1217D59012ABEED9
:101D6E00F0A3EFF0021E99021E969012B6E0D394E5
:101D7E000074809480401FE014F09012ADE0FCA33C
:101D8E00E0FDA3E0FEA3E0FFE47B0AFAF9F81219E6
:101D9E00449012AD806A9012B5E014F0E4A3F09076
:101DAE0012ABE0FFA3E0901083CF8024901083E06D
:101DBE00FEA3E0FFD39400EE94005003021E999010
:101DCE0012B6E004F07C007D0A1217D5901083EE57
:101DDE00F0A3EFF080D69012B6E0D3940074809406
:101DEE00804023E014F09012B1E0FCA3E0FDA3E0EC
:101DFE00FEA3E0FFE47B0AFAF9F81219449012B13F
:101E0E00121A6D021E999012B5E014F0E4A3F09030
:101E1E0012ADA3A3E0FFA3E0901083CF802190101A
:101E2E0083E0FEA3E0FFD39400EE9400405D901299
:101E3E00B6E004F07C007D0A1217D5901083EEF008
:101E4E00A3EFF080D9E49012B5F0A3F09012ABE0BE
:101E5E00FFA3E0901083CF8021901083E0FEA3E0DB
:101E6E00FFD39400EE940040229012B6E004F07C72
:101E7E00007D0A1217D5901083EEF0A3EFF080D9F3
:101E8E00901082E0640F7003026918901082E0FFD8
:101E9E007E00C374809480500302201BD3EF9409FC
:101EAE0074809480400302201B9012B5E01460737E
:101EBE00147003021FA52402600302201B9012B6A9
:101ECE00E0C394047480948050499012ABE0FEA35A
:101EDE00E0FF7C007D0A1217C39012ABEEF0A3EF69
:101EEE00F0901082E0FF7E009012ACE02FF0901286
:101EFE00ABE03EF09012B6E004F0D39012ACE0945A
:101F0E000A9012ABE09400400AEEF0A3EFF0E490DA
:101F1E0012B6F09012ABE07002A3E0600302201B39
:101F2E000220179012B6E0C3940474809480504C33
:101F3E009012ADE0FCA3E0FDA3E0FEA3E0FFE47B86
:101F4E000AFAF9F81218B99012AD121A6D9012AD74
:101F5E00E0F8A3E0F9A3E0FAA3E0FB901082E0FF23
:101F6E00E4FCFDFEEB2FFFEE3AFEED39FDEC38FC06
:101F7E009012AD121A6D9012B6E004F0E4FFFEFD61
:101F8E00FC9012ADE0F8A3E0F9A3E0FAA3E0FBC3E6
:101F9E001219D6707880729012B6E0C394047480D1
:101FAE009480504C9012B1E0FCA3E0FDA3E0FEA3A0
:101FBE00E0FFE47B0AFAF9F81218B99012B1121A7E
:101FCE006D9012B1E0F8A3E0F9A3E0FAA3E0FB9064
:101FDE001082E0FFE4FCFDFEEB2FFFEE3AFEED3942
:101FEE00FDEC38FC9012B1121A6D9012B6E004F0AE
:101FFE00E4FFFEFDFC9012B1E0F8A3E0F9A3E0FAD5
:10200E00A3E0FBC31219D670049012B6F0122AC5C3
:01201E00229F
:107BF2007B017A1279AB7D0A7C001279BCE4901287
:107C0200B5F0A3F0901200740AF07B017A1279ABFE
:057C1200C200022ACDB2
:05467D00901082EFF037
:10468200640B60030247299012B5E06401703E306A
:104692000B137B017A1279AB7D0AFC1279BCE49090
:1046A20012B6F080289012ABE0FEA3E0FFD3940094
:1046B200EE94005003024837127BA87B017A1279EC
:1046C200AB7D0A7C001279BCD20B0281AD9012B58F
:1046D200E004F0E05401FFF0E4A3F0EF14604204C0
:1046E20060030247AAE49012B6F09012ABE0FFA377
:1046F200E0901083CF8024901083E0FEA3E0FFD3EC
:104702009400EE940050030247AA9012B6E004F01F
:104712007C007D0A1217D5901083EEF0A3EFF08093
:10472200D612818DC20B22901082E0640A706E90C4
:1047320012B5E014602C04706F9012B6E0D39400AE
:1047420074809480405FE014F09012ABE0FEA3E02E
:10475200FF7C007D0A1217D59012ABEEF0A3EFF0AA
:104762008046E49012B5F0A3F09012ABE0FFA3E014
:10477200901083CF8021901083E0FEA3E0FFD394BA
:1047820000EE940040229012B6E004F07C007D0A14
:104792001217D5901083EEF0A3EFF080D99010821B
:1047A200E0640F7003026918901082E0FF7E00C37C
:1047B200748094804074D3EF940974809480506A1A
:1047C2009012B5E070649012B6E0C39404748094C1
:1047D2008050499012ABE0FEA3E0FF7C007D0A12FC
:1047E20017C39012ABEEF0A3EFF0901082E0FF7EC1
:1047F200009012ACE02FF09012ABE03EF09012B6B7
:10480200E004F0D39012ACE0940A9012ABE0940072
:10481200400AEEF0A3EFF0E49012B6F09012ABE093
:104822007002A3E070049012B6F07B017A1279ABA9
:05483200C200122ACDB6
:01483700225E
:10805A00901200740BF0127E227BFF7A21790FE4D2
:06806A00FD7F01027FEC26
:107F9100EF24F6600E24FB600A24047009128203A8
:077FA1000281AD12691822F4
:106918009012007408F0127E227BFF7A21792AE413
:10692800FDFF127FEC7BFF7A217941E4FD7F0112A4
:106938007FEC7BFF7A217955E4FD7F02127FEC7BA7
:10694800FF7A217979E4FD7F03127FEC90110A74B4
:10695800FFF0A37480F0A37494F09011EDE0FFA30E
:10696800E090110DCFF0A3EFF07B017A1079891236
:1069780027C57BFF7A217979127F63C3740F9FFF44
:10698800C0077B017A107989127B5DC3D0E09FFD37
:0B6998007B017A1079897F03027FECFD
:107DC000EF24FE601214601224F9601124FB600D90
:107DD000240E700C027BCD027BF202805A1276C711
:017DE0002280
:107CCF007B017A1279AB7D0A7C001279BC9012B5D8
:107CDF007401F0E4A3F0901200740CF0122AC57F27
:047CEF00020265B078
:104C7B00901082EFF0640A70369012B5E014703D1C
:104C8B009012B6E0D3940074809480402AE014F024
:104C9B009012ADE0FCA3E0FDA3E0FEA3E0FFE47BFC
:104CAB000AFAF9F81219449012AD121A6D800E908F
:104CBB001082E0640F7006127ECB0277A1901082F7
:104CCB00E0FF7E00C3748094805003024DCCD3EF81
:104CDB009409748094804003024DCC9012B5E0147B
:104CEB006003024DCC9012B6E0C3940474809480A0
:104CFB00504C9012ADE0FCA3E0FDA3E0FEA3E0FF5F
:104D0B00E47B0AFAF9F81218B99012AD121A6D90E9
:104D1B0012ADE0F8A3E0F9A3E0FAA3E0FB90108258
:104D2B00E0FFE4FCFDFEEB2FFFEE3AFEED39FDEC70
:104D3B0038FC9012AD121A6D9012B6E004F0E4FF3D
:104D4B00FEFDFC9012ADE0F8A3E0F9A3E0FAA3E0BE
:104D5B00FBC31219D670049012B6F09012B6E06431
:104D6B0004705E9012ADA3A3E0FEA3E0FF126BB53F
:104D7B005029D20012814B9011B2E4F0A37403F0CE
:104D8B009012AD121A7900000000E49012ABF0A360
:104D9B00F09012B6F09012B504F0229012AD121AE8
:104DAB007900000000E49012B6F09012B504F012F6
:104DBB00819D7F051265B09011B2E4F0A37405F0EC
:054DCB0022122AC5229E
:107C17007B017A1279AB7D0A7C001279BCE4901261
:107C2700B5F0A3F0901200740DF07B017A1279ABD6
:057C3700D200022ACD7D
:107E7900C374F394F1FF74119411FE7B017A1179A3
:0D7E8900F39010EBE4F0A37404F002688D98
:05310F00901082EFF0BA
:10311400640B60030232169012B5E064026003028D
:1031240031C8300C147B017A1279AB7D0AFC127918
:10313400BCE49012B6F00231C8E4FFFEFDFC90122C
:10314400ADE0F8A3E0F9A3E0FAA3E0FBC31219D6BB
:10315400605B9012B1E0FCA3E0FDA3E0FEA3E0FFFE
:103164009012ADE0F8A3A3A3E0C31219D6703E9069
:1031740012ADE0FCA3E0FDA3E0FEA3E0FF9011F399
:10318400121A6D127E7912809B7B017A1279AB7DC3
:103194000A7C001279BCD20C9012AD121A7900008C
:1031A40000009012B1121A7900000000229012ADB2
:1031B400121A79000000009012B1121A790000006E
:1031C4000002819D9012B5E064017009A3E06406D9
:1031D40060030233E99012B5E004F0E075F0038473
:1031E400AFF0EFF0E4A3F0EF14600F14601E2402BC
:1031F40060030232D19012AD80039012B1121A7999
:1032040000000000E49012B6F00232D112817DC2B7
:103214000C22901082E0640A60030232C69012B558
:10322400E014603B1470030232BD240260030232D6
:10323400D19012B6E0D3940074809480401FE014BF
:10324400F09012ADE0FCA3E0FDA3E0FEA3E0FFE4F8
:103254007B0AFAF9F81219449012AD802C806B9015
:1032640012B6E0D39400748094804022E014F0906D
:1032740012B1E0FCA3E0FDA3E0FEA3E0FFE47B0ABF
:10328400FAF9F81219449012B1121A6D803F901293
:10329400B5E014F0E4A3F09012ADA3A3E0FEA3E024
:1032A400FFD3EF9400EE940040239012B6E004F0B4
:1032B4007C007D0A1217D580E8E49012B5F0A3F0E3
:1032C400800B901082E0640F70030276C790108226
:1032D400E0FF7E00C37480948050030233E6D3EF92
:1032E40094097480948040030233E69012B5E0148C
:1032F400607A0460030233E69012B6E0C394067465
:10330400809480504C9012ADE0FCA3E0FDA3E0FE5D
:10331400A3E0FFE47B0AFAF9F81218B99012AD128F
:103324001A6D9012ADE0F8A3E0F9A3E0FAA3E0FB74
:10333400901082E0FFE4FCFDFEEB2FFFEE3AFEED81
:1033440039FDEC38FC9012AD121A6D9012B6E004FF
:10335400F0E4FFFEFDFC9012ADE0F8A3E0F9A3E079
:10336400FAA3E0FBC31219D6707880729012B6E00B
:10337400C3940674809480504C9012B1E0FCA3E096
:10338400FDA3E0FEA3E0FFE47B0AFAF9F81218B902
:103394009012B1121A6D9012B1E0F8A3E0F9A3E013
:1033A400FAA3E0FB901082E0FFE4FCFDFEEB2FFFAC
:1033B400EE3AFEED39FDEC38FC9012B1121A6D9024
:1033C40012B6E004F0E4FFFEFDFC9012B1E0F8A3B5
:1033D400E0F9A3E0FAA3E0FBC31219D6700490123B
:0533E400B6F0122AC53D
:0133E90022C1
:10201F00257500222C2F3A2829275F2D2000D794D1
:10202F00D792D793D7A8D7AA20D79ED7A2D7A8D76A
:10203F009BD7AA00312D313300312DD794D795D7A7
:10204F00A1D7A32FD7A2D7A8D795D79A20D7A9D7EB
:10205F009D00322DD79ED797D7A720D7A9D79D0000
:10206F00332D20D79ED797D7A720D794D79BD79C10
:10207F0000D794D790D79D20D79CD79ED797D79529
:10208F00D7A720D794D79BD79C203F00D793D7991A
:10209F00D7A8D7943A00D7AAD7903A2000D7A9D774
:1020AF009D3A00D79ED79ED7A1D7A83A0020D79C9C
:1020BF00D790D7A9D7A820D7A9D79ED799D7A8D7D0
:1020CF00943F00202020D7A9D79ED795D7A82100CD
:1020DF002020D7A9D792D799D790D7942100D79CF2
:1020EF00D790D7A9D7A820D79ED797D799D7A7D7B3
:1020FF0094203F002020D7A0D79ED797D7A72100A5
:10210F00D794D790D79D20D79CD79ED797D795D7C1
:10211F00A720D794D79BD79C203F00312D20D79451
:10212F00D795D7A1D7A320D7A1D799D7A1D79ED776
:10213F009400322DD79ED797D7A720D7A1D799D75D
:10214F00A1D79ED79400332DD79ED797D7A720D747
:10215F0094D79BD79C00D7A1D799D7A1D79ED794B7
:10216F003A00D790D7A9D7A83A00D7A1D79A20D7A6
:10217F0094D79BD79C3A00D7A1D799D7A1D79ED7F1
:10218F00AA20D79ED7A0D794D79C00312DD794D70C
:10219F0095D7A1D7A320D79BD7A8D798D799D7A141
:1021AF0000322DD79ED797D799D7A7D7AA20D79BDD
:1021BF00D7A8D798D799D7A100332DD79ED797D720
:1021CF00A720D794D79BD79C00D794D790D79D2083
:1021DF00D79CD79ED797D795D7A720D794D79BD7DC
:1021EF009C203F00D79BD7A8D798D799D7A13A0063
:1021FF002020D7A9D792D799D790D7AA20D79BD7E6
:10220F00A8D798D799D7A121002020D793D79CD7AB
:10221F00AA20D7A0D7A4D7AAD797D7AA2100D79EED
:10222F00D7A6D79CD7A6D79C3A00D796D79ED79F2D
:10223F0020D793D799D791D795D7A83A00D796D7C4
:10224F009ED79F20D7A6D79CD7A6D795D79C3A00C5
:10225F00D796D79ED79F20D7A6D79CD7A6D795D747
:10226F009C3A00D794D7A0D797D799D795D7AA20BC
:10227F00D7A7D795D79CD799D795D7AA3A00D79EE6
:10228F00D7A6D79CD79ED7943A00D796D79ED79FDD
:10229F0020D79ED79ED7A1D7A83A00D79ED7A7D72A
:1022AF00A920D7A42ED793D79CD7AA3A00D7A2D7C5
:1022BF0095D7A6D79ED7AA20D793D799D791D79539
:1022CF00D7A800D7A4D7A2D799D79C00D79BD791CF
:1022DF00D795D79900D7A9D792D799D790D7AA20B2
:1022EF00D79BD7A8D798D799D7A120D7A1D799D7B8
:1022FF009D2100D791D7A8D795D79BD799D79D2048
:10230F00D794D791D790D799D79D2100D79CD7A68F
:10231F00D79CD7A6D795D79C20D79CD793D799D79B
:10232F00A8D79400D79CD797D7A6D79520D79ED755
:10233F00A1D7A4D7A820D793D799D7A8D79400D738
:10234F009CD791D799D798D795D79C20D79CD797BB
:10235F00D7A6D79500D79CD7A8D7A9D799D79ED757
:10236F00AA20D7A9D79ED795D7AA0020D79CD791B7
:10237F00D797D799D7A8D7AA20D7A9D79D20D79CC9
:10238F00D797D7A6D79500D79CD79BD7A0D799D744
:10239F00A1D79420D7A2D79D20D7A7D795D79300A1
:1023AF00D79CD797D7A6D795202020D795D7A7D733
:1023BF0095D7930020D7A9D792D799D790D79420A4
:1023CF00D791D793D799D7A8D7942100D7A9D799C1
:1023DF00D797D7943A005265736574204F4B2100FD
:10817D00127E227BFF7A2079BCE4FD7F01027FEC29
:10818D00127E227BFF7A2079EDE4FD7F01027FECE8
:10809B00127E227BFF7A2079D2E4FD7F01127FECE6
:0580AB007F060265B034
:10819D00127E227BFF7A2079DFE4FD7F01027FECE6
:1081AD00127E227BFF7A217903E4FD7F01027FECB1
:1080B000127E227BFF7A2179FFE4FD7F01127FECA3
:0580C0007F070265B01E
:107F1800127E227BFF7A227918E4FD7F01127FEC22
:097F28003001057F031265B0224F
:1081BD00127E227BFF7A2379C3E4FD7F01027FECDF
:01000A0022D3
:1063CC00901083EFF0127E2212000A901083E07B73
:1063DC00FF703F7A237902FDFF127FEC7BFF7A235B
:1063EC00791BE4FD7F01127FEC7BFF7A237933E488
:1063FC00FD7F02127FEC7B02E4FD7F021281397B70
:10640C00FF7A23794EE4FD7F03127FEC7B087D033A
:10641C00804F7A237964E4FDFF127FECE4FB7D026C
:10642C00FF1281397B017D03E4FF1281397BFF7AF6
:10643C0023797AE4FD7F01127FEC7B02E4FD7F017E
:10644C001281397BFF7A237996E4FD7F02127FEC6F
:10645C007BFF7A2379AFE4FD7F03127FEC7B037D16
:07646C000A7F0312813922AF
:10758900127E227BFF7A2379DBE4FD7F01127FECF7
:1075990090110A74FFF0A37420F0A3741FF09012E5
:1075A900A9E0FFA3E090110DCFF0A3EFF07B017AE2
:1075B90012798B1227C57B017A12798B7D087F019D
:0375C900027FEC52
:1081CD00127E227BFF7A2379E5E4FD7F01027FECAD
:107FBF00436865636B436172643A2562640D0A001E
:077FCF00257500256C75000B
:0C4564004112BD004112BE00C115C1167D
:107D3900C374EF94E9FF74119411CF2480CF3400F8
:107D4900FE7B017A1179EF9010EBE4F0A37402F055
:037D590002688D30
:0A820D00E49011EFF0A3F0027D39B8
:10812600D39011F0E094F49011EFE0940140031223
:03813600820D2295
:0B786D00901090EBF0A3EAF0A3E9F00C
:107878007C007D061217C3EF2420FFEE3413FE9020
:107888001090E0FBA3E0FAA3E0F99010EBE4F0A37A
:067898007406F002688D89
:0B789E00901093EBF0A3EAF0A3E9F0D8
:1078A9007C007D061217C3EF2420FFEE3413FE90EF
:1078B9001093E0FBA3E0FAA3E0F99010EBE4F0A346
:0678C9007406F002707B62
:0B627900901088EBF0A3EAF0A3E9F01E
:10628400E4901091F0A3F09011EFE07002A3E0709D
:106294000302631F9011EFE0FCA3E0FD901091E076
:1062A400FEA3E0FFC39DEE9C50717B017A10798BB5
:1062B40012789EE4FFEFC394047480948050259078
:1062C4001088E0FBA3E0FAA3E0F98F827583001243
:1062D4001762FE748D2FF582E43410F583E0B50661
:1062E400030F80D1EF640470217BFF7A7F79BF9024
:1062F4001091E0FFA3E090110ACFF0A3EFF0122772
:10630400CB901091E0FEA3E0FF22901092E004F005
:0F6314007006901091E004F00262987EFF7FFF08
:016323002257
:0B5B2C00901085EBF0A3EAF0A3E9F075
:105B3700E490108EF0A3F09011EFE0FCA3E0FD904D
:105B4700108EE0FEA3E0FFC39DEE9C507F7B017AA1
:105B570010798812789E901085E0FBA3E0FAA3E005
:105B6700F9121856FF901088E065F07003A3E06FF4
:105B77007046FFEFC3940474809480502D90108575
:105B8700E0FBA3E0FAA3E02402F9E43AFAEF7C0091
:105B970029F9EC3AFA121749FE748A2FF582E43490
:105BA70010F583E0B506030F80C9EF640470099010
:105BB700108EE0FEA3E0FF2290108FE004F0600358
:105BC700025B3E90108EE004F0025B3E9011EFE026
:105BD700FEA3E0FFC394F4EE9401502E901085E0ED
:105BE700FBA3E0FAA3E0F912786D9011F0E004F05E
:105BF70070069011EFE004F0127D399011F0E02467
:0E5C0700FFFF9011EFE034FFFE227EFF7FFFD3
:015C1500226C
:086EDE00901088EEF0A3EFF024
:106EE6009011EFE0FCA3E0FDD39FEC9E4058ED240B
:106EF600FFFFEC34FFFE901088E0B50616A3E0B560
:106F060007119011F0E024FFF09011EFE034FFF04C
:106F1600027D399011F0E024FFF09011EFE034FF8C
:106F2600F0127D399011EFE0FEA3E0FF7B017A10AD
:106F3600798A12789E901088E0FEA3E0FF7B017AA2
:066F460010798A12786D3B
:016F4C002222
:087C3C00901085EEF0A3EFF0BB
:107C44008013EFF47002EEF46012126EDE90108571
:0C7C5400E0FEA3E0FF7D03126AB880E6AA
:017C60002201
:0B7ABD00901085EBF0A3EAF0A3E9F0C5
:107AC8008016EFF47002EEF46013126EDE901085EB
:0D7AD800E0FBA3E0FAA3E0F912627980E57B
:017AE500227E
:0B38BC00901087EBF0A3EAF0A3E9F006
:1038C700127E22901087E0FBA3E0FAA3E0F912181A
:1038D70056D39400E5F094007BFF7A2079A5E4FDA8
:1038E7007F01405A127FEC90110A74FFF0A3747F96
:1038F700F0A374CFF0901087E0FBA3E0FAA3E0F900
:10390700121856FF90110DE5F0F0A3EFF07B017A46
:1039170010798E1227C57BFF7A2079A5127F63C3A2
:1039270074109FFFC0077B017A10798E127B5DC3ED
:10393700D0E09FFD7B017A10798E7F018000127F96
:10394700EC9012BDE070137BFF7A2079A5127F639C
:10395700C3740F9FFD7F01128221200003023B0DDC
:103967007BFF7A2179F3E4FD7F02127FEC901087C9
:10397700E0FBA3E0FAA3E02402F9E43AFA7D047C31
:103987000012798E5003023B0D901087E0FBA3E0F5
:10399700FAA3E0F9900002121762FFE4FCFDFE9023
:1039A700108A121A6D90108AE0FCA3E0FDA3E0FED6
:1039B700A3E0FF78081219FA90108A121A6D901076
:1039C7008AE0F8A3E0F9A3E0FAA3E0FBC000C00196
:1039D700C002C003901087E0FBA3E0FAA3E0F990D0
:1039E7000003121762FFD003D002D001D000EB4FC3
:1039F700FFEAFEE9FDE8FC90108A121A6D90108A22
:103A0700E0FCA3E0FDA3E0FEA3E0FF78081219FAAB
:103A170090108A121A6D90108AE0F8A3E0F9A3E0DB
:103A2700FAA3E0FBC000C001C002C003901087E00A
:103A3700FBA3E0FAA3E0F9900004121762FFD0039A
:103A4700D002D001D000EB4FFFEAFEE9FDE8FC9081
:103A5700108A121A6D90108AE0FCA3E0FDA3E0FE25
:103A6700A3E0FF78081219FA90108A121A6D9010C5
:103A77008AE0F8A3E0F9A3E0FAA3E0FBC000C001E5
:103A8700C002C003901087E0FBA3E0FAA3E0F9901F
:103A97000005121762FFD003D002D001D000EB4F10
:103AA700FFEAFEE9FDE8FC90108A121A6D90110AF0
:103AB70074FFF0A3747FF0A374D2F090108AE0FC37
:103AC700A3E0FDA3E0FEA3E0FF78081219E7901139
:103AD7000D121A6D7B017A10798E1227C57BFF7A3A
:103AE7002179F3127F63C374109FFFC0077B017AAC
:103AF70010798E127B5DC3D0E09FFD7B017A107930
:063B07008E7F02127FEC2C
:013B0D002295
:107C61007B017A1279B77D067C001279BCE490120F
:107C7100BDF0A3F09012007410F07B017A1279B775
:057C8100D2000238BC36
:0542FC00901082EFF0BC
:10430100640B60030243CA9012BDE0640170603027
:1043110015137B017A1279B77D06FC1279BCE49002
:1043210012BEF0804AD39012B8E094009012B7E028
:10433100940040387B017A1279B97D047C001279AE
:104341008E40297B017A1279B7125B2CEFF470024F
:10435100EEF4600512809B800312819D7B017A122D
:1043610079B77D067C001279BCD2152202819D901D
:1043710012BDE004F0E05401FFF0E4A3F0EF14609B
:104381004204600302444BE49012BEF09012B7E085
:10439100FFA3E0901083CF8024901083E0FEA3E080
:1043A100FFD39400EE9400500302444B9012BEE000
:1043B10004F07C007D0A1217D5901083EEF0A3EF74
:1043C100F080D612817DC21522901082E0640A70BD
:1043D1006E9012BDE014602C04706F9012BEE0D399
:1043E100940074809480405FE014F09012B7E0FE76
:1043F100A3E0FF7C007D0A1217D59012B7EEF0A35F
:10440100EFF08046E49012BDF0A3F09012B7E0FF08
:10441100A3E0901083CF8021901083E0FEA3E0FF02
:10442100D39400EE940040229012BEE004F07C0090
:104431007D0A1217D5901083EEF0A3EFF080D9908A
:104441001082E0640F70030269A3901082E0FF7E86
:1044510000C374809480405AD3EF9409748094808F
:1044610050509012BDE0704A9012BEE0C3940474A3
:10447100809480503D9012B7E0FEA3E0FF7C007D68
:104481000A1217C39012B7EEF0A3EFF0901082E07A
:10449100FF9012B8E02FF09012B7E03400F09012C4
