:030000000265FF97
:0C65FF00787FE4F6D8FD75812302664623
:09804800257300574732360A0087
:093FCF004212E500004112E90074
:103DFB007F647E00127945C2AF30C0FD125A121299
:103E0B007152127052127D2B12787C127AB97FE8A4
:103E1B007E031279451276E5D2AF7F647E0012796C
:103E2B0045C2001250E0126F487F647E0012794544
:103E3B00127DEB127CF77F06126FFA900CB0E060EC
:103E4B000C7B017A0C79B912230C127D5D900CB8A6
:103E5B00E0601A90110A7401F0A3740EF0A374B908
:103E6B00F07BFF7A8079481226E8127D76124E9C01
:103E7B00201803023FA6C2181272CD12761F9012A1
:103E8B00E5E475F001120EA8FED3E5F094E8EE64BC
:103E9B008094835003023F4CE49012E5F0A3F012A0
:103EAB000006B2C1127CDD901221E07002A3E0602B
:103EBB001190122174FFF5F0120EA845F070031249
:103ECB007CF790126FE0B4141C9012C774FFF5F0DE
:103EDB00120EA845F07005127CF780099012C1E014
:103EEB00700312739C90126FE0B413119012C7748D
:103EFB00FFF5F0120EA845F07003127CF79012E953
:103F0B00E004F0E075F00A84E5F0F090126FE064E5
:103F1B0001702E901221E07002A3E0702490126DBC
:103F2B00E0B4FF1DA3E0B4FF189012E9E0FF6405B5
:103F3B006003EF700CEF70047F0180027F00126151
:103F4B0033D3901278E09400901277E094004020E5
:103F5B0090126F7404F0901278E024FFF0901277B7
:103F6B00E034FFF0E07002A3E070057F631212579C
:103F7B00124FC29012E7E4F0A3EFF09012E7E0705B
:103F8B0003A3E0F4600F7F11126FFA9012E7E0A326
:103F9B00E0FF1246A5125421127651201103023E66
:103FAB004612805A7BFF7A80794B1226E830120E2C
:103FBB007F11126FFA7B017A12791D126DBB127D84
:043FCB0011023E465B
:1075820055415254315F636F6E666967204F4B21DC
:107592000D0A0055415254335F636F6E666967206E
:1075A2004F4B210D0A0052657365744B657954691E
:0575B2006D650D0A00EB
:103FD8004212C700004112BD004112BE004112C387
:103FE8001F4112C61F4212C400004112BF004112F5
:063FF800C0004112C100EF
:107DEB009010817401F0E4A3F0A37407F07B017A87
:067DFB001079810278A559
:107945007C007D07120E41E4FDC3ED9FEC9E5015B2
:10795500E4FBFA0BBB00010AEB646E4A70F50DBD42
:0579650000010C80E4AC
:01796A0022FA
:0E80040090112FEFF012791E90112FE0FF2245
:0B796B00901107EBF0A3EAF0A3E9F095
:10797600E4FF901107E0FBA3E475F001120EBEA927
:0A798600F0FA120DC760030F80E84D
:0179900022D4
:107E0100E4FF120DC7600E0FB4D7011F740129F9E9
:057E1100E43AFA80EDE7
:017E16002249
:0B582D009010B8EBF0A3EAF0A3E9F044
:10583800E49010BEF0A3F0A3F0A3F09010B8E0FB42
:10584800A3E0FAA3E0F99010BEE0FEA3E0F5828E93
:1058580083120DE0FF70030259209010BBE0FBA3F8
:10586800E0FAA3E0F9120DC76F600302590C90101B
:10587800C0F0A3F09010BBE0FBA3E0FAA3E0F9901E
:1058880010C0E0FEA3E0F5828E83120DE060519017
:1058980010C0A3E0FF9010BFE02FFF9010BEE03EC5
:1058A800FE9010B8E0FBA3E0FAA3E0F98F828E83A4
:1058B800120DE0FF9010BBE0FBA3E0FAA3E0F99023
:1058C80010C0E0FCA3E0F5828C83120DE0B5071050
:1058D8009010C1E004F0709C9010C0E004F0809437
:1058E8009010BBE0FBA3E0FAA3E0F99010C0E0FE43
:1058F800A3E0F5828E83120DE070099010BEE0FEE1
:10590800A3E0FF229010BFE004F060030258439028
:0C59180010BEE004F00258437EFF7FFF49
:015924002260
:1077D000901107EBF0A3EAF0A3E9F0ED1DAE047001
:1077E000011C4E6016901107E0FBA3E475F0011236
:0C77F0000EBEA9F0FAE4120E0D80E0229B
:107315009010B3EBF0A3EAF0A3E9F09010B974FF75
:10732500F5F0120EBE45F0602A9010B6E0FBA3E41E
:1073350075F001120EBEA9F0FA120DC7FF9010B339
:10734500E0FBA3E475F001120EBEA9F0FAEF120EF0
:047355000D80C822BD
:107774009010CAEBF0A3EAF0A3E9F0ED1DAE04709B
:10778400011C4E60179010CAE0FBA3E475F00112CF
:0E7794000EBEA9F0FA120DC760E1C322D32287
:105A120090108274FFF0E4901081F07B017A10798B
:105A2200817F021235417B017A1079817F01123523
:105A3200417B017A1079817F031235419010827483
:105A420001F0FB7A1079817F041235419010827443
:105A520010F07B017A1079817F0512354190108216
:105A620074F3F07B017A1079817F06123541901030
:105A7200827440F07B017A1079817F071235419060
:105A8200108274FFF09010817403F07B017A107918
:105A920081E4FF12354190108274BFF07B017A10CD
:105AA20079817F0712354190108274C0F07B017AB0
:105AB2001079817F03123541901082741EF07B01B0
:105AC2007A1079817F04123541901082740CF07B38
:105AD200017A1079817F05123541901082740DF0A0
:105AE2007B017A1079817F06123541D2EED2EDD256
:085AF200EFC2C3C2EB02806B9E
:107052009010817440F0A37402F0A31210F70000A4
:1070620025809010887401F0E4A3F0A304F0A3F04B
:10707200E4A3F07B017A1079817F011216CB7BFFAA
:107082007A7579821226E890108C7402F07B017A6C
:107092001079817F031216CB7F581278F67BFF7A24
:0670A2007579950226E855
:10715200E4901081F0A3F0A304F0E4A3F0A3F0A361
:1071620074A2F0A37440F0A37401F0FB7A10798149
:10717200E4FF123C0B90108674FFF0A37410F07BB6
:10718200017A1079817F01123C0B90108674FDF018
:10719200A37412F07B017A1079817F04123C0B43B5
:0271A200D1809A
:0171A40022C8
:107D2B009010837401F0E4901082F0901081F07B3E
:097D3B00017A107981FF026EE566
:104FC2009012BDE0146036146053146064147003D0
:104FD2000250AD1470030250C1240560030250DD7B
:104FE20075A0F0E5A054F064F070030250DD901259
:104FF200BE7414F09012BD7401F00250DDE5A054AD
:10500200F0FFBFF004E40250D99012BEE014F06049
:10501200030250DD9012BD7402F00250DDE5A0449F
:105022000F901081F0E0F5A09012BD7403F00250D1
:10503200DD901081E5A0F075A0F09012BD7404F02F
:10504200901081E012112850AA7750A77B50A47DBE
:1050520050A17E509EB7509BBB5098BD5095BE50FC
:1050620092D7508FDB508CDD5089DE5086E750831B
:10507200EB5080ED507DEE000050DD7F04227F0872
:10508200227F0B227F0F227F03227F07227F0022B3
:105092007F0E227F02227F06227F0A227F0D227F3D
:1050A20001227F05227F09227F0C22E5A054F0FF16
:1050B200BFF0289012BD7405F0A37414F0801CE5B3
:1050C200A054F064F060089012BD7404F0800C905B
:0D50D20012BEE014F070049012BDF07FFFDC
:0150DF0022AE
:105421009012BFE0146039047076A2CCE43325E019
:10543100440125E0FFA2C0E4334F25E0FFA2B5E41B
:10544100334F25E0FFA2B4E4334FFF9012C3E06F66
:10545100604E9012C0741EF09012BF7401F0804033
:10546100A2CCE43325E0440125E0FFA2C0E4334FA0
:1054710025E0FFA2B5E4334F25E0FFA2B4E4334FAA
:10548100FF9012C3E0B50707E49012BFF0801190BE
:1054910012C0E014F070099012BFF09012C3EFF047
:1054A1009012C3E0FF9012C6E0FE6F604EEE54030F
:1054B100FEEF5403FF6E601AEF64036015BF010332
:1054C100D38001C39200127F72901221E4F0A37481
:1054D10005F09012C6E05404FF9012C3E054046F2B
:1054E1006011A37427F0A37410F07BFF7A7579A87B
:1054F1001226E89012C3E09012C6F09012C6E02086
:10550100E2299012C4E07002A3E0601F9012C474FB
:10551100FFF5F0120EA845F07011D2001250E01202
:0B5521007FF4901221E4F0A37405F069
:01552C00225C
:107F720090126BE09012C1F0D2C3A2009201027D76
:017F820044BA
:106CE9009010A67401F0A37410F0A3749DF0901095
:106CF9009D740AF0A37405F0A37409F0A37401F05C
:106D0900A3EEF0A3EFF0A3EDF0A3E4F0A37455F024
:106D1900E4FF9010A6E0FBA3E0FAA3E0F98F8275E7
:106D29008300120DE0FD9010A5E02DF09010A4E075
:106D39003400F00FEFB407DA9010A6E0FBA3E0FAF5
:0B6D4900A3E0F990109FE0FD02782805
:106E1F0090109CEDF090109AEEF0A3EFF04E6052B0
:106E2F00A3E025E0F090109AE0FEA3E0FFD39410CA
:106E3F00EE94004006A3E0FD026CE990109BE02465
:106E4F00FFF090109AE034FFF090109CE09012C287
:106E5F00F090109AE0FEA3E0FF33333354F844C0B0
:106E6F00F580C3EF9408EE940050045380BF225373
:036E7F00807F22EF
:07806B004380C05380C722CF
:107CDD009012C1E0600614F07002C2C39012C2E0AF
:0A7CED00600714F0700312806B2290
:1000A600000000384492BAFE828244380000000004
:1000B60000000038448282FEBA92443800000000F4
:1000C6000000003854AAAAAAC692443800000000CC
:1000D600000000384482AAF68A82443800000000F4
:1000E6000000000000000000000303000000000004
:1000F6000003030F0F3F3FFFFFFFFF00000000005C
:1001060000000000422418182442000000000000ED
:100116000000003844BAC6AAAAAA54380000000053
:1001260000003C42A599FF99A5423C000000000052
:1001360000000000000000000000000000000000B9
:100146000000183C3C3C1818180018180000000065
:10015600006363632200000000000000000000004E
:1001660000000036367F3636367F36360000000011
:100176000C0C3E6361603E030343633E0C0C0000BF
:1001860000000000006163060C18336300000000E5
:100196000000001C36361C3B6E66663B0000000005
:1001A6000030303060000000000000000000000059
:1001B60000000C18183030303018180C0000000001
:1001C6000000180C0C060606060C0C1800000000B1
:1001D6000000000042663CFF3C6642000000000052
:1001E60000000000181818FF18181800000000007A
:1001F6000000000000000000000018181830000081
:1002060000000000000000FF0000000000000000E9
:1002160000000000000000000000181800000000A8
:1002260000000103070E1C3870E0C08000000000CB
:1002360000003E6363636B6B6363633E0000000014
:1002460000000C1C3C0C0C0C0C0C0C3F00000000BD
:1002560000003E6303060C183061637F0000000057
:1002660000003E6303031E030303633E0000000019
:100276000000060E1E3666667F06060F00000000AA
:1002860000007F6060607E030363733E0000000031
:1002960000001C3060607E636363633E0000000004
:1002A60000007F630306060C0C18181800000000F7
:1002B60000003E6363633E636363633E00000000C9
:1002C60000003E636363633F0303063C00000000D7
:1002D60000000000001818000000181800000000B8
:1002E6000000000000181800000018181830000060
:1002F600000000060C18306030180C0600000000E4
:100306000000000000007E00007E000000000000EB
:100316000000006030180C060C1830600000000069
:1003260000003E6363060C0C0C000C0C0000000081
:1003360000003E63636F6B6B6E60603E0000000002
:100346000000081C366363637F636363000000007C
:1003560000007E3333333E333333337E00000000F8
:1003660000001E33616060606061331E00000000A3
:1003760000007C36333333333333367C00000000E1
:1003860000007F3331343C343031337F00000000CD
:1003960000007F3331343C343030307800000000C8
:1003A60000001E336160606F6363371D000000004C
:1003B6000000636363637F6363636363000000003D
:1003C60000003C18181818181818183C00000000EF
:1003D60000000F06060606060666663C00000000DC
:1003E6000000733336363C36363333730000000074
:1003F60000007830303030303031337F000000007C
:10040600000063777F6B63636363636300000000D0
:1004160000006363737B7F6F6763636300000000A4
:1004260000001C36636363636363361C00000000D0
:1004360000007E3333333E30303030780000000029
:1004460000003E6363636363636B6F3E06070000F1
:1004560000007E3333333E363633337300000000FC
:1004660000003E6363301C060363633E0000000029
:100476000000FFDB991818181818183C0000000037
:1004860000006363636363636363633E00000000AD
:10049600000063636363636363361C080000000047
:1004A600000063636363636B6B7F36360000000096
:1004B6000000C3C3663C18183C66C3C300000000B6
:1004C6000000C3C3C3663C181818183C000000009F
:1004D60000007F6343060C183061637F0000000054
:1004E60000003C30303030303030303C000000000E
:1004F600000080C0E070381C0E07030100000000F9
:1005060000003C0C0C0C0C0C0C0C0C3C000000000D
:10051600081C366300000000000000000000000018
:10052600000000000000000000000000FF000000C6
:1005360018180C0000000000000000000000000079
:1005460000000000003C46063E66663B00000000D8
:1005560000007030303C36333333336E0000000019
:1005660000000000003E63606060633E0000000023
:1005760000000E06061E36666666663B0000000034
:1005860000000000003E63637E60633E00000000E2
:1005960000001C3632307C303030307800000000ED
:1005A60000000000003B666666663E06663C00008C
:1005B6000000703030363B333333337300000000B5
:1005C60000000C0C001C0C0C0C0C0C1E0000000097
:1005D60000000606000E060606060666663C0000D5
:1005E60000007030303333363C3633730000000081
:1005F60000001C0C0C0C0C0C0C0C0C1E000000005B
:1006060000000000006E7F6B6B6B6B6B00000000E0
:1006160000000000006E3333333333330000000034
:1006260000000000003E63636363633E0000000059
:1006360000000000006E333333333E303078000064
:1006460000000000003B666666663E06060F000078
:1006560000000000006E3B333030307800000000B0
:1006660000000000003E63380E03633E00000000F9
:1006760000000818187E181818181B0E0000000035
:1006860000000000006666666666663B00000000C5
:100696000000000000636336361C1C0800000000E2
:1006A60000000000006363636B6B7F360000000090
:1006B600000000000063361C1C1C366300000000AE
:1006C600000000000063636363633F03063C0000B1
:1006D60000000000007F660C1830637F00000000F9
:1006E60000000E18181870181818180E00000000D0
:1006F6000000181818181800181818181800000004
:100706000000701818180E1818181870000000004D
:1007160000003B6E0000000000000000000000002A
:100726000070D8D870000000000000000000000033
:100736000000C6C66676DCCCC6C600000000000017
:100746000000F80C0C0C0C0C0CFE00000000000065
:1007560000007018181818386C66000000000000B9
:100766000000FE0C0C0C0C0C0C0C00000000000031
:1007760000007C060606666666660000000000004D
:1007860000001818181818181818000000000000A3
:1007960000007818303030303030000000000000A3
:1007A6000000FCC6C6C6C6C6C6C6000000000000DD
:1007B6000000CCC6C6C6C6C6C67C00000000000047
:1007C60000001818181800000000000000000000C3
:1007D60000007018181818181818180000000000E3
:1007E60000007C0606060606067C000000000000E7
:1007F600C0C0FC060606060C181800000000000023
:100806000000FC66C6C6C6C6C6FE000000000000A4
:100816000000DC7666C6C6C6C6DC00000000000026
:1008260000001818181818181818181818000000BA
:100836000000380C0C0C0C0C0C3C000000000000F6
:1008460000007C66C6C6C6C6CC7800000000000064
:1008560000006666663636361C7000000000000032
:100866000000F84CCCCCCC6C0C0C0C0C0E00000030
:100876000000FC46C6C6E606867C000000000000B6
:1008860000666C38181818181818000000000000C8
:100896000000EE666634180C06FE0000000000003C
:1008A6000000FC060666646C6E6060600000000076
:1008B6000000F80C0C0C0C0C0C0C000000000000E6
:1008C6000000D6D6D6D6D6F6E67C0000000000009C
:1008D6000000FC6666666666E6E60000000000004C
:103FFE00410CA800410CA500C1144208A3000041C9
:07400E000CA6FF410CA7FF07
:107B8D007590FFC2C4D2CBD2CA00000000E5903080
:107B9D00E703D38001C39202C2CA00000000A20213
:017BAD0022B5
:0573590090110FEFF0A0
:10735E007FE87E03127B8D500DEF1F70011E14947B
:10736E0000EE940050EEEF4E70057F11126FFAC2D0
:10737E00C4C2CBC2CA000090110FE0F5900000000D
:0D738E000000000000D2CA00000000C2CACA
:01739B0022CF
:0C71A500E0FBA3E0FAA3E0F9120DC7FF25
:0571B10090110FEFF04A
:1071B6007FE87E03127B8D500DEF1F70011E149425
:1071C60000EE940050EEEF4E70057F11126FFAD26A
:1071D600C4C2CBC2CA90110FE0F5900000000000B7
:0B71E600000000D2CA00000000C2CA76
:0171F100227B
:1076E500C2CA7F30127359000000007F30127359EF
:1076F500000000007F0C127359000000007F01128A
:107705007359000000007F06127359000000002223
:107C31007F01127359000000007B017A0879A57D4C
:0D7C4100007C041277D07DFF7FFF02805190
:0B64E000901107EBF0A3EAF0A3E9F035
:1064EB002400F9EA3402FA90110CEBF0A3EAF0A3C2
:1064FB00E9F0E490110AF07F3612735990110AE01B
:10650B004480FF1273597F801273597F3012735975
:10651B00E490110BF09011071271A5901108E4751E
:10652B00F001120EA8124E9C90110BE004F0E0C388
:10653B00941040E190110B7410F090110C1271A596
:10654B0090110DE475F001120EA8124E9C90110BD8
:10655B00E004F0E0C3942040E190110AE004F0E085
:05656B00C394204092E2
:016570002208
:105FDE00901081EFF0A3EDF07F361273599010827E
:105FEE00E0FFD394014006EF24FEFF80059010825F
:105FFE00E0FFEFC454F0240E4480FF12735990104A
:10600E0081E0C313FFA3E0D3940140047E08800215
:10601E007E00EF2E4480FF1273597F301273599019
:10602E001081E0FF30E025A3E0FE75F000A424848B
:10603E00F582E5F03409F583EE2583F583E5822FAD
:10604E00F582E43583F583E0FF1271B13000047FF1
:10605E00FF8027901081E0FFA3E0FE75F000A424DE
:10606E0085F582E5F03409F583EE2583F583E58227
:0D607E002FF582E43583F583E0FF0271B158
:107C4E00120DC7FF6015640A6011EFD394804002D5
:0D7C5E00D322740129F9E43AFA80E5C3222B
:107F9400900CA8E004F0E05403F0E4900CA5F02267
:0B4ACA00901107EBF0A3EAF0A3E9F065
:104AD500127C4E9213901107A3E0FAA3E04A7003EB
:104AE500024C16901107E0FBA3E0FAA3E0F9120DC2
:104AF500C7FF7003024C16640A7003024C1690112E
:104B05000BEFF0900CA5E004F0E0D39410400312F5
:104B15007F9490110C74FFF0A37403F0A37426F036
:104B250090110BE0FFC39420406EEFD3948050109A
:104B3500EF75F010A42436F974FF35F0FAA3804F11
:104B4500901108E475F001120EA890110BE07F009A
:104B5500FE901107E0FBA3E0FAA3E0F9120DC72FC1
:104B6500FFE43EFEC3EF9490EE94D7402BD3EF9431
:104B7500ABEE94D75022EFC4F8540FC868FFEEC4CB
:104B850054F048FE74362FF9748E3EFA90110C7469
:104B9500FFF0A3EAF0A3E9F0900CA5E060071490FC
:104BA500110AF0800AE490110AF0900CA504F03087
:104BB500130A90110AE0FFC3740F9FF0E4FF9011F0
:104BC5000CE0FBA3E0FAA3E0F98F82758300120DD8
:104BD500E0FE900CA8E0C454F02F75F010A424A5B5
:104BE500F582E5F03408F583C083C08290110AE0B0
:104BF500D082D0832582F582E43583F583EEF00FEC
:104C0500EFB410BA901108E475F001120EA8024A2B
:014C1500E8B6
:014C1600227B
:086B2C00901084EFF0A3EDF0DE
:106B3400EB75F010A424A6F9740035F0FA901088CF
:106B440074FFF0A3EAF0A3E9F0E4FF901088E0FBFF
:106B5400A3E0FAA3E0F98F82758300120DE0FE90A2
:106B64001087E05EFE901084E0C454F02F75F0109E
:106B7400A424A5F582E5F03408F583C083C082908F
:106B84001085E0D082D0832582F582E43583F583B5
:076B9400EEF00FEFB410B4A6
:016B9B0022D7
:107E1700900CA8EFF0900CA5EDF0124ACA7B017AFE
:067E27000879A50264E0E9
:107F4E0090108774FFF0126B2C7B017A0879A502D2
:027F5E0064E0DD
:09805100900CA6EDF0A3EFF02263
:10761F00900CA6E0FFF46029A3E0FDF4602390082E
:10762F00A3E475F001120EA8ABF0FABA0113BB2C4C
:10763F0010E49008A3F0A3F0A2149200125FDEB240
:02764F00142203
:105CBD002575002573257300446F776E6C6F6164D5
:105CCD00204E616D656C697374204572723A28209F
:105CDD006E6F7420696E2073657474696E67202908
:105CED00210D0A00433A005265764E616D656C696F
:105CFD00737428436E743A2575290D0A00523A00C3
:105D0D0025753B004E3A0052593A004964783A25C0
:105D1D00642D282564293B20523A25753B204E3AA7
:105D2D0025733B2052593A25753B0D0A00446F7778
:105D3D006E6C6F6164204E616D656C697374204F7C
:105D4D004B21202328257529230D0A00446F776EDA
:105D5D006C6F6164204E616D656C69737420457262
:105D6D00723A28257523257529210D0A00969798D5
:105D7D00939495909192A09FA19C9E9D999B9AA87A
:085D8D00A9AAA6A5A7A2A4A3E0
:104015004112A7004112A800C117421277000041C2
:07402500127600411275FF45
:107B0200C3745A9458FF74129412CF2480CF340055
:107B1200FE7B017A12795A9010EBE4F0A37402F022
:037B2200026716E1
:0A802000E490125AF0A3F0027B0274
:107F0200D390125BE0946490125AE0940040031202
:037F1200802022AA
:0B004E009010B8E0FBA3E0FAA3E0F97B
:0B0059009010E3EBF0A3EAF0A3E9F045
:100064007C007D2E120E41E42FFFEE3401FE901031
:10007400E3E0FBA3E0FAA3E0F99010EBE4F0A3744F
:050084002EF0026716DA
:0B7715009010E3EBF0A3EAF0A3E9F012
:107720007C007D2E120E41E42FFFEE3401FE9010FE
:10773000E3E0FBA3E0FAA3E0F99010EBE4F0A3741C
:057740002EF0026E8234
:0B71F2009010B3EBF0A3EAF0A3E9F06B
:1071FD0074FFA3F0A3F07D011269419010B6EEF07B
:10720D00A3EFF0F47002EEF4601F9010B6E0FEA351
:10721D00E0FF9010B3E0FBA3E0FAA3E0F9127715BD
:0D722D009010B6E0FEA3E0FF227EFF7FFF81
:01723A002231
:0B6A3E009010B8EBF0A3EAF0A3E9F021
:106A490074FFA3F0A3F0120ED4FFAEF07D0112691A
:106A5900419010BBEEF0A3EFF0F47002EEF4601475
:106A69009010BBE0FEA3E0FF12004E9010BBE0FEC9
:106A7900A3E0FF2290125AE0FEA3E0FFC39464EE64
:106A89009400502312004E90125BE004F0700690BF
:106A9900125AE004F0127B0290125BE024FFFF908F
:0B6AA900125AE034FFFE227EFF7FFF48
:016AB40022BF
:086B9C009010B3EEF0A3EFF03E
:106BA40090125AE0FCA3E0FDD39FEC9E4058ED24E4
:106BB400FFFFEC34FFFE9010B3E0B50616A3E0B57A
:106BC400071190125BE024FFF090125AE034FFF0BA
:106BD400027B0290125BE024FFF090125AE034FF33
:106BE400F0127B0290125AE0FEA3E0FF7B017A10C0
:106BF40079B51277159010B3E0FEA3E0FF7B017A1C
:066C04001079B5120059E1
:016C0A002267
:107F83007D01126941EFF47002EEF46003126B9C01
:017F930022CB
:0B32ED009010B3EBF0A3EAF0A3E9F0AF
:1032F800127C319010B3E0FBA3E0FAA3E0F9120EC0
:10330800D4D39400E5F09400407A7BFF7A1F79B813
:10331800E4FDFF127E1790110A74FFF0A3745CF0AD
:10332800A374BDF09010B3E0FBA3E0FAA3E0F91298
:103338000ED4FF90110DE5F0F0A3EFF07B017A10A9
:1033480079B61226E27BFF7A1F79B8127E01C37420
:10335800109FFFC0077B017A1079B612796BC3D032
:10336800E09FFD7B017A1079B6E4FF127E17901278
:10337800A7E0704290126FE0FF64046026EF6405D6
:103388007034801F7BFF7A1F79B8E4FDFF127E1727
:103398009012A7E0702090126FE0FF64046004EFC1
:1033A800B405137BFF7A1F79B8127E01C3740F9F8F
:1033B800FDE4FF12805190110A74FFF0A3745CF0D1
:1033C800A374C0F0A374FFF0A3741FF0A374C9F032
:1033D8009010B3E0FBA3E0FAA3E02402F9E43AFA80
:1033E800901110EBF0A3EAF0A3E9F07B017A1079D1
:1033F800B61226E27B017A1079B6E4FD7F01127ECF
:10340800179012A7E06401705D90126FE0FF6404EA
:103418006005EF6405704F9010B3E0FBA3E0FAA3DA
:10342800E02402F9E43AFA127E01901106EFF0E086
:10343800FF901277E07002A3E07003FE80027E0125
:10344800C3EF9E901106F0D3940C500BE0FFC374A9
:103458000C9FFD7F01800C901106E0FFC3741C9F38
:10346800FD7F021280512000030235409010B3E026
:10347800FBA3E0FAA3E0F990002C120EFF45F070D0
:103488000302350C7BFF7A1F79CFE4FD7F03127EA0
:103498001790110A74FFF0A3745CF0A374BDF09048
:1034A80010B3E0FBA3E0FAA3E0F990002C120EFFA2
:1034B800FF90110DE5F0F0A3EFF07B017A1079B6DB
:1034C8001226E27BFF7A1F79CF127E01C3740F9F09
:1034D800FFC0077B017A1079B612796BC3D0E09FE1
:1034E800FD7B017A1079B67F03127E179012A7E050
:1034F8006402704490126FE0FF64046028EF640572
:10350800703680217BFF7A1F79CFE4FD7F03127E1E
:10351800179012A7E0B4022090126FE0FF640460D5
:1035280004EFB405137BFF7A1F79CF127E01C374B1
:083538000F9FFD7F031280517B
:013540002268
:100026007B017A1279797D2E7C001277D0E49012CA
:10003600A7F0A3F090126F7404F07B017A1279791D
:05004600D2000232EDC2
:105AFA009012A7E0146051147003025BA0147003A3
:105B0A00025BD924036003025BDEE49012A7F0A3D0
:105B1A00F0901279E0FFA3E0901083CF80249010D8
:105B2A0083E0FEA3E0FFD39400EE94005003025BEF
:105B3A00DE9012A8E004F07C007D0A120E53901049
:105B4A0083EEF0A3EFF080D6901279E0FEA3E0FF97
:105B5A00901083EEF0A3EFF07B017A107985127131
:105B6A00F2EFF47002EEF4601E9010B67401F0A326
:105B7A007410F0A37485F0A3E4F0A3742EF07B01F3
:105B8A007A1279791273157B017A12797B12796B01
:105B9A009012A8EFF022E49012A8F09012A5E0FF6C
:105BAA00A3E0901083CF8021901083E0FEA3E0FF52
:105BBA00D39400EE9400401C9012A8E004F07C00FC
:105BCA007D0A120E53901083EEF0A3EFF080D912E3
:045BDA007FA4C217CB
:015BDE0022A4
:05125700901082EFF091
:10125C00640B60030212EF9012A7E064037062301B
:10126C0017137B017A1279797D2EFC1277D0E490DA
:10127C0012A8F0804CD390127AE09400901279E08E
:10128C0094004037D39012A6E094009012A5E094FD
:10129C000040287B017A127979126A3EEFF47002D1
:1012AC00EEF46005127EB08003127FC47B017A12CB
:1012BC0079797D2E7C001277D08003127FC4D217EF
:1012CC00229012A7E004F0E05403F0125AFAE490D2
:1012DC001276F0A3F0A3F09012A7E064036003026F
:1012EC00146D22901082E0B40E159012A7E0C394F6
:1012FC00045005E004F08022E49012A7F0801B90CB
:10130C001082E0B40D1A9012A7E0D394004005E0CF
:10131C0014F080069012A77402F0125AFA021464A8
:10132C00901082E0640A600302142C9012A7E0145F
:10133C0060371470030213F6147003021422240392
:10134C00600302142A9012A8E0D394004018E01411
:10135C00F0901279E0FEA3E0FF7C007D0A120E53A0
:10136C00901279021414021433901277E07002A3D5
:10137C00E070599012A8E0FF247BF582E43412F55A
:10138C0083E07048EFD39400403A9012A8E0247B9D
:10139C00F582E43412F583E4F09012A8E014F0E046
:1013AC00FF247BF582E43412F583E0D39480401C57
:1013BC00747B2FF582E43412F583E4F09012A8E0EC
:1013CC0014F08008E49012A7F0125AFA9012A8E0D8
:1013DC00FF247BF582E43412F583E4F0747C2FF562
:1013EC0082E43412F583E4F080349012A8E0D394B4
:1013FC0000401CE014F09012A5E0FEA3E0FF7C007E
:10140C007D0A120E539012A5EEF0A3EFF0800F9010
:10141C0012A7E0148004E49012A7F0125AFA803854
:10142C00901082E0B40F0302668B901082E064632C
:10143C00702F9012A7E0B40128A3E0247BF582E47E
:10144C003412F583E0601AD3948040069012A8E021
:10145C0004F09012A8E004F0E4901276F0A3F0A34C
:10146C00F0901082E0FFC3940050030216B7EFD344
:10147C00940940030216B79012A7E014605514703B
:10148C0003021671240260030216B79012A8E0C37F
:10149C009404502F901279E0FEA3E0FF7C007D0AAB
:1014AC00120E41901279EEF0A3EFF0901082E0FF53
:1014BC0090127AE02FF0901279E03400F09012A89C
:1014CC00E004F0901279E07002A3E060030216B71A
:1014DC000216B37B017A12797B127E01EFC394144E
:1014EC00401C901277E07002A3E070030216CA90C1
:1014FC001082E0FF901275E06F60030216CA901024
:10150C0082E0FF901275E06F60279012A8E0247BB8
:10151C00F582E43412F583E0FE6016D39480400625
:10152C009012A8E004F09012A8E004F0E490127677
:10153C00F0EF700B901276E0901F3F930216219003
:10154C001276E0FFC39403503B9012A8E0FE247B7C
:10155C00F582E43412F58374D7F0901082E075F0C4
:10156C0003A42FF582E435F0F583E5822477F58228
:10157C00E583345DF583E493FF747C2EF582E434CB
:10158C001202162D901276E0FFB403269012A8E0FA
:10159C00FE247CF582E43412F583E4F0901082E0B2
:1015AC002430FD747B2EF582E43412F583EDF002C9
:1015BC0016599012A8E0FE247CF582E43412F583CF
:1015CC00E4F0EF24FCFF901082E0FD64097058EF0A
:1015DC00C39402500EEF2459FF747B2EF582E43431
:1015EC0012803EEFB402129012A8E0247BF582E444
:1015FC003412F583742EF08054901276E0B40512F8
:10160C009012A8E0247BF582E43412F583742CF05C
:10161C00803BEF2476FF9012A8E0247BF582E43423
:10162C0012F583EFF08026ED1475F003A42FFEEF76
:10163C00D3940240047F5E80027F41EE2FFF901214
:10164C00A8E0247BF582E43412F583EFF090127657
:10165C00E004F0E075F00A84E5F0F0A37403F0A365
:10166C0074E8F080469012A8E0C39403502F9012B7
:10167C00A5E0FEA3E0FF7C007D0A120E419012A5AE
:10168C00EEF0A3EFF0901082E0FF9012A6E02FF0A6
:10169C009012A5E03400F09012A8E004F09012A58E
:1016AC00E07002A3E070049012A8F0901082E09019
:0E16BC001275F07B017A127979D2001232EDAC
:0116CA0022FD
:107991007B017A1279797D2E7C001277D0E49012E6
:1079A100A7F0A3F090126F7405F07B017A12797938
:0579B100C2000232EDEE
:0539E700901082EFF0DA
:1039EC00640B6003023AC89012A7E0B402253017AA
:1039FC00147B017A1279797D2E7C001277D0E490B9
:103A0C0012A8F0800E901279E0FEA3E0FF127F83E3
:103A1C00D217229012A7E004F0E075F00384AFF007
:103A2C00EFF0146046147003023ABF2402600302E4
:103A3C003B90E49012A8F0901279E0FFA3E0901074
:103A4C0083CF8021901083E0FEA3E0FFD39400EE9F
:103A5C00940040659012A8E004F07C007D0A120EE0
:103A6C0053901083EEF0A3EFF080D9901279E0FE22
:103A7C00A3E0FF7B017A1079851271F2EFF47002EA
:103A8C00EEF4601E9010B67401F0A37410F0A374E1
:103A9C0085F0A3E4F0A3742EF07B017A12797912ED
:103AAC0073157B017A12797B12796B9012A8EFF067
:103ABC00023B90127FB4C21722023B90901082E01E
:103ACC00640A6003023B9B9012A7E01460331460FD
:103ADC006F24026003023B909012A8E0D394004044
:103AEC001DE014F0901279E0FEA3E0FF7C007D0A4B
:103AFC00120E53901279EEF0A3EFF0023B90023BC2
:103B0C00A2E49012A7F0A3F090127BF0901279E04F
:103B1C00FFA3E0901083CF8021901083E0FEA3E000
:103B2C00FFD39400EE9400405B9012A8E004F07C6C
:103B3C00007D0A120E53901083EEF0A3EFF080D9A3
:103B4C00E49012A7F090127BF0901279E0FFA3E0C2
:103B5C00901083CFF0A3EFF0E49012A8F0901083B4
:103B6C00E0FEA3E0FFD39400EE940040179012A85F
:103B7C00E004F07C007D0A120E53901083EEF0A34B
:103B8C00EFF080D9E4901276F0A3F0A3F0800A90C5
:103B9C001082E0B40F0302668B901082E0FFC39496
:103BAC00004050EFD39409504A9012A7E07044A300
:103BBC00E0C39404502F901279E0FEA3E0FF7C0048
:103BCC007D0A120E41901279EEF0A3EFF090108264
:103BDC00E0FF90127AE02FF0901279E03400F09030
:103BEC0012A8E004F0901279E07002A3E070049047
:0E3BFC0012A8F07B017A127979C2001232ED24
:013C0A002297
:107E2D0090126F7406F0127C317BFF7A1F799DE4FE
:067E3D00FD7F01027E172B
:107D8F00EF24F6600E24FB600A2404700912802091
:077D9F00027FD412668B2263
:10668B0090126F7403F0127C317BFF7A1F7965E4F3
:10669B00FDFF127E177BFF7A1F797EE4FD7F0112CF
:1066AB007E177BFF7A1F798CE4FD7F02127E177BAE
:1066BB00FF7A207996E4FD7F03127E1790110A74FE
:1066CB00FFF0A3745CF0A374BDF090125AE0FFA32B
:1066DB00E090110DCFF0A3EFF07B017A1079B3129C
:1066EB0026E27BFF7A207996127E01C3740F9FFFFF
:1066FB00C0077B017A1079B312796BC3D0E09FFD91
:0B670B007B017A1079B37F03027E1738
:107BAE00EF24FE601214601224F9601124FB600DA4
:107BBE00240E700C020026027991027E2D1275138E
:017BCE002294
:107B6B00D390125BE09F90125AE09E40147B017AF7
:107B7B001079831277157B017A107983C200123248
:017B8B00ED0C
:017B8C0022D6
:0B51FE00901083EBF0A3EAF0A3E9F0AF
:1052090090002C120EFFD39400E5F0940050030295
:105219005312127C31901083E0FBA3E0FAA3E0F96A
:1052290090002C120EFFFFAEF0901268E0FD126E96
:105239001F901268E0FF7E00128012901083E0FB3D
:10524900A3E0FAA3E02402F9E43AFA12796BEF70C9
:105259006B7BFF7A21794AFD7F01127E17901083BB
:10526900E0FBA3E0FAA3E0F9120ED4FFAEF0D39469
:1052790000EE9400500302531090110A74FFF0A33A
:10528900745CF0A374BDF0A3EEF0A3EFF07B017A98
:105299001079861226E27BFF7A21794A127E01C3B0
:1052A900740F9FFFC0077B017A10798612796BC34F
:1052B900D0E09FFD7B017A107986804690110A74AF
:1052C900FFF0A3745CF0A374C0F0A374FFF0A3749F
:1052D90021F0A3744AF0901083E0FBA3E0FAA3E065
:1052E9002402F9E43AFA901110EBF0A3EAF0A3E9E9
:1052F900F07B017A1079861226E27B017A10798691
:0A530900E4FD7F01127E17D322C3DA
:015313002277
:10230C009010B5EBF0A3EAF0A3E9F090126FE06443
:10231C000260147BFF7A5C79C51226E8900CACE065
:10232C00700302267C80F5901221E4F0A3740FF068
:10233C009010BB74FFF0A3745CF0A374F1F09010D8
:10234C00B5E0FBA3E0FAA3E0F912582D901081EE52
:10235C00F0A3EFF0F47002EEF4603AE02402FF9088
:10236C001081E034009010B68FF0120EA89010BBC4
:10237C0074FFF0A3745CF0A374BDF0A37401F0A31C
:10238C007410F0A37483F09010B5E0FBA3E0FAA3F3
:10239C00E0F9122D937BFF7A5C79F4901083E0FFC7
:1023AC00A3E090110ACFF0A3EFF01226E8E490100E
:1023BC0081F0A3F0901083E0FEA3E0FFC3901082A5
:1023CC00E09F901081E09E40030226299010BB7480
:1023DC00FFF0A3745DF0A3740AF09010B5E0FBA3BA
:1023EC00E0FAA3E0F912582D901085EEF0A3EFF06F
:1023FC00F47002EEF4700302260CE02402FF90103D
:10240C0085E034009010B68FF0120EA87B017A1084
:10241C0079877D2E7C001277D09010BB74FFF0A3CF
:10242C00745DF0A3740DF0A37401F0A37410F0A309
:10243C007487F09010B5E0FBA3E0FAA3E0F9122D3D
:10244C00939010BB74FFF0A3745DF0A37411F09023
:10245C0010B5E0FBA3E0FAA3E0F912582D9010851B
:10246C00EEF0A3EFF0F47002EEF4607BE02402FFD8
:10247C00901085E034009010B68FF0120EA8E49006
:10248C001085F0A3F09010B5E0FBA3E0FAA3E0F9FF
:10249C00120DC7643B603E901085E0FEA3E0FFC3C5
:1024AC00942AEE9400502E9010B5A3E475F001120E
:1024BC000EBEA9F0FA120DC7FD74892FF5827410A7
:1024CC003EF583EDF0901086E004F070B890108526
:1024DC00E004F080B0901085E0FEA3E02489F58242
:1024EC0074103EF583E4F09010BB74FFF0A3745DA0
:1024FC00F0A37414F09010B5E0FBA3E0FAA3E0F99C
:10250C0012582D901085EEF0A3EFF0F47002EEF45B
:10251C0070030225A1E02403FF901085E0340090A5
:10252C0010B68FF0120EA8E4901085F0A3F0901066
:10253C00B3F0A3F09010B5E0FBA3E0FAA3E0F9121E
:10254C000DC7FB643B604EC3901086E09403901063
:10255C0085E09400503F9010B3E0FEA3E0FF7C00B8
:10256C007D0A120E419010B3EEF0A3EFF0EB24D0E5
:10257C00FFE02FF09010B3E03400F0901086E004F0
:10258C00F07006901085E004F09010B6E475F00140
:10259C00120EA8809F7B017A107987126A3E9010E8
:1025AC0085EEF0FCA3EFF0FD901082E02401FE908C
:1025BC001081E0340090110AF0A3CEF0ED2401FE5E
:1025CC00E43CA3F0A3CEF0901087E0FFA3E09011C1
:1025DC000ECFF0A3EFF0A37401F0A37410F0A3746A
:1025EC0089F09010B3E0FFA3E0901113CFF0A3EFAC
:1025FC00F07BFF7A5D79181226E8900CACE070FA4B
:10260C00901085E0F47003A3E0F46011901082E068
:10261C0004F07006901081E004F00223C090108347
:10262C00E0FEA3E0FF901081E0B50617A3E0B5072C
:10263C00127BFF7A5D793A90125AE0FFA3E0901179
:10264C000A801F7BFF7A5D7959901081E0FFA3E02F
:10265C0090110ACFF0A3EFF0901085E0FFA3E0906B
:10266C00110CCFF0A3EFF01226E8900CACE070FA4E
:01267C00223B
:107F6000AD071FED600BE4FEEEC3946E50F20E8081
:017F7000F719
:017F710022ED
:107E4300D2ED0000000000D2EE0000000000C2ED01
:067E530000000000002207
:107E5900C2ED0000000000D2EE0000000000D2EDEB
:067E6900000000000022F1
:0879B600127E437FA01274DA77
:1079BE00E4FFD2EE000000000030ED09EFC394FAB0
:0C79CE0050030F80F4C2EE000000000027
:0179DA00228A
:10008E00D2EDC2EE0000000000D2EE000000000033
:05009E00C2EEC2ED22DC
:107F1500C2EDC2EE0000000000D2EE00000000003D
:037F2500C2EE2287
:1074DA00E4FEC2EE0000000000EF30E703D38001B3
:1074EA00C392EDEF25E0FF0000000000D2EE00009D
:1074FA00000000C2EE0EEEB408D8C2EE0000000092
:08750A0000D2ED0000000000BA
:017512002256
:1077A200C2EE0000000000D2ED0000000000E4FE86
:1077B200D2EE0000000000EF25E0FFA2EDE4334F1F
:0D77C200FFC2EE00000000000EEEB408E370
:0177CF002297
:106716009010E6EEF0A3EFF0A3EBF0A3EAF0A3E906
:10672600F0C2EF80559010EB74FFF5F0120EBE45E7
:10673600F060609010E8E0FBA3E475F001120EBE75
:10674600A9F0FA120DC7FF1274DA1279BE9010E79B
:10675600E004F070069010E6E004F09010E7E054D4
:106766003F70C2D39010ECE094009010EBE09400E0
:1067760040B3127E597F64127F601279B69010E69C
:10678600E0FF1274DA1279BEA3E0FF1274DA12790E
:0B679600BE8092127E597F64027F607B
:046E8200AD07AC06A6
:106E86001279B6ECFF1274DA1279BEAF051274DA13
:106E96001279BE127E437FA11274DA1279BED390A4
:106EA60010ECE094019010EBE09400401FA3E02466
:106EB600FFF09010EBE034FFF01277A2EF120E0D08
:106EC600127F15740129F9E43AFA80D21277A2EFFB
:0E6ED600120E0D12008E127E599010EDE0FF8C
:016EE400228B
:1068B70052696E674F757454733A202562640D0AE6
:1068C70000546F6E65456E3A202562640D0A0043D9
:1068D700616D6572614F6E3A202562640D0A005240
:1068E70065616C7954696D653A202562640D0A000B
:1068F7004E616D65436F756E743A2025750D0A00FC
:10690700507377436F756E743A2025750D0A0043EF
:10691700617264436F756E743A2025750D0A0054D1
:10692700616C6B566F6C756D3A202562640D0A00B9
:0A6937002575002573250025730067
:10402C0041126F01481258000000000000000042CD
:10403C00126DFFFF42122100004112510341127018
:10404C00004212520000411255004412710000004F
:0A405C000041125404421256012CD8
:1050E0007B017A1279609010EBE4F0A3740DF0E488
:1050F000FFFE126E82901260E0B45A08A3E0B46919
:105100000330003D901260745AF0A37469F090125D
:10511000687402F0A314F0E4A3F0A3740AF0A3747B
:1051200003F09012621210F7000A2C2A7B017A1207
:1051300079609010EBE4F0A3740DF0E4FFFE1267C9
:10514000167BFF7A6879B7901268E090110AF01226
:1051500026E87BFF7A6879C8901269E090110AF01E
:105160001226E87BFF7A6879D690126AE090110ADD
:10517000F01226E87BFF7A6879E690126BE09011D6
:105180000AF01226E87BFF7A6879F790125AE0FF5E
:10519000A3E090110ACFF0A3EFF01226E87BFF7A8C
:1051A00069790790125CE0FFA3E090110ACFF0A3A9
:1051B000EFF01226E87BFF7A69791690125EE0FF25
:1051C000A3E090110ACFF0A3EFF01226E87BFF7A5C
:1051D00069792690126CE090110AF01226E890127C
:1051E0006CE0D3940540037403F090126CE09012CD
:0E51F00051F090126AE06003D2C222C2C222C5
:106F48007B017A1279589010EBE4F0A37408F07F73
:106F5800807E00126E82901258E0645A7004A3E09A
:106F68006469602C901258745AF0A37469F0E4A311
:106F7800F0A3F0A3F0A3F0A3F0A3F07B017A1279B9
:106F8800589010EBF0A37408F07F807E001267160B
:096F9800127F02127F28027F3BE8
:106FA100ED24FE6017146027240270327C007D2ED0
:106FB100120E41E42FFF74013EFE8022EF7802C3DE
:106FC10033CE33CED8F924F8FF74123EFE800F7C05
:106FD100007D06120E4174202FFF74133EFE7B01CB
:106FE1007A1079C49010EBE4F0A37402F0126E826F
:086FF1009010C4E0FEA3E0FFD4
:016FF9002275
:0B6941009010BDEEF0A3EFF0A3EDF00E
:10694C00E4A3F0A3F0ED24FE600C14600E2402709E
:10695C001990125A800890125C800390125EE0FF2E
:10696C00A3E09010C2CFF0A3EFF09010C2E0FCA314
:10697C00E0FD9010C0E0FEA3E0FFC39DEE9C5035FF
:10698C009010BFE0FD126FA19010BDE0B5060EA3F4
:10699C00E0B507099010C0E0FEA3E0FF22EFF47011
:1069AC0002EEF460109010C1E004F070BD9010C0C5
:0969BC00E004F080B57EFF7FFFCE
:0169C50022AF
:107CF70090126F7401F074FF90126DF0A3F0E4908E
:0A7D07001221F0A3F07F01026133A6
:1075130090126F7402F0127C317BFF7A1F794A7DDF
:10752300017F01127E177BFF7A1F79607D017F0344
:10753300127E177B027D067F03127F4EE490125268
:08754300F0A3F0901255F022B4
:106D5400127C317BFF7A1F79B8E4FD7F01127E1724
:106D6400901252E0FEA3E0FFD39400EE940040465C
:106D740090110A74FFF0A37469F0A37437F0A3EEC2
:106D8400F0A3EFF07B017A1079831226E27BFF7A7D
:106D94001F79B8127E01C3740F9FFFC0077B017A6D
:106DA40010798312796BC3D0E09FFD7B017A10794F
:066DB400837F01127E172F
:016DBA0022B6
:1077450090126F7407F07E00901252EEF0A3EFF0E6
:107755009012557401F0EF7001F0126D547B017AAF
:0F7765001279237D2E7C001277D07F1002627A7A
:10552D00901082EFF024F6607724FB60030255DBC8
:10553D00901252E0FEA3E0FFD39400EE940040429F
:10554D007B017A1279231271F2EFF47002EEF4609E
:10555D0031E4901270F07B017A1279231251FE50D2
:10556D001490126F7413F0901268E0FF9012C7E45C
:10557D00F0A3EFF022127FC4901221E4F0A3740384
:10558D00F022127FE47F0412627A901221E4F0A3DC
:10559D007403F0E4901252F0A3F0901255F0802EA7
:1055AD00901255E0D39400401FE014F0901252E099
:1055BD00FEA3E0FF7C007D0A120E53901252EEF016
:1055CD00A3EFF0126D5480061275B7127CF7901090
:1055DD0082E0FFC394004049EFD3940950439012E9
:1055ED0055E0C39404503AE004F0901252E0FEA34B
:1055FD00E0FF7C007D0A120E41901252EEF0A3EFF7
:10560D00F0901082E0FF901253E02FF0901252E0D4
:10561D003400F0E07002A3E07004901255F0126DAA
:02562D00542205
:06608B009012711210EBEF
:10609100127C3190126FE0B40E0D7BFF7A2079A350
:1060A100E4FD7F01127E1790110A74FFF0A3746959
:1060B100F0A3743AF0A374FFF0A37420F0A37482E8
:1060C100F07B017A1079831226E2E49010A1F0901E
:1060D1001255E0FF9010A1E0C39F50227BFF7A2070
:1060E100798212796B9010A1E02F2483F582E43438
:1060F10010F583742AF09010A1E004F080D17BFFA9
:106101007A20798212796B9010A1E02F2483F58295
:10611100E43410F583E4F07B017A107983FD7F028A
:10612100127E17901255E0FFC374099FFD7F020292
:0261310080519B
:107C6B0090126F740EF09012711210F7000000005A
:0D7C7B00E4901255F01260917F0202627ACF
:10572F00901082EFF024F6606724FB70030257C7D6
:10573F00240460030257CDE4FFFEFDFC901271E0DC
:10574F00F8A3E0F9A3E0FAA3E0FBD312105440272B
:10575F00901255E0B40620901262E0FCA3E0FDA386
:10576F00E0FEA3E0FF901271E0F8A3A3A3E0C31241
:10577F0010547003027513127FC47F0512627A9062
:10578F0012711210F700000000E4901255F0802EF5
:10579F00901255E0D39400401FE014F0901271E086
:1057AF00FCA3E0FDA3E0FEA3E0FFE47B0AFAF9F817
:1057BF00120FC212608B80061275B7127CF7901011
:1057CF0082E0FFC394004055EFD39409504F9012DD
:1057DF0055E0C394065046E004F0901271E0FCA32C
:1057EF00E0FDA3E0FEA3E0FFE47B0AFAF9F8120F55
:1057FF00379012711210EB901271E0F8A3E0F9A339
:10580F00E0FAA3E0FB901082E0FFE4FCFDFEEB2F3B
:0E581F00FFEE3AFEED39FDEC38FC12608B22F4
:104D5B00901082EFF024F5601C14601F1460221475
:104D6B00605E147003024E3124056003024E8812FC
:104D7B007CF7024E88127ADE024E88127C6B024E52
:104D8B008890125AE0FEA3E0FFD39400EE940050FB
:104D9B0003024E88EF24FFFFEE34FFFEC390126E2A
:104DAB00E09F90126DE09E500EA3E004F0706A90AD
:104DBB00126DE004F08062E490126DF0A3F0805964
:104DCB0090125AE0FEA3E0FFD39400EE9400500340
:104DDB00024E8890126DE0FCA3E0FD9FEC9E5025E7
:104DEB00ED9400EC9400400DE024FFF090126DE088
:104DFB0034FFF08024EF24FFFFEE34FF90126DF0B0
:104E0B00A3EFF0801490125BE024FFFE90125AE0A7
:104E1B0034FF90126DF0A3CEF090126DE0FEA3E084
:104E2B00FF127B6B805790125AE0FCA3E0FD9012AF
:104E3B006DE0FEA3E0FFC39DEE9C503CE49012702E
:104E4B00F07B017A1279231277157B017A12792381
:104E5B001251FE501590126F7413F0901268E0FF10
:104E6B009012C7E4F0A3EFF08013127FC4901221CD
:104E7B00E4F0A37403F08005E4FF127745901082F1
:104E8B00E0FFD394004009EFD39409500312774508
:014E9B0022F4
:105D9500901082EFF0C39400405EE0FBD39409506D
:105DA50057901255E0C39402503AE004F090125215
:105DB500E0FEA3E0FF7C007D0A120E41901252EE38
:105DC500F0A3EFF0EBFF7E00E02FF0901252E03EE3
:105DD500F0D3A3E0940D901252E094005003025EBC
:105DE50063EE8009901082E0FF901252E4F0A3EF79
:105DF500F09012557401F022901082E0B40F0280E9
:105E050007901082E0B40A03027CF7901082E064E8
:105E15000B704B901252E0FEA3E0FFC39404EE9486
:105E250000400EEF940CEE94005006EF2411FF8015
:105E35002A901252E0FEA3E0FFEE7022EF146010EC
:105E450014601014601024F6600F047011027A4A71
:0F5E550002668B0267A102682C7F1D125E642219
:0C000E00EF24F6700612806B127CF722C3
:10497700127C3190126FE024E86033147003024A0E
:104987000524FD6044147003024A202406600302D4
:104997004A4390110A74FFF0A37469F0A3743EF0C0
:1049A700A374FFF0A37421F0A3747C024A39901119
:1049B7000A74FFF0A37469F0A3743EF0A374FFF0C8
:1049C700A37421F0A3748F806990110A74FFF0A378
:1049D7007469F0A3743EF0A374FFF0A37421F0A3ED
:1049E70074AAF07B017A1079831226E2901252E0C2
:1049F7007002A3E06004D2C28042C2C2803E90111E
:104A07000A74FFF0A37469F0A3743EF0A374FFF077
:104A1700A37421F0A374B6801990110A74FFF0A350
:104A27007469F0A3743EF0A374FFF0A37421F0A39C
:104A370074D9F07B017A1079831226E290126FE025
:104A4700FF64186005EF641C70297B017A10798375
:104A5700E4FD7F01127E17901252E07004A3E06418
:104A6700017BFF70067A2179EF80047A2179F87D3E
:104A770005804A7B017A107983E4FD7F01127E1756
:104A8700901252E0FEA3E0FFD39400EE9400403270
:104A970090126FE0641C602A90110A74FFF0A374EF
:104AA70069F0A37437F0A3EEF0A3EFF07B017A105F
:104AB70079831226E27B017A1079837D087F0212BF
:024AC7007E1758
:014AC90022CA
:105E6400EF24E8602514604824FD60311460552453
:105E7400066003025F299012547402F0901256E4F3
:105E8400F0A3745AF0901268804C9012547401F08C
:105E9400901256E4F0A304F09012698039901254E1
:105EA4007401F0901256E4F0A304F090126A802674
:105EB4009012547402F0901256E4F0A37463F090BC
:105EC400126B80129012547401F0901256E4F0A3F5
:105ED4007405F090126CE0FD901252E4F0A3EDF022
:105EE40090126FEFF0E4901255F0901252E0FEA37E
:105EF400E0FFD3EF9400EE9400400F901255E004BD
:105F0400F07C007D0A120E5380E890126FE0FF646B
:105F1400186009EF641C6004EFB41D0690125574F8
:055F240001F0124977B5
:015F29002255
:10592500901083ECF0A3EDF0EF24E8603014607B79
:1059350024FD60501470030259D724066003025AEF
:105945000F901083A3E0901268F0C374689460FF11
:1059550074129412FE7B017A127968806890108324
:10596500E07002A3E07003FF80027F01901269EFEF
:10597500F0C374699460FF74129412FE7B017A126D
:1059850079698041901083E07002A3E07003FF8085
:10599500027F0190126AEFF0C3746A9460FF74127B
:1059A5009412FE7B017A12796A801A901083A3E023
:1059B50090126BF0C3746B9460FF74129412FE7BAB
:1059C500017A12796B9010EBE4F0A304F0126716DC
:1059D5008038901083E0FEA3E0FFD39400EE94009E
:1059E500402890126CEFF0746C9460FF741294125E
:1059F500FE7B017A12796C9010EBE4F0A304F012AF
:0D5A0500671690126CE0901251F0027EB016
:10482200901082EFF0901255E0B4630280769010FF
:1048320082E024F5604E24FC6048240570699012E1
:104842006FE0FF6418600BEF641C6006901255E085
:10485200700E90126AE06004D2C28002C2C280442A
:10486200901255E014F0901252E0FEA3E0FF7C009B
:104872007D0A120E53901252EEF0A3EFF012497716
:1048820080258020901255E0D39400401790126F3B
:10489200E0FF901252E0FCA3E0FD12592590125560
:1048A2007463F022027513901082E0FFC3940050EB
:1048B20003024973EFD39409400302497390126FC4
:1048C200E0FF64186004EFB41C129012557401F0FA
:1048D200901082E0FF901252E402496F90126FE052
:1048E200B41D27901082E0FFD39400500302497355
:1048F2007E00901257E09F901256E09E40739012F5
:10490200557401F0901252148063901254E0FFA388
:10491200E0C39F505C901252E0FEA3E0FF7C007D5A
:104922000A120E41901256E0FCA3E0FDC39FEC9EDA
:10493200403F901255E004F0901252EEF0A3EFF0D7
:10494200901082E0F92FFFE43EFEC3ED9FEC9E4003
:1049520011E9FF901253E02FF0901252E03400F070
:10496200800F901256E0FFA3E0901252CFF0A3EF17
:05497200F0124977225C
:1046A500901081EFF0901221E4F0A3741EF09012A7
:1046B5006FE014B41D0040030247F29046CE75F03A
:1046C50003A4C58325F0C58373024725024730023D
:1046D500473B02474602475102475C02479A024759
:1046E5006702477202477C0247860247900247AE3F
:1046F5000247A40247CC0247D60247E00247EA0236
:1047050047B80247B80247F20247F20247C20247DA
:10471500C20247C20247F20247F20247C20247C23B
:10472500901081E0FF124D5B0247F2901081E0FF8F
:10473500125D950247F2901081E0FF127BAE0247B1
:10474500F2901081E0FF1212570247F2901081E0BB
:10475500FF1239E70247F2901081E0FF127D8F02C8
:1047650047F2901081E0FF127BCF0247F290108153
:10477500E0FF121B178076901081E0FF1244FB804A
:104785006C901081E0FF127DA68062901081E0FFA1
:10479500124C178058901081E0FF12552D804E90D5
:1047A5001081E0FF12572F8044901081E0FF1230F6
:1047B5002C803A901081E0FF12000E80309010811D
:1047C500E0FF1248228026901081E0FF127BF080E6
:1047D5001C901081E0FF1243498012901081E0FF88
:1047E5001241918008901081E0FF127DBDD3901297
:1047F50022E0940A901221E09400402090126FE08C
:10480500FF640E600EEF640C6009EF64076004EF4F
:0D481500B40109901221E4F0A3740AF0220E
:106DBB00901081EBF0A3EAF0A3E9F090126FE024BE
:106DCB00F1605024FE60071460492402700E90108D
:106DDB0081E0FBA3E0FAA3E0F902749F901081E03D
:106DEB00FBA3E0FAA3E0F91261DAEFF47002EEF420
:106DFB006007D200127F728003127EC590126FE083
:106E0B00FF6414600EEF64136009901221E4F0A389
:046E1B007403F022EA
:107E9B00436865636B5073773A25750D0A0025753A
:057EAB00002573250015
:0E4066004112D3004112D400C10AC10BC10C9B
:107B2500C3745C9458FF74129412CF2480CF340030
:107B3500FE7B017A12795C9010EBE4F0A37402F0FD
:037B4500026716BE
:0A802A00E490125CF0A3F0027B2545
:107F2800D390125DE0940A90125CE0940040031232
:037F3800802A227A
:0B78CE00901089E0FBA3E0FAA3E0F9B2
:1078D900EF7802C333CE33CED8F924F8FFEE341251
:0D78E900FE9010EBE4F0A37404F0026716AB
:107C8800EF7802C333CE33CED8F924F8FFEE34129E
:0D7C9800FE9010EBE4F0A37404F0026E8285
:0B723B009012EAEBF0A3EAF0A3E9F0E8
:1072460074FFA3F0A3F07D021269419012EDEEF0F7
:10725600A3EFF0F47002EEF4601F9012EDE0FEA3CF
:10726600E0FF9012EAE0FBA3E0FAA3E0F9127C88C3
:0D7276009012EDE0FEA3E0FF227EFF7FFFFF
:0172830022E8
:0869C600901083EEF0A3EFF046
:1069CE00E4A3F0A3F07BFF7A7E799B90110AEEF0A0
:1069DE00A3EFF01226E890125CE07002A3E07002C2
:1069EE00C322E4901085F0A3F090125CE0FCA3E0CB
:1069FE00FD901085E0FEA3E0FFC39DEE9C502F7B23
:106A0E00017A107987127C88901083E0FEA3E0FF54
:106A1E00901089E0B50607A3E0B50702D3229010C7
:0F6A2E0086E004F070C3901085E004F080BBC3D5
:016A3D002236
:0B6AB500901089EBF0A3EAF0A3E9F0D9
:106AC00074FFA3F0A3F0120ED4FFAEF07D021269A2
:106AD0004190108CEEF0A3EFF0F47002EEF460142D
:106AE00090108CE0FEA3E0FF1278CE90108CE0FEB8
:106AF000A3E0FF2290125CE0FEA3E0FFC3940AEE45
:106B0000940050231278CE90125DE004F07006904D
:106B1000125CE004F0127B2590125DE024FFFF90F0
:0B6B2000125CE034FFFE227EFF7FFFCE
:016B2B002247
:086C0B00901087EEF0A3EFF0FA
:106C130090125CE0FCA3E0FDD39FEC9E4058ED2472
:106C2300FFFFEC34FFFE901087E0B50616A3E0B536
:106C3300071190125DE024FFF090125CE034FFF046
:106C4300027B2590125DE024FFF090125CE034FF9C
:106C5300F0127B2590125CE0FEA3E0FF7B017A102B
:106C63007989127C88901087E0FEA3E0FF7B017A8C
:066C73001079891278D9A6
:016C790022F8
:0879DB00901085EEF0A3EFF01F
:1079E3008013EFF47002EEF46012126C0B901085AA
:0C79F300E0FEA3E0FF7D0212694180E687
:0179FF002265
:0829E2007B017A1279C9D200D1
:0B29EA00901089EBF0A3EAF0A3E9F0E5
:1029F500127C3190126FE0B40D107BFF7A2079A321
:102A0500E4FD7F01127E17022ABA90126FE0FF647F
:102A15000D7003022ABAEF640C7003022ABA9010F3
:102A250089E0FBA3E0FAA3E0F9120ED4D39400E504
:102A3500F094007BFF7A1F79C2E4FD7F01405A12B2
:102A45007E1790110A74FFF0A3747EF0A374A9F0A9
:102A5500901089E0FBA3E0FAA3E0F9120ED4FF90F1
:102A6500110DE5F0F0A3EFF07B017A10798C1226B9
:102A7500E27BFF7A1F79C2127E01C374109FFFC0EB
:102A8500077B017A10798C12796BC3D0E09FFD7BAF
:102A9500017A10798C7F018000127E179012D3E0A5
:102AA50070137BFF7A1F79C2127E01C3740F9FFDDD
:102AB5007F01128051200003022D09901089E0FB4F
:102AC500A3E0FAA3E0F990000212108BE4FBFAF9F7
:102AD500F8C31210544003022BB690110A74FFF08C
:102AE500A3747EF0A374ACF0A374FFF0A37420F07C
:102AF500A37482F00B7A10798C1226E29012CBE047
:102B0500FCA3E0FDA3E0FEA3E0FF9010A11210EBF3
:102B1500E49010A0F0E4FFFEFDFC9010A1E0F8A306
:102B2500E0F9A3E0FAA3E0FBD3121054403F7BFF8A
:102B35007A20798212796B9010A0E02F248CF5828F
:102B4500E43410F583742AF09010A1E0FCA3E0FDB5
:102B5500A3E0FEA3E0FFE47B0AFAF9F8120FC290A6
:102B650010A11210EB9010A0E004F080A87BFF7A72
:102B750020798212796B9010A0E02F248CF582E4E5
:102B85003410F583E4F07B017A10798CFD7F021215
:102B95007E1790126FE0640D60047F0180027F0054
:102BA5009012D3E06F7033A3E0FFC374099FFD80DB
:102BB500247BFF7A207982E4FD7F02127E17901232
:102BC5006FE0640D60047F0180027F009012D3E006
:102BD500B507077D097F0212805190126FE0640CE2
:102BE5007003022D09901089E0FBA3E0FAA3E0F938
:102BF50090000612108BE4FBFAF9F8C3121054404A
:102C050003022CE090110A74FFF0A3747EF0A37404
:102C1500ACF0A374FFF0A37420F0A3748EF00B7ACC
:102C250010798C1226E29012CFE0FCA3E0FDA3E020
:102C3500FEA3E0FF9010A11210EBE49010A0F0E4C9
:102C4500FFFEFDFC9010A1E0F8A3E0F9A3E0FAA3D4
:102C5500E0FBD3121054403F7BFF7A20798E127926
:102C65006B9010A0E02F248CF582E43410F583746A
:102C75002AF09010A1E0FCA3E0FDA3E0FEA3E0FF95
:102C8500E47B0AFAF9F8120FC29010A11210EB902A
:102C950010A0E004F080A87BFF7A20798E12796B72
:102CA5009010A0E02F248CF582E43410F583E4F035
:102CB5007B017A10798CFD7F03127E1790126FE0ED
:102CC500640D60047F0280027F019012D3E06F7073
:102CD50033A3E0FFC3740B9FFD80247BFF7A20792B
:102CE5008EE4FD7F03127E1790126FE0640D600481
:102CF5007F0280027F019012D3E0B507077D0B7F2D
:042D050003128051E4
:012D090022A7
:107A00007B017A1279C97D0A7C001277D0E490124A
:107A1000D3F0A3F090126F7409F07B017A1279C948
:057A2000D2000229EA7A
:051B1700901082EFF0C8
:101B1C00640B6003021C649012D3E0640360030244
:101B2C001BEC300A147B017A1279C97D0AFC1277FE
:101B3C00D0E49012D4F0021BECD39012CAE09400C3
:101B4C009012C9E094005003021BE9E4FFFEFDFC77
:101B5C009012CBE0F8A3E0F9A3E0FAA3E0FB12109B
:101B6C0054607A9012CFE0FCA3E0FDA3E0FEA3E06A
:101B7C00FF9012CBE0F8A3A3A3E0C3121054705D46
:101B8C009012C9E0FFA3E0901085CFF0A3EFF09086
:101B9C0012CBA3A3E0FFA3E0901087CFF0A3EFF04C
:101BAC007B017A107985126AB5EFF47002EEF4605D
:101BBC0005127EB08003127FC47B017A1279C97D35
:101BCC000A7C001277D0D20A9012CB1210F70000C8
:101BDC0000009012CF1210F70000000022027FC408
:101BEC009012D3E004F0E05403FFF0E4A3F0EF1400
:101BFC00604914604B14605A24036003021DCAE44C
:101C0C009012D3F09012C9E0FFA3E0901083CF8024
:101C1C0024901083E0FEA3E0FFD39400EE940050D8
:101C2C0003021DCA9012D4E004F07C007D0A120E4F
:101C3C0053901083EEF0A3EFF080D69012CB80037C
:101C4C009012CF1210F700000000E49012D4F002B2
:101C5C001DCA127FA4C20A22901082E0640A60039B
:101C6C00021DC09012D3E014603C147003021D1AC4
:101C7C00147003021D8524036003021DCA9012D444
:101C8C00E0D39400401DE014F09012C9E0FEA3E0F4
:101C9C00FF7C007D0A120E539012C9EEF0A3EFF0F8
:101CAC00021DCA021DC79012D4E0D39400401FE05D
:101CBC0014F09012CBE0FCA3E0FDA3E0FEA3E0FF48
:101CCC00E47B0AFAF9F8120FC29012CB80669012DC
:101CDC00D3E014F0E4A3F09012C9E0FFA3E090105D
:101CEC0083CF8024901083E0FEA3E0FFD39400EE1A
:101CFC0094005003021DCA9012D4E004F07C007DC5
:101D0C000A120E53901083EEF0A3EFF080D69012CF
:101D1C00D4E0D394004023E014F09012CFE0FCA365
:101D2C00E0FDA3E0FEA3E0FFE47B0AFAF9F8120F52
:101D3C00C29012CF1210EB021DCA9012D3E014F015
:101D4C00E4A3F09012CBA3A3E0FFA3E0901083CF09
:101D5C008021901083E0FEA3E0FFD39400EE94006A
:101D6C00405C9012D4E004F07C007D0A120E53907B
:101D7C001083EEF0A3EFF080D9E49012D3F0A3F02F
:101D8C009012C9E0FFA3E0901083CF8021901083C4
:101D9C00E0FEA3E0FFD39400EE940040219012D417
:101DAC00E004F07C007D0A120E53901083EEF0A339
:101DBC00EFF080D9901082E0B40F030267A190106D
:101DCC0082E0FFC394005003021F38EFD394094004
:101DDC0003021F389012D3E014606F147003021EBC
:101DEC00C624026003021F389012D4E0C39404503E
:101DFC00499012C9E0FEA3E0FF7C007D0A120E415F
:101E0C009012C9EEF0A3EFF0901082E0FF7E0090EC
:101E1C0012CAE02FF09012C9E03EF09012D4E00408
:101E2C00F0D39012CAE0940A9012C9E09400400AD0
:101E3C00EEF0A3EFF0E49012D4F09012C9E070022F
:101E4C00A3E06003021F38021F349012D4E0C39445
:101E5C0004504C9012CBE0FCA3E0FDA3E0FEA3E009
:101E6C00FFE47B0AFAF9F8120F379012CB1210EB41
:101E7C009012CBE0F8A3E0F9A3E0FAA3E0FB9010FA
:101E8C0082E0FFE4FCFDFEEB2FFFEE3AFEED39FDA8
:101E9C00EC38FC9012CB1210EB9012D4E004F0E46E
:101EAC00FFFEFDFC9012CBE0F8A3E0F9A3E0FAA34F
:101EBC00E0FBC31210547074806E9012D4E0C39483
:101ECC0004504C9012CFE0FCA3E0FDA3E0FEA3E095
:101EDC00FFE47B0AFAF9F8120F379012CF1210EBCD
:101EEC009012CFE0F8A3E0F9A3E0FAA3E0FB901086
:101EFC0082E0FFE4FCFDFEEB2FFFEE3AFEED39FD38
:101F0C00EC38FC9012CF1210EB9012D4E004F0E4F9
:101F1C00FFFEFDFC9012CFE0F8A3E0F9A3E0FAA3DA
:0F1F2C00E0FBC312105470049012D4F01229E29B
:011F3B002283
:107A25007B017A1279C97D0A7C001277D0E4901225
:107A3500D3F0A3F090126F740AF07B017A1279C922
:057A4500C2000229EA65
:0544FB00901082EFF0BB
:10450000640B60030245A79012D3E06401703E3053
:104510000B137B017A1279C97D0AFC1277D0E490E3
:1045200012D4F080289012C9E0FEA3E0FFD39400DB
:10453000EE940050030246A41279DB7B017A1279D3
:10454000C97D0A7C001277D0D20B027FD49012D39F
:10455000E004F0E05401FFF0E4A3F0EF1460420443
:104560006003024623E49012D4F09012C9E0FFA346
:10457000E0901083CF8024901083E0FEA3E0FFD36F
:104580009400EE940050030246239012D4E004F00D
:104590007C007D0A120E53901083EEF0A3EFF080A2
:1045A000D6127FB4C20B22901082E0640A706A9027
:1045B00012D3E014602804706A9012D4E0D39400FF
:1045C000405EE014F09012C9E0FEA3E0FF7C007DA5
:1045D0000A120E539012C9EEF0A3EFF08045E4905A
:1045E00012D3F0A3F09012C9E0FFA3E0901083CFA4
:1045F0008021901083E0FEA3E0FFD39400EE9400AE
:1046000040219012D4E004F07C007D0A120E5390F9
:104610001083EEF0A3EFF080D9901082E0B40F0386
:104620000267A1901082E0FFC39400406CEFD39426
:104630000950669012D3E070609012D4E0C39404E5
:1046400050499012C9E0FEA3E0FF7C007D0A120EE3
:10465000419012C9EEF0A3EFF0901082E0FF7E00CF
:104660009012CAE02FF09012C9E03EF09012D4E010
:1046700004F0D39012CAE0940A9012C9E09400406A
:104680000AEEF0A3EFF0E49012D4F09012C9E070BB
:1046900002A3E070049012D4F07B017A1279C9C2AF
:0446A000001229EAF1
:0146A40022F3
:107E6F0090126F740BF0127C317BFF7A20792CE427
:067E7F00FD7F01027E17E9
:107DA600EF24F6600E24FB600A2404700912802A70
:077DB600027FD41267A12235
:1067A10090126F7408F0127C317BFF7A207947E4F4
:1067B100FDFF127E177BFF7A20795EE4FD7F0112D7
:1067C1007E177BFF7A207972E4FD7F02127E177BB0
:1067D100FF7A207996E4FD7F03127E1790110A74E7
:1067E100FFF0A3747EF0A374A9F090125CE0FFA304
:1067F100E090110DCFF0A3EFF07B017A10798912AF
:1068010026E27BFF7A207996127E01C3740F9FFFE7
:10681100C0077B017A10798912796BC3D0E09FFDA3
:0B6821007B017A1079897F03027E174B
:107BCF00EF24FE601214601224F9601124FB600D83
:107BDF00240E700C027A00027A25027E6F12751342
:017BEF002273
:107ADE007B017A1279C97D0A7C001277D09012D37D
:107AEE007401F0E4A3F090126F740CF01229E27F8F
:047AFE000202627AA4
:104C1700901082EFF0640A70329012D3E01470386B
:104C27009012D4E0D394004029E014F09012CBE026
:104C3700FCA3E0FDA3E0FEA3E0FFE47B0AFAF9F89A
:104C4700120FC29012CB1210EB800D901082E0B4BD
:104C57000F06127CF70275B7901082E0FFC394002D
:104C67005003024D57EFD394094003024D5790125A
:104C7700D3E0146003024D579012D4E0C39404505C
:104C87004C9012CBE0FCA3E0FDA3E0FEA3E0FFE421
:104C97007B0AFAF9F8120F379012CB1210EB901229
:104CA700CBE0F8A3E0F9A3E0FAA3E0FB901082E0E1
:104CB700FFE4FCFDFEEB2FFFEE3AFEED39FDEC388D
:104CC700FC9012CB1210EB9012D4E004F0E4FFFE3C
:104CD700FDFC9012CBE0F8A3E0F9A3E0FAA3E0FB18
:104CE700C312105470049012D4F09012D4E06404EC
:104CF700705E9012CBA3A3E0FEA3E0FF1269C6503B
:104D070029D200127F72901221E4F0A37403F0906D
:104D170012CB1210F700000000E49012C9F0A3F0C4
:104D27009012D4F09012D304F0229012CB1210F705
:104D370000000000E49012D4F09012D304F0127F28
:104D4700C47F0512627A901221E4F0A37405F02261
:044D57001229E22219
:107A4A007B017A1279C97D0A7C001277D0E4901200
:107A5A00D3F0A3F090126F740DF07B017A1279C9FA
:057A6A00D2000229EA30
:107CA500C374629460FF74129412FE7B017A127998
:0D7CB500629010EBE4F0A37404F002671677
:05302C00901082EFF09E
:10303100640B60030231329012D3E0640260030238
:1030410030E5300C147B017A1279C97D0AFC1277C4
:10305100D0E49012D4F00230E5E4FFFEFDFC9012C2
:10306100CBE0F8A3E0F9A3E0FAA3E0FBC31210540C
:10307100605B9012CFE0FCA3E0FDA3E0FEA3E0FFC4
:103081009012CBE0F8A3A3A3E0C3121054703E90BA
:1030910012CBE0FCA3E0FDA3E0FEA3E0FF901262EF
:1030A1001210EB127CA5127EB07B017A1279C97DD8
:1030B1000A7C001277D0D20C9012CB1210F70000CC
:1030C10000009012CF1210F700000000229012CBE6
:1030D1001210F7000000009012CF1210F70000004C
:1030E10000027FC49012D3E0B40109A3E06406603A
:1030F100030232EC9012D3E004F0E075F00384AFE8
:10310100F0EFF0E4A3F0EF14600F14601E240260EE
:10311100030231E49012CB80039012CF1210F7001A
:10312100000000E49012D4F00231E4127FA4C20C3A
:1031310022901082E0640A60030231DA9012D3E037
:103141001460371470030231D1240260030231E4A8
:103151009012D4E0D39400401FE014F09012CBE021
:10316100FCA3E0FDA3E0FEA3E0FFE47B0AFAF9F88B
:10317100120FC29012CB802880669012D4E0D394B3
:10318100004022E014F09012CFE0FCA3E0FDA3E0A8
:10319100FEA3E0FFE47B0AFAF9F8120FC29012CF06
:1031A1001210EB803E9012D3E014F0E4A3F09012E1
:1031B100CBA3A3E0FEA3E0FFD3EF9400EE94004085
:1031C100229012D4E004F07C007D0A120E5380E8B4
:1031D100E49012D3F0A3F0800A901082E0B40F03C0
:1031E100027513901082E0FFC3940050030232E98C
:1031F100EFD3940940030232E99012D3E0146076D0
:103201000460030232E99012D4E0C39406504C905A
:1032110012CBE0FCA3E0FDA3E0FEA3E0FFE47B0A08
:10322100FAF9F8120F379012CB1210EB9012CBE093
:10323100F8A3E0F9A3E0FAA3E0FB901082E0FFE439
:10324100FCFDFEEB2FFFEE3AFEED39FDEC38FC9074
:1032510012CB1210EB9012D4E004F0E4FFFEFDFC5F
:103261009012CBE0F8A3E0F9A3E0FAA3E0FBC312CC
:1032710010547074806E9012D4E0C39406504C9038
:1032810012CFE0FCA3E0FDA3E0FEA3E0FFE47B0A94
:10329100FAF9F8120F379012CF1210EB9012CFE01B
:1032A100F8A3E0F9A3E0FAA3E0FB901082E0FFE4C9
:1032B100FCFDFEEB2FFFEE3AFEED39FDEC38FC9004
:1032C10012CF1210EB9012D4E004F0E4FFFEFDFCEB
:1032D1009012CFE0F8A3E0F9A3E0FAA3E0FBC31258
:0B32E100105470049012D4F01229E287
:0132EC0022BF
:101F3C00257500222C2F3A2829275F2D2000D794B5
:101F4C00D792D793D7A8D7AA20D79ED7A2D7A8D74E
:101F5C009BD7AA00312D313300312DD794D795D78B
:101F6C00A1D7A32FD7A2D7A8D795D79A20D7A9D7CF
:101F7C009D00322DD79ED797D7A720D7A9D79D00E4
:101F8C00332D20D79ED797D7A720D794D79BD79CF4
:101F9C0000D794D790D79D20D79CD79ED797D7950D
:101FAC00D7A720D794D79BD79C203F00D793D799FE
:101FBC00D7A8D7943A00D7AAD7903A2000D7A9D758
:101FCC009D3A00D79ED79ED7A1D7A83A0020D79C80
:101FDC00D790D7A9D7A820D7A9D79ED799D7A8D7B4
:101FEC00943F00202020D7A9D79ED795D7A82100B1
:101FFC002020D7A9D792D799D790D7942100D79CD6
:10200C00D790D7A9D7A820D79ED797D799D7A7D796
:10201C0094203F002020D7A0D79ED797D7A7210088
:10202C00D794D790D79D20D79CD79ED797D795D7A5
:10203C00A720D794D79BD79C203F00312D20D79435
:10204C00D795D7A1D7A320D7A1D799D7A1D79ED75A
:10205C009400322DD79ED797D7A720D7A1D799D741
:10206C00A1D79ED79400332DD79ED797D7A720D72B
:10207C0094D79BD79C00D7A1D799D7A1D79ED7949B
:10208C003A00D790D7A9D7A83A00D7A1D79A20D78A
:10209C0094D79BD79C3A00D7A1D799D7A1D79ED7D5
:1020AC00AA20D79ED7A0D794D79C00312DD794D7F0
:1020BC0095D7A1D7A320D79BD7A8D798D799D7A125
:1020CC0000322DD79ED797D799D7A7D7AA20D79BC1
:1020DC00D7A8D798D799D7A100332DD79ED797D704
:1020EC00A720D794D79BD79C00D794D790D79D2067
:1020FC00D79CD79ED797D795D7A720D794D79BD7C0
:10210C009C203F00D79BD7A8D798D799D7A13A0046
:10211C002020D7A9D792D799D790D7AA20D79BD7C9
:10212C00A8D798D799D7A121002020D793D79CD78F
:10213C00AA20D7A0D7A4D7AAD797D7AA2100D79ED1
:10214C00D7A6D79CD7A6D79C3A00D796D79ED79F11
:10215C0020D793D799D791D795D7A83A00D796D7A8
:10216C009ED79F20D7A6D79CD7A6D795D79C3A00A9
:10217C00D796D79ED79F20D7A6D79CD7A6D795D72B
:10218C009C3A00D794D7A0D797D799D795D7AA20A0
:10219C00D7A7D795D79CD799D795D7AA3A00D79ECA
:1021AC00D7A6D79CD79ED7943A00D796D79ED79FC1
:1021BC0020D79ED79ED7A1D7A83A00D79ED7A7D70E
:1021CC00A920D7A42ED793D79CD7AA3A00D7A2D7A9
:1021DC0095D7A6D79ED7AA20D793D799D791D7951D
:1021EC00D7A800D7A4D7A2D799D79C00D79BD791B3
:1021FC00D795D79900D7A9D792D799D790D7AA2096
:10220C00D79BD7A8D798D799D7A120D7A1D799D79B
:10221C009D2100D791D7A8D795D79BD799D79D202B
:10222C00D794D791D790D799D79D2100D79CD7A673
:10223C00D79CD7A6D795D79C20D79CD793D799D77F
:10224C00A8D79400D79CD797D7A6D79520D79ED739
:10225C00A1D7A4D7A820D793D799D7A8D79400D71C
:10226C009CD791D799D798D795D79C20D79CD7979F
:10227C00D7A6D79500D79CD7A8D7A9D799D79ED73B
:10228C00AA20D7A9D79ED795D7AA0020D79CD7919B
:10229C00D797D799D7A8D7AA20D7A9D79D20D79CAD
:1022AC00D797D7A6D79500D79CD79BD7A0D799D728
:1022BC00A1D79420D7A2D79D20D7A7D795D7930085
:1022CC00D79CD797D7A6D795202020D795D7A7D717
:1022DC0095D7930020D7A9D792D799D790D7942088
:1022EC00D791D793D799D7A8D7942100D7A9D799A5
:1022FC00D797D7943A005265736574204F4B2100E1
:107FA400127C317BFF7A1F79D9E4FD7F01027E17B1
:107FB400127C317BFF7A20790AE4FD7F01027E176F
:107EB000127C317BFF7A1F79EFE4FD7F01127E1780
:057EC0007F0602627A5A
:107FC400127C317BFF7A1F79FCE4FD7F01027E176E
:107FD400127C317BFF7A207920E4FD7F01027E1739
:107EC500127C317BFF7A21791CE4FD7F01127E173C
:057ED5007F0702627A44
:107D4400127C317BFF7A217935E4FD7F01127E17A5
:097D54003001057F0312627A225E
:107FE400127C317BFF7A2279E0E4FD7F01027E1767
:01000A0022D3
:10613300901083EFF0127C3112000A901083E07B01
:10614300FF703F7A22791FFDFF127E177BFF7A22B1
:106153007938E4FD7F01127E177BFF7A227950E4C0
:10616300FD7F02127E177B02E4FD7F02127F4E7BCE
:10617300FF7A22796BE4FD7F03127E177B087D0390
:10618300804F7A227981E4FDFF127E17E4FB7D02C2
:10619300FF127F4E7B017D03E4FF127F4E7BFF7A6C
:1061A300227997E4FD7F01127E177B02E4FD7F01D4
:1061B300127F4E7BFF7A2279B3E4FD7F02127E17B2
:1061C3007BFF7A2279CCE4FD7F03127E177B037D6C
:0761D3000A7F03127F4E2238
:10739C00127C317BFF7A2279F8E4FD7F01127E1793
:1073AC0090110A74FFF0A3741FF0A3743CF09012B8
:1073BC00C7E0FFA3E090110DCFF0A3EFF07B017AB3
:1073CC001279A91226E27B017A1279A97D087F0134
:0373DC00027E1717
:107FF400127C317BFF7A237902E4FD7F01027E1734
:107DD400436865636B436172643A2562640D0A000B
:077DE400257500256C7500F8
:0C4074004112DB004112DC00C115C11636
:107B4800C3745E9458FF74129412CF2480CF34000B
:107B5800FE7B017A12795E9010EBE4F0A37402F0D8
:037B68000267169B
:0A803400E490125EF0A3F0027B4816
:107F3B00D390125FE094F490125EE0940140031230
:037F4B008034225D
:0B768300901090EBF0A3EAF0A3E9F0F8
:10768E007C007D06120E41EF2420FFEE3413FE9097
:10769E001090E0FBA3E0FAA3E0F99010EBE4F0A366
:0676AE007406F0026716ED
:0B76B400901093EBF0A3EAF0A3E9F0C4
:1076BF007C007D06120E41EF2420FFEE3413FE9066
:1076CF001093E0FBA3E0FAA3E0F99010EBE4F0A332
:0676DF007406F0026E8249
:0B61DA00901088EBF0A3EAF0A3E9F0BE
:1061E500E4901091F0A3F090125EE07002A3E070CD
:1061F50002807D90125EE0FCA3E0FD901091E0FE30
:10620500A3E0FFC39DEE9C50677B017A10798B124A
:1062150076B4E4FF901088E0FBA3E0FAA3E0F98FE1
:1062250082758300120DE0FE748D2FF582E4341023
:10623500F583E0B506050FEFB404D9EFB404217B6F
:10624500FF7A7D79D4901091E0FFA3E090110ACFF9
:10625500F0A3EFF01226E8901091E0FEA3E0FF22F4
:10626500901092E004F0708B901091E004F0808320
:046275007EFF7FFF2A
:016279002202
:0B5BDF00901085EBF0A3EAF0A3E9F0C2
:105BEA00E490108EF0A3F090125EE0FCA3E0FD902A
:105BFA00108EE0FEA3E0FFC39DEE9C50737B017AFA
:105C0A001079881276B4901085E0FBA3E0FAA3E03D
:105C1A00F9120ED4FF901088E065F07003A3E06FCC
:105C2A00703DFF901085E0FBA3E0FAA3E02402F99F
:105C3A00E43AFAEF7C0029F9EC3AFA120DC7FE743D
:105C4A008A2FF582E43410F583E0B506050FEFB428
:105C5A0004D1EFB4040990108EE0FEA3E0FF229075
:105C6A00108FE004F0708090108EE004F0025BF177
:105C7A0090125EE0FEA3E0FFC394F4EE9401502E6E
:105C8A00901085E0FBA3E0FAA3E0F9127683901264
:105C9A005FE004F0700690125EE004F0127B489018
:105CAA00125FE024FFFF90125EE034FFFE227EFFC7
:025CBA007FFF6A
:015CBC0022C5
:086C7A00901088EEF0A3EFF08A
:106C820090125EE0FCA3E0FDD39FEC9E4058ED2401
:106C9200FFFFEC34FFFE901088E0B50616A3E0B5C6
:106CA200071190125FE024FFF090125EE034FFF0D3
:106CB200027B4890125FE024FFF090125EE034FF06
:106CC200F0127B4890125EE0FEA3E0FF7B017A1097
:106CD200798A1276B4901088E0FEA3E0FF7B017AF5
:066CE20010798A1276838E
:016CE8002289
:087A6F00901085EEF0A3EFF08A
:107A77008013EFF47002EEF46012126C7A901085A6
:0C7A8700E0FEA3E0FF7D0312694180E6F1
:017A930022D0
:0B785300901085EBF0A3EAF0A3E9F031
:10785E008016EFF47002EEF46013126C7A901085BD
:0D786E00E0FBA3E0FAA3E0F91261DA80E587
:01787B0022EA
:0B379500901087EBF0A3EAF0A3E9F02E
:1037A000127C31901087E0FBA3E0FAA3E0F9120E3F
:1037B000D4D39400E5F094007BFF7A1F79C2E4FD36
:1037C0007F01405A127E1790110A74FFF0A3747D96
:1037D000F0A374E4F0901087E0FBA3E0FAA3E0F913
:1037E000120ED4FF90110DE5F0F0A3EFF07B017AFB
:1037F00010798E1226E27BFF7A1F79C2127E01C3F6
:1038000074109FFFC0077B017A10798E12796BC309
:10381000D0E09FFD7B017A10798E7F018000127EBF
:10382000179012DBE070137BFF7A1F79C2127E01C2
:10383000C3740F9FFD7F011280512000030239E6FF
:103840007BFF7A217910E4FD7F02127E17901087AA
:10385000E0FBA3E0FAA3E02402F9E43AFA7D047C59
:103860000012777450030239E6901087E0FBA3E062
:10387000FAA3E0F9900002120DE0FFE4FCFDFE90D7
:10388000108A1210EB90108AE0FCA3E0FDA3E0FE8A
:10389000A3E0FF780812107890108A1210EB9010B5
:1038A0008AE0F8A3E0F9A3E0FAA3E0FBC000C001BE
:1038B000C002C003901087E0FBA3E0FAA3E0F990F8
:1038C0000003120DE0FFD003D002D001D000EB4F77
:1038D000FFEAFEE9FDE8FC90108A1210EB90108AD6
:1038E000E0FCA3E0FDA3E0FEA3E0FF78081210785F
:1038F00090108A1210EB90108AE0F8A3E0F9A3E090
:10390000FAA3E0FBC000C001C002C003901087E032
:10391000FBA3E0FAA3E0F9900004120DE0FFD0034E
:10392000D002D001D000EB4FFFEAFEE9FDE8FC90A9
:10393000108A1210EB90108AE0FCA3E0FDA3E0FED9
:10394000A3E0FF780812107890108A1210EB901004
:103950008AE0F8A3E0F9A3E0FAA3E0FBC000C0010D
:10396000C002C003901087E0FBA3E0FAA3E0F99047
:103970000005120DE0FFD003D002D001D000EB4FC4
:10398000FFEAFEE9FDE8FC90108A1210EB90110AA4
:1039900074FFF0A3747DF0A374E7F090108AE0FC4C
:1039A000A3E0FDA3E0FEA3E0FF78081210659011EC
:1039B0000D1210EB7B017A10798E1226E27BFF7AD2
:1039C000217910127E01C374109FFFC0077B017A1A
:1039D00010798E12796BC3D0E09FFD7B017A10794C
:0639E0008E7F02127E172B
:0139E60022BE
:107A94007B017A1279D57D067C001277D0E49012AE
:107AA400DBF0A3F090126F7410F07B017A1279D599
:057AB400D2000237952D
:05434900901082EFF06E
:10434E00640B60030244179012DBE064017060306E
:10435E0015137B017A1279D57D06FC1277D0E49085
:10436E0012DCF0804AD39012D6E094009012D5E081
:10437E00940040387B017A1279D77D047C00127745
:10438E007440297B017A1279D5125BDFEFF470024B
:10439E00EEF46005127EB08003127FC47B017A12A8
:1043AE0079D57D067C001277D0D21522027FC4907B
:1043BE0012DBE004F0E05401FFF0E4A3F0EF146030
:1043CE0042046003024493E49012DCF09012D5E0B4
:1043DE00FFA3E0901083CF8024901083E0FEA3E033
:1043EE00FFD39400EE940050030244939012DCE04D
:1043FE0004F07C007D0A120E53901083EEF0A3EFB2
:10440E00F080D6127FA4C21522901082E0640A704A
:10441E006A9012DBE014602804706A9012DCE0D31C
:10442E009400405EE014F09012D5E0FEA3E0FF7C15
:10443E00007D0A120E539012D5EEF0A3EFF08045D8
:10444E00E49012DBF0A3F09012D5E0FFA3E0901001
:10445E0083CF8021901083E0FEA3E0FFD39400EE83
:10446E00940040219012DCE004F07C007D0A120ED4
:10447E0053901083EEF0A3EFF080D9901082E0B449
:10448E000F0302682C901082E0FFC394004052EF9D
:10449E00D39409504C9012DBE070469012DCE0C3CE
:1044AE009404503D9012D5E0FEA3E0FF7C007D0AFF
:1044BE00120E419012D5EEF0A3EFF0901082E0FFB5
:1044CE009012D6E02FF09012D5E03400F09012DC6E
:1044DE00E004F09012D5E07002A3E070049012DCBC
:0C44EE00F07B017A1279D5D200123795CC
:0144FA00229F
:10749F00901084EBF0A3EAF0A3E9F0901084E0F9E8
:1074AF00A3E0FAA3E09010B6C9F0A3EAF0A3E9F0C5
:1074BF00A3E4F0A37404F07B017A1279D712731549
:0B74CF007B017A1279D5D200023795BC
:1075EC007B017A1279D57D0A7C001277D0E4901257
:1075FC00DBF0A3F090126F7411F07B017A1279D743
:10760C007D047C00127774B392007B017A1279D5D9
:03761C000237959D
:05419100901082EFF028
:10419600640B60030242579012DBE06401705830F2
:1041A60016137B017A1279D57D06FC1277D0E4903E
:1041B60012DCF080427B017A1279D77D047C0012F2
:1041C6007774400B7B017A1279D712785380169058
:1041D60012D5E0FEA3E0FFD39400EE940050030254
:1041E6004348127A6F7B017A1279D57D067C0012DC
:1041F60077D0D216027FD49012DBE004F0E05401AF
:10420600FFF0E4A3F0EF1460420460030242D3E43B
:104216009012DCF09012D5E0FFA3E0901083CF80DF
:1042260024901083E0FEA3E0FFD39400EE940050A8
:10423600030242D39012DCE004F07C007D0A120EE9
:1042460053901083EEF0A3EFF080D6127FB4C2161F
:1042560022901082E0640A706A9012DBE0146028F3
:1042660004706A9012DCE0D39400405EE014F09093
:1042760012D5E0FEA3E0FF7C007D0A120E539012D9
