:03000000027F4537
:0C7F4500787FE4F6D8FD758123027F8C64
:10956A0025730044746D66446174613A203078252D
:10957A00623032580D0A005573724B6579202562A4
:04958A00640D0A0062
:094B500042139D000041139F0077
:104D8C007F647E001293F6C2AF30C0FD12753412F0
:104D9C008B09128A0912983812937D1293CE7FE8F0
:104DAC007E031293F61291D2D2AF7F647E001293DF
:104DBC00F6C200126BD31279E07F647E001293F678
:104DCC0012968712981E12932B900CABE0600C7B02
:104DDC00017A0C79B412139412989C900CB3E06085
:104DEC002B9011277401F0A3740EF0A374B4F07B14
:104DFC00FF7A95796A122F177B017A0E79B4900C91
:104E0C00B0E0FCA3E0FD126D061298B5125DEF90B8
:104E1C001389E060427BFF7A95796D901127F0122F
:104E2C002F1790123AE0FF901389E0B5070C9012FF
:104E3C0039E0FDD200E4FF12002690123BE0FF9017
:104E4C001389E0B5070C901239E0FDD2007F0112F6
:104E5C000026E4901389F0201B03024F84C21B121E
:104E6C008C37126E3090139FEFF0F4601E7F11128E
:104E7C008A5F7BFF7A95798190139FE0901127F0E0
:104E8C00122F1790139FE0FF125F72126955129048
:104E9C005212356E12902090139DE475F001120A97
:104EAC00BDFED3E5F094E8EE94035003024F53E4B7
:104EBC0090139DF0A3F0B2811298519011CFE07035
:104ECC0002A3E06025901267E07002A3E0701B90D3
:104EDC001262E07002A3E070119011CF74FFF5F034
:104EEC00120ABD45F0700312932B901243E0641428
:104EFC007021128D06901262E07002A3E060149093
:104F0C00126274FFF5F0120ABD45F0700612986A31
:104F1C0012932B901222E004F0E075F00A84E5F075
:104F2C00F09011CFE07002A3E0701C901243E0648B
:104F3C00017014901241E0B4FF0DA3E0B4FF08908F
:104F4C001222E0FF127B21D39012C0E09400901249
:104F5C00BFE094004022901243E06404701A901257
:104F6C00C0E024FFF09012BFE034FFF0E07002A329
:104F7C00E070057F63121878300B0A901243E064DE
:104F8C00017002C20B201103024DD5120E7E30129D
:104F9C000E7F11128A5F7B017A13796012881412CA
:054FAC00981E024DD526
:108F1F0055415254315F636F6E666967204F4B2125
:108F2F000D0A0055415254335F636F6E66696720B7
:108F3F004F4B210D0A0052657365744B6579546967
:058F4F006D650D0A0034
:104B590041138900411385004113860041138A1FBF
:104B690041138D1F42138B000041138700411388A5
:064B79000042138E000053
:1093F6007C007D07120A56E4FDC3ED9FEC9E5015D6
:10940600E4FBFA0BBB00010AEB646E4A70F50DBD76
:0594160000010C80E4E0
:01941B00222E
:0E9B1C0090114CEFF012928390114CE0FF225A
:0B941C00901124EBF0A3EAF0A3E9F0AC
:10942700E4FF901124E0FBA3E475F001120AD3A92D
:0A943700F0FA1209DC60030F80E870
:019441002208
:1098CE00E4FF1209DC600F0F64D770011F740129C9
:0698DE00F9E43AFA80EC07
:0198E4002261
:0B7262009010D5EBF0A3EAF0A3E9F0D8
:10726D00E49010DBF0A3F0A3F0A3F09010D5E0FBB9
:10727D00A3E0FAA3E0F99010DBE0FEA3E0F5828E27
:10728D00831209F5FF70030273559010D8E0FBA32C
:10729D00E0FAA3E0F91209DC6F600302734190106C
:1072AD00DDF0A3F09010D8E0FBA3E0FAA3E0F99095
:1072BD0010DDE0FEA3E0F5828E831209F56051909A
:1072CD0010DDA3E0FF9010DCE02FFF9010DBE03E1F
:1072DD00FE9010D5E0FBA3E0FAA3E0F98F828E8338
:1072ED001209F5FF9010D8E0FBA3E0FAA3E0F990A6
:1072FD0010DDE0FCA3E0F5828C831209F5B50710D3
:10730D009010DEE004F0709C9010DDE004F08094AD
:10731D009010D8E0FBA3E0FAA3E0F99010DDE0FEB9
:10732D00A3E0F5828E831209F570099010DBE0FE63
:10733D00A3E0FF229010DCE004F06003027278906D
:0C734D0010DBE004F00272787EFF7FFF8E
:017359002211
:10920000901124EBF0A3EAF0A3E9F0ED1DAE047099
:10921000011C4E6016901124E0FBA3E475F00112CE
:0C9220000AD3A9F0FAE4120A2280E0222E
:108C7F009010D0EBF0A3EAF0A3E9F09010D674FFB8
:108C8F00F5F0120AD345F0602A9010D3E0FBA3E46D
:108C9F0075F001120AD3A9F0FA1209DCFF9010D077
:108CAF00E0FBA3E475F001120AD3A9F0FAEF120A60
:048CBF002280C82225
:1091A4009010C5EBF0A3EAF0A3E9F0ED1DAE047056
:1091B400011C4E60179010C5E0FBA3E475F001128A
:0E91C4000AD3A9F0FA1209DC60E1C322D3221B
:1075340090107D74FFF0E490107CF07B017A107958
:107544007C7F011244477B017A10797C7F021244CC
:10755400477B017A10797C7F0312444790107D7435
:1075640060F07B017A10797CE4FF12444790107D2F
:107574007401F0FB7A10797C7F0412444790107DEB
:107584007430F07B017A10797C7F051244479010A7
:107594007D74F3F07B017A10797C7F061244479066
:1075A400107D7448F07B017A10797C7F0712444780
:1075B40090107C7403F0A37413F07B017A10797C2F
:1075C400E4FF12444790107D741AF07B017A10791D
:1075D4007C7F0412444790107D740CF07B017A1078
:1075E400797C7F0512444790107D7437F07B017AD3
:1075F40010797C7F0712444790107D7404F07B015E
:107604007A10797C7F06124447C2F8C2C1D2FAD2FA
:07761400FBD2F9C2C3C284DE
:01761B00224C
:108A090090107C7440F0A37402F0A3120D0C0001C5
:108A1900C2009010837401F0E4A3F0A304F0A3F062
:108A2900E4A3F07B017A10797C7F01121D417BFF61
:108A39007A8F791F122F179010877402F07B017AB1
:108A490010797C7F03121D417F5812922C7BFF7A8B
:068A59008F7932022F1795
:108B0900E490107CF0A3F0A304F0E4A3F0A3F0A395
:108B190074A2F0A37440F0A37401F0FB7A10797C7D
:108B2900E4FF124FB190108174FFF0A37410F07B31
:108B3900017A10797C7F01124FB190108174FDF098
:0F8B4900A37412F07B017A10797C7F04024FB184
:1098380090107E7401F0E490107DF090107CF07B25
:09984800017A10797CFF028655BB
:106E3000901385E01460361460521460631470037C
:106E4000026F1A147003026F2E24056003026F4A4A
:106E500075A0F0E5A054F064F07003026F4A90133F
:106E6000867414F09013857401F0026F4AE5A05403
:106E7000F064F07003026F46901386E014F0600334
:106E8000026F4A9013857402F0026F4AE5A0440F26
:106E900090107CF0E0F5A09013857403F0026F4A27
:106EA00090107CE5A0F075A0F09013857404F0902C
:106EB000107CE0120D496F17776F147B6F117D6F97
:106EC0000E7E6F0BB76F08BB6F05BD6F02BE6EFF06
:106ED000D76EFCDB6EF9DD6EF6DE6EF3E76EF0EB7F
:106EE0006EEDED6EEAEE00006F4A7F04227F08220D
:106EF0007F0B227F0F227F03227F07227F00227FCA
:106F00000E227F02227F06227F0A227F0D227F012E
:106F1000227F05227F09227F0C22E5A054F064F035
:106F200070289013857405F0A37414F0801CE5A0FC
:106F300054F064F060089013857404F0800C901392
:0C6F400086E014F07004901385F07FFFD1
:016F4C002222
:10695500901387E01460400460030269E0A2CDE46F
:106965003325E0FFA2CCE4334F25E0FFA2C0E4339A
:106975004F25E0FFA285E4334F25E0FFA286E433EF
:106985004FFF90138AE06F6052901388741EF09049
:1069950013877401F08044A2CDE43325E0FFA2CC37
:1069A500E4334F25E0FFA2C0E4334F25E0FFA28585
:1069B500E4334F25E0FFA286E4334FFF90138AE0CE
:1069C500B50707E4901387F08011901388E014F061
:1069D5007009901387F090138AEFF090138AE0FF07
:1069E50090138DE0FE6F6075EE5401FEEF5401FFCC
:1069F5006E6018EF7015901239E0FDC200E4FF12C9
:106A050000269011CFE4F0A37405F090138DE054A7
:106A150002FF90138AE05402FE6F6018EE70159025
:106A25001239E0FDC2007F011200269011CFE4F07B
:106A3500A37405F090138DE05404FF90138AE0547D
:106A4500046F6011A37427F0A37410F07BFF7A8F95
:106A55007945122F1790138AE090138DF090138DBE
:106A6500E05404702990138BE07002A3E0601F903E
:106A7500138B74FFF5F0120ABD45F07011D20012A8
:0E6A85006BD3129B0C9011CFE4F0A37405F0BC
:016A930022E0
:10002600748E2FF582E43413F583EDF0EFFD7C003A
:100036007004D2C38008ED64014C7002D284A20021
:05004600920102988305
:1098510090138EE0600614F07002C2C390138FE083
:09986100600614F07002C28422BA
:1000A600000000384492BAFE828244380000000004
:1000B60000000038448282FEBA92443800000000F4
:1000C6000000003854AAAAAAC692443800000000CC
:1000D600000000384482AAF68A82443800000000F4
:1000E6000000000000000000000303000000000004
:1000F6000003030F0F3F3FFFFFFFFF00000000005C
:1001060000000000422418182442000000000000ED
:100116000000003844BAC6AAAAAA54380000000053
:1001260000003C42A599FF99A5423C000000000052
:1001360000000000000000000000000000000000B9
:100146000000183C3C3C1818180018180000000065
:10015600006363632200000000000000000000004E
:1001660000000036367F3636367F36360000000011
:100176000C0C3E6361603E030343633E0C0C0000BF
:1001860000000000006163060C18336300000000E5
:100196000000001C36361C3B6E66663B0000000005
:1001A6000030303060000000000000000000000059
:1001B60000000C18183030303018180C0000000001
:1001C6000000180C0C060606060C0C1800000000B1
:1001D6000000000042663CFF3C6642000000000052
:1001E60000000000181818FF18181800000000007A
:1001F6000000000000000000000018181830000081
:1002060000000000000000FF0000000000000000E9
:1002160000000000000000000000181800000000A8
:1002260000000103070E1C3870E0C08000000000CB
:1002360000003E6363636B6B6363633E0000000014
:1002460000000C1C3C0C0C0C0C0C0C3F00000000BD
:1002560000003E6303060C183061637F0000000057
:1002660000003E6303031E030303633E0000000019
:100276000000060E1E3666667F06060F00000000AA
:1002860000007F6060607E030363733E0000000031
:1002960000001C3060607E636363633E0000000004
:1002A60000007F630306060C0C18181800000000F7
:1002B60000003E6363633E636363633E00000000C9
:1002C60000003E636363633F0303063C00000000D7
:1002D60000000000001818000000181800000000B8
:1002E6000000000000181800000018181830000060
:1002F600000000060C18306030180C0600000000E4
:100306000000000000007E00007E000000000000EB
:100316000000006030180C060C1830600000000069
:1003260000003E6363060C0C0C000C0C0000000081
:1003360000003E63636F6B6B6E60603E0000000002
:100346000000081C366363637F636363000000007C
:1003560000007E3333333E333333337E00000000F8
:1003660000001E33616060606061331E00000000A3
:1003760000007C36333333333333367C00000000E1
:1003860000007F3331343C343031337F00000000CD
:1003960000007F3331343C343030307800000000C8
:1003A60000001E336160606F6363371D000000004C
:1003B6000000636363637F6363636363000000003D
:1003C60000003C18181818181818183C00000000EF
:1003D60000000F06060606060666663C00000000DC
:1003E6000000733336363C36363333730000000074
:1003F60000007830303030303031337F000000007C
:10040600000063777F6B63636363636300000000D0
:1004160000006363737B7F6F6763636300000000A4
:1004260000001C36636363636363361C00000000D0
:1004360000007E3333333E30303030780000000029
:1004460000003E6363636363636B6F3E06070000F1
:1004560000007E3333333E363633337300000000FC
:1004660000003E6363301C060363633E0000000029
:100476000000FFDB991818181818183C0000000037
:1004860000006363636363636363633E00000000AD
:10049600000063636363636363361C080000000047
:1004A600000063636363636B6B7F36360000000096
:1004B6000000C3C3663C18183C66C3C300000000B6
:1004C6000000C3C3C3663C181818183C000000009F
:1004D60000007F6343060C183061637F0000000054
:1004E60000003C30303030303030303C000000000E
:1004F600000080C0E070381C0E07030100000000F9
:1005060000003C0C0C0C0C0C0C0C0C3C000000000D
:10051600081C366300000000000000000000000018
:10052600000000000000000000000000FF000000C6
:1005360018180C0000000000000000000000000079
:1005460000000000003C46063E66663B00000000D8
:1005560000007030303C36333333336E0000000019
:1005660000000000003E63606060633E0000000023
:1005760000000E06061E36666666663B0000000034
:1005860000000000003E63637E60633E00000000E2
:1005960000001C3632307C303030307800000000ED
:1005A60000000000003B666666663E06663C00008C
:1005B6000000703030363B333333337300000000B5
:1005C60000000C0C001C0C0C0C0C0C1E0000000097
:1005D60000000606000E060606060666663C0000D5
:1005E60000007030303333363C3633730000000081
:1005F60000001C0C0C0C0C0C0C0C0C1E000000005B
:1006060000000000006E7F6B6B6B6B6B00000000E0
:1006160000000000006E3333333333330000000034
:1006260000000000003E63636363633E0000000059
:1006360000000000006E333333333E303078000064
:1006460000000000003B666666663E06060F000078
:1006560000000000006E3B333030307800000000B0
:1006660000000000003E63380E03633E00000000F9
:1006760000000818187E181818181B0E0000000035
:1006860000000000006666666666663B00000000C5
:100696000000000000636336361C1C0800000000E2
:1006A60000000000006363636B6B7F360000000090
:1006B600000000000063361C1C1C366300000000AE
:1006C600000000000063636363633F03063C0000B1
:1006D60000000000007F660C1830637F00000000F9
:1006E60000000E18181870181818180E00000000D0
:1006F6000000181818181800181818181800000004
:100706000000701818180E1818181870000000004D
:1007160000003B6E0000000000000000000000002A
:100726000070D8D870000000000000000000000033
:100736000000C6C66676DCCCC6C600000000000017
:100746000000F80C0C0C0C0C0CFE00000000000065
:1007560000007018181818386C66000000000000B9
:100766000000FE0C0C0C0C0C0C0C00000000000031
:1007760000007C060606666666660000000000004D
:1007860000001818181818181818000000000000A3
:1007960000007818303030303030000000000000A3
:1007A6000000FCC6C6C6C6C6C6C6000000000000DD
:1007B6000000CCC6C6C6C6C6C67C00000000000047
:1007C60000001818181800000000000000000000C3
:1007D60000007018181818181818180000000000E3
:1007E60000007C0606060606067C000000000000E7
:1007F600C0C0FC060606060C181800000000000023
:100806000000FC66C6C6C6C6C6FE000000000000A4
:100816000000DC7666C6C6C6C6DC00000000000026
:1008260000001818181818181818181818000000BA
:100836000000380C0C0C0C0C0C3C000000000000F6
:1008460000007C66C6C6C6C6CC7800000000000064
:1008560000006666663636361C7000000000000032
:100866000000F84CCCCCCC6C0C0C0C0C0E00000030
:100876000000FC46C6C6E606867C000000000000B6
:1008860000666C38181818181818000000000000C8
:100896000000EE666634180C06FE0000000000003C
:1008A6000000FC060666646C6E6060600000000076
:1008B6000000F80C0C0C0C0C0C0C000000000000E6
:1008C6000000D6D6D6D6D6F6E67C0000000000009C
:1008D6000000FC6666666666E6E60000000000004C
:104B7F00410CA300410CA000C11742089E00004148
:074B8F000CA1FF410CA2FF85
:10958E007590FFC2C4D2CBD2CA00000000E5905441
:10959E008064807003D38001C39202C2CA000000AF
:0395AE0000A20216
:0195B1002297
:10974F0012958E40FBC2C4C2CBC2CA00008F9000DC
:10975F0000000000000000D2CA00000000C2CA22B0
:0C92AE00E0FBA3E0FAA3E0F91209DCFFEA
:1092BA0012958E40FBD2C4C2CBC2CA8F9000000066
:0E92CA000000000000D2CA00000000C2CA224C
:1091D200C2CA7F3012974F0000000012974F000062
:1091E20000007F0C12974F000000007F0112974F82
:0E91F200000000007F0612974F0000000022D0
:10978F007F0112974F000000007B017A0879A07DBE
:0D979F00007C041292007DFF7FFF029B48BA
:0B838500901124EBF0A3EAF0A3E9F054
:108390002400F9EA3402FAA3EBF0A3EAF0A3E9F02F
:1083A000E4FEEEC394207480948050577F36129779
:1083B0004FEE4480FF12974F7F8012974F7F30120D
:1083C000974FE4FDEDC39410748094805013901186
:1083D000241292AE901125E475F001120ABD0D80B1
:1083E000E37D10EDC3942074809480501390112786
:1083F0001292AE901128E475F001120ABD0D80E3CF
:038400000E809F4C
:018403002256
:107EB400AE077F3612974FEDD394017480948040BF
:107EC40006ED24FEFF8002AF05EFC454F0240F44F6
:107ED40080FF12974FEDD394017480948040047F07
:107EE4000880027F00EEC3132F4480FF12974F7F58
:107EF4003012974FEE30E02175F000EDA4248FF599
:107F040082E5F03409F5832DF583E5822EF582E4CC
:107F14003583F583E0FF1292BA3000047FFF801EA0
:107F240075F000EDA42490F582E5F03409F5832D75
:107F3400F583E5822EF582E43583F583E0FF029232
:017F4400BA82
:1096CB001209DCFF6019640A6015D3EF9480748073
:1096DB0094804002D322740129F9E43AFA80E1C361
:0196EB00225C
:109A9C00900CA3E004F0E05403F0E4900CA0F0224E
:0B654E00901124EBF0A3EAF0A3E9F0A9
:106559001296CB9216901124A3E0FAA3E04A700395
:106569000266AA901124E0FBA3E0FAA3E0F912095C
:10657900DCFF70030266AA640A70030266AA90111E
:1065890028EFF0900CA0E004F0E0D394107480940C
:10659900804003129A9C90112974FFF0A37403F0B0
:1065A900A37426F0901128E0FFC394204072D3EF22
:1065B9009480748094805010E075F010A42436F90A
:1065C90074FF35F0FAA3804F901125E475F001129C
:1065D9000ABD901128E07F00FE901124E0FBA3E0A2
:1065E900FAA3E0F91209DC2FFFE43EFEC3EF949011
:1065F900EE94D7402BD3EF94ABEE94D75022EFC44F
:10660900F8540FC868FFEEC454F048FE74362FF9E9
:10661900748E3EFA90112974FFF0A3EAF0A3E9F011
:10662900900CA0E0600714901127F0800AE4901103
:1066390027F0900CA004F030160A901127E0FFC350
:10664900740F9FF0E4FFEFC394107480948050445A
:10665900901129E0FBA3E0FAA3E0F98F827583008A
:106669001209F5FE900CA3E0C454F02F75F010A4A4
:1066790024A0F582E5F03408F583C083C082901127
:1066890027E0D082D0832582F582E43583F583EE35
:10669900F00F80B2901125E475F001120ABD026570
:0166A9006C84
:0166AA0022CD
:08840400901089EFF0A3EDF0E8
:10840C00EB75F010A424A6F9740035F0FA90108DD9
:10841C0074FFF0A3EAF0A3E9F0E4FFEFC394107447
:10842C00809480504A90108DE0FBA3E0FAA3E0F911
:10843C008F827583001209F5FE90108CE05EFE9021
:10844C001089E0C454F02F75F010A424A0F582E537
:10845C00F03408F583C083C08290108AE0D082D0BB
:0F846C00832582F582E43583F583EEF00F80AC33
:01847B0022DE
:10994100900CA3EFF0900CA0EDF012654E7B017A24
:069951000879A0028385E5
:109A790090108C74FFF01284047B017A0879A0029B
:029A89008385D3
:0A85E2009013A0EFF0A3EDF0AC033E
:1085EC00E4A3F0EC75F00584FCD3940574809480BE
:1085FC0040027C057E01EEC39C500F9013A2E01349
:10860C0013543FF044C0F00E80EC9013A0E0FFA395
:10861C00E0FDECD394007480948040047EFF8002D3
:10862C007E0090108CEEF07B041284049013A0E07A
:10863C00FFA3E004FDA3E090108CF07B05128404F2
:09864C007B017A0879A002838504
:099B4800900CA1EDF0A3EFF02256
:10902000900CA1E0FFF46029A3E0FDF46023900818
:109030009EE475F001120ABDABF0FABA0113BB2C25
:1090400010E490089EF0A3F0A2179200127EB4B232
:029050001722E5
:103211004F4B002B4350494E3A204E4F5420494EBC
:10322100534552544544004552524F52002B43508E
:10323100494E3A205245414459002B4350494E3A98
:10324100204E4F542052454144590025642C256499
:103251000061742B6370696E3F2072657475726EC4
:10326100202562640D0A002B435245473A20002570
:1032710062642C256264004174436D6443625F6340
:103281007265673A202562642C2562640D0A00612B
:10329100742B637265673F2072657475726E2025A9
:1032A10062640D0A002B4353513A20004174436D6F
:1032B1006443625F6373713A202562642C25626402
:1032C1000D0A0061742B6373713F2072657475720E
:1032D1006E202562640D0A0041540D0A0041542BF1
:1032E1004350494E3F0D0A0041542B434F50533D2B
:1032F100300D0A0041542B514346473D226E7773EE
:1033010063616E6D6F6465222C300D0A0041542B90
:10331100435245473F0D0A0041542B4346554E3D0C
:10332100310D0A0041542B515552434346473D222A
:10333100757263706F7274222C22756172743122FE
:103341000D0A0041542B43545A553D310D0A004199
:10335100542B434C49503D310D0A0041542B4347F6
:103361004D520D0A0041542B51544F4E4544455482
:103371003D310D0A0041542B434C564C3D340D0A4E
:103381000041542B4353510D0A0041542B43504FDC
:10339100460D0A0047534D5F5265706F7765720D98
:1033A1000A0047534D5F496E69743A310D0A00476F
:1033B100534D5F4765744373710D0A0041542B43AC
:1033C1004C564C3D2562640D0A0047534D5F5365D1
:1033D10074566F6C756D2028256264293A20257317
:1033E1000D0A00415444003B0D0A0041542B43484F
:1033F10055500D0A0047534D5F496E69743A320DBD
:103401000A0047534D5F496E69743A330D0A00470C
:10341100534D5F496E69743A340D0A0047534D5F4D
:103421004174436D643A256264202D202562640D48
:103431000A00415420636D64206578656375746585
:103441002031306564204661696C203A2025626430
:10345100205B25735D20210D0A0043616C6C4F7563
:103461007454696D653A2025640D0A0041542B435B
:103471004C43430D0A004154410D0A004E4F524D39
:10348100414C20504F57455220444F574E00554E06
:103491004445522D564F4C5441474520504F5745B6
:1034A1005220444F574E004E4F204449414C544FF7
:1034B1004E45004E4F204341525249455200524918
:1034C1004E47002B434C43433A20002B44544D4676
:1034D1003A20002B525844544D463A20002B434F7A
:1034E1004C503A002B51544F4E454445543A002517
:1034F10062642C2562642C25626400434C43433A88
:10350100202562640D0A000D0A2D2D2D2D50614FCD
:1035110070656E2D2D2D2D0D0A0025626400445419
:103521004D463A202562640D0A00FF3214FF32280D
:10353100FF322EFF323BFF3228FF3268FF3228FF75
:1035410032A6FF347DFF348FFF34A8FF34B4FF343B
:10355100BFFF34C4FF34CCFF34D4FF34DEFF34E585
:0D35610041542B5654533D2230220D0A00D8
:104B9600411264FF41126BFFC10BC10CC10A4112E5
:104BA600490041124A0041124B0041124C00411289
:104BB6004D004112BBFF4112BC00604E126DFF3228
:104BC600D9FF8F54FF32DEFF5C69FF32E9FF8F5455
:104BD600FF32F5FF8F54FF330EFF60F0FF3319FFEE
:104BE6008F54FF3325FF8F54FF3344FF8F54FF3319
:104BF60050FF8F54FF335CFF8F54FF3366FF8F5493
:104C0600FF3376FF8F54FF3382FF63E04212670063
:0F4C1600004212650000421262000041126C0061
:108F54009010D874FFF0A37432F0A37411F012725D
:108F640062EFF47002EEF460037F0422901249E091
:108F740004F0C3940A748094804005E4F07FFF22D7
:028F84007F006C
:018F860022C8
:105C6900E490107CF074FFA3F0A3F0E4A3F0A3F098
:105C7900A3F0A3EBF0A3EAF0A3E9F0E4901081F01C
:105C8900901081E0FFC39404748094804003025D06
:105C990052EF75F003A4242BF582E43435F583E43F
:105CA90093F9740193FA7402939010D8C9F0A3EA96
:105CB900F0A3E9F0901082E0FBA3E0FAA3E0F91267
:105CC9007262EFF47002EEF46076901081E0FF7E6C
:105CD9000090107DEEF0A3EFF06401706C90107DE0
:105CE900E0FEA3E090352B75F003120D3DEE75F043
:105CF90003A42583F583E493FB740193FA74029357
:105D0900F912941C7E00901082E0FBA3E0FAA3E054
:105D19002FF9EE3AFA9010D874FFF0A37432F0A379
:105D2900744CF0A37401F0A37410F0A3747FF0A372
:105D39007401F0A37410F0A37480F0123C5680092A
:105D4900901081E004F0025C8990107DE0FEA3E0F0
:105D5900FFEE707BEF146044146068146011240333
:105D6900706D90107C74FFF090126B14F08060904D
:105D7900124AE0C3940A74809480400D90107C7498
:105D8900FFF0E490124AF0800BE490107CF090123E
:105D99004AE004F090126B74FDF0803390124AE0EF
:105DA900C3940A74809480400D90107C74FFF0E4D1
:105DB90090124AF08019E490107CF090124AE004A5
:105DC900F0800C90126B74FCF090107C7404F07BE2
:105DD900FF7A32795290107CE0901127F0122F1738
:055DE90090107CE0FFBA
:015DEE002292
:1060F000E490107CF074FFA3F0A3F0E4A3F0A3F00D
:10610000A3F0A3EBF0A3EAF0A3E9F0E4901081F090
:10611000901081E0FFC39402748094804003026277
:1061200001EF75F003A42437F582E43435F583E4F8
:1061300093F9740193FA7402939010D8C9F0A3EA0A
:10614000F0A3E9F0901082E0FBA3E0FAA3E0F912DB
:106150007262EFF47002EEF470030261F890108343
:10616000EE8FF0120ABD901081E0FF7E0090107D4E
:10617000EEF0A3EFF06401600302620190107DE095
:10618000FEA3E090353775F003120D3DEE75F00378
:10619000A42583F583E493FB740193FA740293F9C5
:1061A00012941C7E00901082E0FBA3E0FAA3E02F83
:1061B000F9EE3AFA9010D874FFF0A37432F0A37499
:1061C00070F0A37401F0A37410F0A3747FF0A374B3
:1061D00001F0A37410F0A37480F0123C567BFF7A98
:1061E00032797890107FE0901127F0901080E09045
:1061F0001128F0122F178009901081E004F002613D
:106200001090107DE0FEA3E0FFEE704AEF146012E4
:1062100004704390124BE0C3941474809480402B1C
:10622000801C901080E06401700790107C740480E2
:106230001290124BE0C3941474809480400D90101F
:106240007C74FFF0E490124BF0800BE490107CF033
:1062500090124BE004F07BFF7A32799090107CE052
:0C626000901127F0122F1790107CE0FF27
:01626C00220F
:1063E000E490107CF074FFA3F0A3F0E4A3F0A3F01A
:1063F000A3F0A3EBF0A3EAF0A3E9F0C20AE4901043
:1064000081F0901081E0FFC3940274809480400377
:106410000264F3EF75F003A4243DF582E43435F50E
:1064200083E493F9740193FA7402939010D8C9F03D
:10643000A3EAF0A3E9F0901082E0FBA3E0FAA3E066
:10644000F9127262EFF47002EEF470030264EA90E3
:106450001083EE8FF0120ABD901081E0FF7E009055
:10646000107DEEF0A3EFF0640160030264F390107E
:106470007DE0FEA3E090353D75F003120D3DEE7515
:10648000F003A42583F583E493FB740193FA74026B
:1064900093F912941C7E00901082E0FBA3E0FAA313
:1064A000E02FF9EE3AFA9010D874FFF0A37432F0AE
:1064B000A37470F0A37401F0A37410F0A3747FF0C0
:1064C000A37401F0A37410F0A37480F0123C567B07
:1064D000FF7A3279AD90107FE0901127F090108014
:1064E000E0901128F0122F178009901081E004F03D
:1064F00002640290107DE0FEA3E0FFEE7039EF141D
:10650000602504703290124CE0640A700D90107C8B
:1065100074FFF0E490124CF0801DE490107CF09039
:10652000124CE004F0801090107FE090126BF0D2DB
:106530000B90107C7404F07BFF7A3279C490107C4D
:0D654000E0901127F0122F1790107CE0FF63
:01654D00222B
:108F87009010D874FFF0A37432F0A37411F012722A
:108F970062EFF47002EEF460037F042290124DE05A
:108FA70004F0C3940A748094804005E4F07FFF22A4
:028FB7007F0039
:018FB9002295
:1095B2007BFF7A33798B128FED901264740AF090EC
:1095C20012697407F0A374D0F0D20B7BFF7A33795F
:0495D20095022F17B8
:10968700D2F89012697403F0A374E8F0901264742E
:1096970001F090126B74FFF0D20BFB7A3379A302BF
:0296A7002F177B
:1092D800901264E0640760219012697403F0A3742B
:1092E800E8F09012647404F09012BB740CF0D20A87
:0A92F8007BFF7A3379B0122F1722A2
:10828200901088EFF09012697403F0A374E8F090F4
:1082920012647404F09012BB740BF090112774FFF7
:1082A200F0A37433F0A374BDF0A3EFF07B017A1254
:1082B200794E122F119012BBE0FF75F006A4246DC7
:1082C200F582E43412F5837401F0A37412F0A374FE
:1082D2004EF0901088E0901127F0EF75F006A4247C
:1082E2006DF582E43412F583E0F9A3E0FAA3E0909D
:1082F2001128C9F0A3EAF0A3E9F07BFF7A3379CB26
:03830200022F1730
:1088E600901096EBF0A3EAF0A3E9F0901264E0FF93
:1088F60064056008EF64096003300A467BFF7A333B
:1089060079E4128FED901096E0FBA3E0FAA3E0F96C
:10891600128FED7BFF7A3379E8128FED901236E0F5
:10892600FF901267E4F0A3EFF0A37403F0A374E8DA
:10893600F09012647406F0C20CE490126CF0D280CF
:04894600D322C32253
:10986A00D2807BFF7A3379EC128FED901264740503
:09987A00F0E4901262F0A3F02268
:10356E00901264E0B40B0040030238A6903581F847
:10357E002828730235C90235DD02360902363502B6
:10358E0036AE02373C0237500237DF02383D023882
:10359E00560235A290126974FFF5F0120ABD45F07D
:1035AE0060030238A6C2F8901269743AF0A37498B8
:1035BE00F0E4901264F09012BCF02290126974FF45
:1035CE00F5F0120ABD45F060030238A60296879008
:1035DE00126974FFF5F0120ABD45F060030238A6B9
:1035EE00D2C19012697404F0A374B0F09012647496
:1035FE0002F07BFF7A3379F602370A90126974FF74
:10360E00F5F0120ABD45F060030238A6C2C1901251
:10361E00697402F0A37458F09012647403F07BFF87
:10362E007A34790302370A90126974FFF5F0120AA0
:10363E00BD45F060030238A69012647404F0E49065
:10364E0012BBF0A3F090112774FFF0A37433F0A314
:10365E0074BDF090123CE090112AF07B017A127941
:10366E004E122F119012AF7401F0A37412F0A374C6
:10367E004EF09012BBE075F006A4246DF582E43492
:10368E0012F583E0FBA3E0FAA3E0F9128FED90129E
:10369E00697407F0A374D0F07BFF7A347910805CE4
:1036AE0090126974FFF5F0120ABD45F060030238FE
:1036BE00A69012BCE004F0C394157480948090120E
:1036CE00BBE0503B75F006A4246DF582E43412F590
:1036DE0083E0FBA3E0FAA3E0F9128FED9012697478
:1036EE0007F0A374D0F07BFF7A34791D9012BBE003
:1036FE00901127F09012BCE0901128F0022F179035
:10370E001127F075F006A4246DF582E43412F583CA
:10371E00E0F9A3E0FAA3E0901128C9F0A3EAF0A320
:10372E00E9F07BFF7A347933122F170295B290129B
:10373E006974FFF5F0120ABD45F060030238A60267
:10374E0092D890126974FFF5F0120ABD45F060032D
:10375E000238A69012697403F0A374E8F07BFF7A26
:10376E0034795B901267E0FFA3E0901127CFF0A3AE
:10377E00EFF0122F1790126774FFF5F0120ABD4585
:10378E00F0704512986AE4901262F0A3F090124421
:10379E00E075F00CA42409F9741235F0FA7B0112CD
:1037AE00941CD3EF94007480948040109012647433
:1037BE0009F0901267E4F0A37402F022129ACC90F2
:1037CE0011CFE4F0A37405F07BFF7A34796D028F8C
:1037DE00ED90126974FFF5F0120ABD45F060030218
:1037EE0038A69012697403F0A374E8F09012657411
:1037FE00FFF5F0120ABD45F060030238A67BFF7A92
:10380E00347977128FED9012437414F09012647421
:10381E0008F0C280901233E0FFA3E0901262CFF066
:10382E00A3EFF090123CE0FF901221F00282829002
:10383E00126974FFF5F0120ABD45F0705B901269C3
:10384E007403F0A374E8F02290126974FFF5F0127D
:10385E000ABD45F070429012697403F0A374E8F04B
:10386E0090126774FFF5F0120ABD45F0702A90129F
:10387E0044E0C39402748094805017E004F07B01FE
:10388E007A1179D1E0FD12735A50E39012437413FA
:09389E00F02212986A12932B2209
:102AA10074FF90107FF0A3F0E4A3F0A3F0A3EBF088
:102AB100A3EAF0A3E9F0E4901081F0A3F090108173
:102AC100E0FEA3E0FFC3940AEE64809480505F901F
:102AD100354375F003EF120D3DEE75F003A4258328
:102AE100F583E493F9740193FA7402939010D8C9B1
:102AF100F0A3EAF0A3E9F0901083E0FBA3E0FAA3CE
:102B0100E0F9127262EFF47002EEF460119010813C
:102B1100E0FFA3E090107FCFF0A3EFF080109010C2
:102B210082E004F07097901081E004F0808F9010A3
:102B31007FE0FEA3E0FFEE6003022EABEFB40A00DC
:102B41004003022EAB902B4DF8282873022B6B0209
:102B51002B6B022B6B022B8D022BCE022BF0022D45
:102B610029022D6B022EAB022E0D901264E0FF6440
:102B710006600AEF64086005EF6409700C129AECB4
:102B81009011CFE4F0A37405F00295B2901264E0C5
:102B91006406702B901244E075F00CA42409F974BA
:102BA1001235F0FA7B0112941CD3EF9400748094D7
:102BB10080400C9012647409F0901267E4802790B1
:102BC1001264E064097003022EAB022D239012649B
:102BD100E064077003022EAB7407F0901235E064D5
:102BE100017009901265F0A37402F02202986A90B4
:102BF1003552E493F9740193FA7402939010D8C991
:102C0100F0A3EAF0A3E9F0901083E0FBA3E0FAA3BC
:102C1100E0F9127262901081EEF0A3EFF090108152
:102C2100E0F47003A3E0F47003022EAB903552E49C
:102C310093FB740193FA740293F912941C9010821D
:102C4100E02FFF901081E034009010848FF0120A81
:102C5100BD9010D874FFF0A37434F0A374F0F0A306
:102C61007401F0A37410F0A37481F0A37401F0A3B4
:102C71007410F0A37486F0A37401F0A37410F0A390
:102C81007487F0901083E0FBA3E0FAA3E0F9123C13
:102C9100567BFF7A3479FC901087E0901127F0126F
:102CA1002F17901087E070319012437414F0901236
:102CB100647408F0E4901267F0A3F0901233E0FF1F
:102CC100A3E0901262CFF0A3EFF090123CE0FF90EE
:102CD1001221F0128282C28022901087E064037078
:102CE1002B200C0FD20C901236E0FF901267E4F00B
:102CF100A3EFF090126CE004F064056003022EABC8
:102D01007BFF7A357908122F17C28022901087E055
:102D110064066003022EAB901264E0640970030242
:102D21002EAB12986A02932B903555E493F97401F6
:102D310093FA7402939010D8C9F0A3EAF0A3E9F0D2
:102D4100901083E0FBA3E0FAA3E0F9127262901005
:102D510081EEF0A3EFF0901081E0F47003A3E0F4B2
:102D61007003022EAB9035558040903558E493F9AD
:102D7100740193FA7402939010D8C9F0A3EAF0A3F6
:102D8100E9F0901083E0FBA3E0FAA3E0F91272628C
:102D9100901081EEF0A3EFF0901081E0F47003A3A6
:102DA100E0F47003022EAB903558E493FB74019369
:102DB100FA740293F912941C901082E02FFF901084
:102DC10081E034009010848FF0120ABD9010D87405
:102DD100FFF0A37435F0A3741BF0A37401F0A37486
:102DE10010F0A37487F0901083E0FBA3E0FAA3E056
:102DF100F9123C56901087E0FE24D0901389F07BA5
:102E0100FF7A35791F901127EE022EA790355EE4E7
:102E110093F9740193FA7402939010D8C9F0A3EA5C
:102E2100F0A3E9F0901083E0FBA3E0FAA3E0F9122C
:102E31007262901081EEF0A3EFF0901081E0F470D7
:102E410003A3E0F4606490355EE493FB740193FAAC
:102E5100740293F912941C901082E02FFF9010815C
:102E6100E034009010848FF0120ABD9010D874FFE6
:102E7100F0A37435F0A3741BF0A37401F0A37410D4
:102E8100F0A37487F0901083E0FBA3E0FAA3E0F9CC
:102E9100123C56901087E024D0901389F07BFF7A82
:0A2EA10035791F901127F0122F174A
:012EAB002204
:0B6D060090107CEBF0A3EAF0A3E9F092
:106D110090107CE0FBA3E0FAA3E0F9AE04AF058F8D
:106D2100828E83E4120A34901264E06404600302E8
:106D31006E219012BBE0FFC3940D748094804003D8
:106D4100026E21EF75F006A42470F582E43412F589
:106D510083A3E0FAA3E04A7003026E2F90107CE057
:106D6100FBA3E0FAA3E0F9C0029012BBE075F006C4
:106D7100A42470F582E43412F583A3E0FAA3E0F5CC
:106D8100828A83D002120D73EF24FC600B2405600C
:106D91007324FE6003026E2FE49012BCF09012BBCC
:106DA100E004C3940D74809480503FE004F0E075DA
:106DB100F006A4246DF582E43412F583E0FBA3E030
:106DC100FAA3E0F9128FED9012697403F0A374E84D
:106DD100F07BFF7A34791D9012BBE0901127F0907F
:106DE10012BCE0901128F0022F179012697427F05D
:106DF100A37410F09012647405F0901243E06414CF
:106E0100702C8008901243E0641470119012697420
:106E110003F0A374E8F09012647408F0220295B2B2
:0E6E210090107CE0FBA3E0FAA3E0F9122AA196
:016E2F002240
:0592580090107EEFF014
:10925D00787F7C107D017BFF7A3579617E007F0DF3
:10926D001209B690107EE02430901087F07B017AC1
:06927D0010797F028FED65
:1071650025732562643A002575002573257300256E
:1071750073257500446F776E6C6F6164204E616D89
:10718500656C697374204572723A28206E6F74209D
:10719500696E2073657474696E672029210D0A0074
:1071A500433A002564005265764E616D656C6973DE
:1071B5007428436E743A2564290D0A00523A002555
:1071C500753B004E3A0054313A0054323A0054337C
:1071D5003A004964783A25642D282564293B2052D4
:1071E5003A25753B204E3A25733B2054313A257399
:1071F5003B2054323A25733B2054333A25733B0DDB
:107205000A00446F776E6C6F6164204E616D656C2A
:10721500697374204F4B21202328257529230D0AD6
:1072250000446F776E6C6F6164204E616D656C69AB
:107235007374204572723A28257523257529210D09
:107245000A00969798939495909192A09FA19C9EE1
:0D7255009D999B9AA8A9AAA6A5A7A2A4A3EB
:104C25004113110041131200C11A4212BF00004185
:074C350012BE004112BDFF99
:10961E00C3742B9429FF74129412CF2480CF34007C
:10962E00FE7B017A12792B90112AE4F0A37402F0DA
:03963E0002805C4B
:0A000E00E490122BF0A3F002961EFE
:109A2D00D390122CE0946490122BE094004003121A
:039A3D00000E22F6
:0B8DC9009010D5E0FBA3E0FAA3E0F956
:0B8DD400901122EBF0A3EAF0A3E9F0FD
:108DDF007C007D50120A56E42FFFEE3401FE9011F5
:108DEF0022E0FBA3E0FAA3E0F990112AE4F0A374C8
:058DFF0050F002805C51
:0B90E600901122EBF0A3EAF0A3E9F0E8
:1090F1007C007D50120A56E42FFFEE3401FE9011E0
:1091010022E0FBA3E0FAA3E0F990112AE4F0A374B2
:0591110050F002894A44
:0B8BA5009010D0EBF0A3EAF0A3E9F081
:108BB00074FFA3F0A3F07D011281FD9010D3EEF0BD
:108BC000A3EFF0F47002EEF4601F9010D3E0FEA368
:108BD000E0FF9010D0E0FBA3E0FAA3E0F91290E6EA
:0D8BE0009010D3E0FEA3E0FF227EFF7FFF98
:018BED002265
:0B84F4009010D5EBF0A3EAF0A3E9F034
:1084FF0074FFA3F0A3F0120AE9FFAEF07D01128121
:10850F00FD9010D8EEF0A3EFF0F47002EEF46014CB
:10851F009010D8E0FEA3E0FF128DC99010D8E0FEB6
:10852F00A3E0FF2290122BE0FEA3E0FFC39464EEC2
:10853F0094005023128DC990122CE004F070069015
:10854F00122BE004F012961E90122CE024FFFF90E5
:0B855F00122BE034FFFE227EFF7FFFA6
:01856A0022EE
:0886C7009010D0EEF0A3EFF0DB
:1086CF0090122BE0FCA3E0FDD39FEC9E4058ED24CD
:1086DF00FFFFEC34FFFE9010D0E0B50616A3E0B517
:1086EF00071190122CE024FFF090122BE034FFF0D2
:1086FF0002961E90122CE024FFF090122BE034FF14
:10870F00F012961E90122BE0FEA3E0FF7B017A1071
:10871F0079D21290E69010D0E0FEA3E0FF7B017AB1
:06872F001079D2128DD476
:018735002221
:109A8B007D011281FDEFF47002EEF460031286C7C4
:019A9B0022A8
:0B41CA009010D0EBF0A3EAF0A3E9F0A6
:1041D50012978F2000030242C1E4901123F0901141
:1041E50023E0FFC394037480948040030244469007
:1041F500112774FFF0A37471F0A37465F0A374FF25
:10420500F0A37422F0A3747CF0EF04A3F07B017A91
:104215001079D3122F11901123E004FF7B017A103E
:1042250079D3E4FD1299419010D0E0FBA3E0FAA305
:10423500E0242CF9E43AFA901123E075F00CA42956
:10424500F9EA35F0FA12941CC0077B017A1079D38C
:104255001298CEC374109FD007C39FFD9010D0E075
:10426500FBA3E0FAA3E0242CF9E43AFA901123E049
:1042750075F00CA429F9EA35F0FAE004FF1299412A
:10428500901123E02402FF901311E06F7025901226
:1042950043E0FF64046005EF640570177B017A1045
:1042A50079D31298CEC3740F9FFD901123E004FFBC
:1042B500129B48901123E004F00241E39010D0E0F6
:1042C500FBA3E0FAA3E0F9120AE9D39400E5F09420
:1042D5000050030243627BFF7A227964E4FD7F018B
:1042E50012994190112774FFF0A37471F0A3746CB7
:1042F500F09010D0E0FBA3E0FAA3E0F9120AE9FF81
:1043050090112AE5F0F0A3EFF07B017A1079D31232
:104315002F117BFF7A2279641298CEC374109FFF08
:10432500C0077B017A1079D312941CC3D0E09FFD9E
:104335007B017A1079D37F01129941901311E070B6
:104345004C901243E0FF64046005EF6405703E7B0A
:10435500FF7A2279641298CEC3740F80297BFF7A85
:10436500227964E4FD7F01129941901311E0701DDB
:10437500901243E0FF64046005EF6405700F90132D
:1043850012E0FFC3740A9FFD7F01129B489011271D
:1043950074FFF0A37471F0A3746FF0A374FFF0A31E
:1043A5007422F0A37476F09010D0E0FBA3E0FAA39A
:1043B500E02402F9E43AFA90112DEBF0A3EAF0A318
:1043C500E9F07B017A1079D3122F117B017A1079EC
:1043D500D3E4FD7F02129941901311E064017061ED
:1043E500901243E0FF64046005EF6405705390107C
:1043F500D0E0FBA3E0FAA3E02402F9E43AFA12982C
:10440500CE901123EFF0E0FF9012BFE07002A3E021
:104415007003FE80027E01C3EF9E901123F0D394BA
:104425000C74809480500BE0FFC3740C9FFD7F02D9
:10443500800C901123E0FFC3741C9FFD7F03129B2A
:01444500482E
:014446002253
:109442007B017A1279C17D507C00129200E4901364
:1094520011F0A3F09012437404F07B017A1279C1E7
:05946200C2000241CA36
:1077CD00901311E014605124FC400302786C700397
:1077DD000278872405600302788CE4901311F0A3DE
:1077ED00F09012C1E0FFA3E090107ECF80249010A6
:1077FD007EE0FEA3E0FFD39400EE940050030278E8
:10780D008C901312E004F07C007D0A120A6890102F
:10781D007EEEF0A3EFF080D69012C1E0FEA3E0FF64
:10782D0090107EEEF0A3EFF07B017A107980128B31
:10783D00A5EFF47002EEF4601E9010D37401F0A366
:10784D007410F0A37480F0A3E4F0A37450F07B01E6
:10785D007A1279C1128C7F7B017A1279C3801290D2
:10786D001311E075F00CA424D5F9741235F0FA7BE0
:0F787D000112941C901312EFF022129AACC21A4F
:01788C0022D9
:0518780090107DEFF06F
:10187D00640B6003021918901311E0640570663053
:10188D001A137B017A1279C17D50FC129200E490FB
:10189D001312F08050D39012C2E094009012C1E068
:1018AD009400403B7B017A1279ED12941CD3EF9496
:1018BD00007480948040287B017A1279C11284F4DF
:1018CD00EFF47002EEF460051299DB8003129ACCEE
:1018DD007B017A1279C17D507C0012920080031237
:1018ED009ACCD21A22901311E004F0E075F0068420
:1018FD00E5F0F01277CDE49012BEF0A3F0A3F090D6
:10190D001311E064056003021ABF2290107DE0649C
:10191D000E7019901311E0C39404748094805005D7
:10192D00E004F08027E4901311F0802090107DE00A
:10193D00640D701E901311E0D39400748094804058
:10194D0005E014F080069013117404F01277CD02A7
:10195D001AB690107DE0640A6003021A7890131194
:10196D00E014604024FC4003021A367003021A6E24
:10197D0024056003021A76901312E0D3940074804C
:10198D009480401DE014F09012C1E0FEA3E0FF7CB6
:10199D00007D0A120A689012C1EEF0A3EFF0021A50
:1019AD0076021A809012BFE07002A3E0706190136E
:1019BD0012E0FF24C3F582E43412F583E07050D3B6
:1019CD00EF940074809480403E901312E024C3F590
:1019DD0082E43412F583E4F0901312E014F0E0FF8A
:1019ED0024C3F582E43412F583E0D394807480949B
:1019FD0080401C74C32FF582E43412F583E4F0901B
:101A0D001312E014F08008E4901311F01277CD90CA
:101A1D001312E0FF24C3F582E43412F583E4F0746D
:101A2D00C42FF582E43412802B901312E0D394006E
:101A3D00748094804024E014F0E0FF901311E07561
:101A4D00F00CA424D5F582E43412F583E5822FF54C
:101A5D0082E43583F583E4F0800F901311E0148058
:101A6D0004E4901311F01277CD803E90107DE06468
:101A7D000F7003027FD190107DE06463703490137A
:101A8D0011E06401702CA3E024C3F582E43412F557
:101A9D0083E0601ED394807480948040069013126E
:101AAD00E004F0901312E004F0E49012BEF0A3F005
:101ABD00A3F090107DE0FF7E00C3748094805003EE
:101ACD00021D1CD3EF9409748094804003021D1CE9
:101ADD00901311E014605E24FC4003021CE4240505
:101AED006003021D1C901312E0C394047480948053
:101AFD00502F9012C1E0FEA3E0FF7C007D0A120A78
:101B0D00569012C1EEF0A3EFF090107DE0FF901211
:101B1D00C2E02FF09012C1E03400F0901312E004F7
:101B2D00F09012C1E07002A3E06003021D1C90133F
:101B3D0012F0021D1C7B017A1279C31298CEC3EFED
:101B4D00941474809480401C9012BFE07002A3E046
:101B5D007003021D4090107DE0FF9012BDE06F609C
:101B6D0003021D4090107DE0FF9012BDE06F602AD2
:101B7D00901312E024C3F582E43412F583E0601A69
:101B8D00D39480748094804006901312E004F090FA
:101B9D001312E004F0E49012BEF0EF700B9012BE41
:101BAD00E09021EB93021C909012BEE0FFFD7C00B3
:101BBD00C3940374809480503B901312E0FE24C3B1
:101BCD00F582E43412F58374D7F090107DE075F052
:101BDD0003A42FF582E435F0F583E5822444F582E4
:101BED00E5833472F583E493FF74C42EF582E434F7
:101BFD0012021C9CED64034C7018901312E0FF242C
:101C0D00C4F582E43412F583E4F090107DE02430C5
:101C1D008030901312E0FF24C4F582E43412F58372
:101C2D00E4F09012BEE024FCFE90107DE0F9640912
:101C3D007063EEFD7C00C39402748094805012EEAC
:101C4D002459FE74C32FF582E43412F583EEF0802F
:101C5D006EED64024C7012901312E024C3F582E411
:101C6D003412F583742EF08056EE640570129013C5
:101C7D0012E024C3F582E43412F583742CF0803F16
:101C8D00EE2476FF901312E024C3F582E43412F5AE
:101C9D0083EFF0802AE91475F003A42EFFEED394A0
:101CAD00027480948040047E5E80027E41EF2EFFA0
:101CBD00901312E024C3F582E43412F583EFF09013
:101CCD0012BEE004F0E075F00A84E5F0F0A37403B1
:101CDD00F0A374E8F08038901312E0C3940B748075
:101CED009480502B90107DE02430FF901312E0FE75
:101CFD0004F0901311E075F00CA424D5F582E434B2
:101D0D0012F583E5822EF582E43583F583EFF090AD
:101D1D00107DE09012BDF07B017A1279C190131104
:101D2D00E0D39401748094804003D38001C392006A
:031D3D001241CA86
:011D40002280
:109467007B017A1279C17D507C00129200E490133F
:1094770011F0A3F09012437405F07B017A1279C1C1
:05948700C2000241CA11
:0549100090107DEFF0A6
:10491500640B60030249F7901311E06402702A30BA
:104925001A177B017A1279C17D50FC129200E4902E
:104935001312F0901311F080109012C1E0FEA3E065
:10494500FF129A8BD21A0299DB901311E004F0E062
:1049550075F00384AFF0EFF014604614700302495C
:10496500EE24026003024AC8E4901312F09012C1CB
:10497500E0FFA3E090107ECF802190107EE0FEA3A3
:10498500E0FFD39400EE94004065901312E004F02C
:104995007C007D0A120A6890107EEEF0A3EFF0808D
:1049A500D99012C1E0FEA3E0FF7B017A1079801255
:1049B5008BA5EFF47002EEF4601E9010D37401F035
:1049C500A37410F0A37480F0A3E4F0A37450F07BFB
:1049D500017A1279C1128C7F7B017A1279C3129404
:1049E5001C901312EFF0024AC8129ABCC21A220296
:1049F5004AC890107DE0640A6003024AD3901311FF
:104A0500E014603714607824026003024AC89013EA
:104A150012E0D3940074809480401DE014F090124D
:104A2500C1E0FEA3E0FF7C007D0A120A689012C176
:104A3500EEF0A3EFF0024AC8024ADBE4901311F04E
:104A45009012C3F09012C1E0FFA3E090107ECFF06A
:104A5500A3EFF0E4901312F090107EE0FEA3E0FFC8
:104A6500D39400EE9400405B901312E004F07C00B8
:104A75007D0A120A6890107EEEF0A3EFF080D9E46B
:104A8500901311F09012C3F09012C1E0FFA3E090D3
:104A9500107ECFF0A3EFF0E4901312F090107EE0BB
:104AA500FEA3E0FFD39400EE94004017901312E0AC
:104AB50004F07C007D0A120A6890107EEEF0A3EFE8
:104AC500F080D9E49012BEF0A3F0A3F0800B901013
:104AD5007DE0640F7003027FD190107DE0FF7E00C2
:104AE500C3748094804058D3EF94097480948050A7
:104AF5004E901311E07048A3E0C394047480948031
:104B0500502F9012C1E0FEA3E0FF7C007D0A120A3F
:104B1500569012C1EEF0A3EFF090107DE0FF9012D9
:104B2500C2E02FF09012C1E03400F0901312E004BF
:104B3500F09012C1E07002A3E07004901312F07BB4
:0A4B4500017A1279C1C2001241CAC0
:014B4F002243
:109957009012437406F012978F7BFF7A227949E4BD
:06996700FD7F01029941A1
:1098E500EF24F6600E24FB600A2404700912000EB2
:0798F500029ADC127FD12270
:107FD1009012437403F012978F7BFF7A227911E498
:107FE100FDFF1299417BFF7A22792AE4FD7F01127C
:107FF10099417BFF7A227938E4FD7F021299417B16
:10800100FF7A23793EE4FD7F031299419011277491
:10801100FFF0A37471F0A3746CF090122BE0FFA336
:10802100E090112ACFF0A3EFF07B017A1079D01202
:108031002F117BFF7A23793E1298CEC3740F9FFFD5
:10804100C0077B017A1079D012941CC3D0E09FFD48
:0B8051007B017A1079D07F0302994177
:1096EC00EF24FE601214601224F9601124FB600D4B
:1096FC00240E700C029442029467029957128E7ACF
:01970C00223A
:1096A900D390122CE09F90122BE09E40147B017AFC
:1096B90010797E1290E67B017A10797EC200124100
:0196C900CAD6
:0196CA00227D
:10735A00901081EDF090107EEBF0A3EAF0A3E9F033
:10736A00242CF9E43AFAA3E075F00CA429F9EA35D9
:10737A00F0FA12941CD3EF940074809480500302A4
:10738A00744890107EE0FBA3E0FAA3E0242CF9E411
:10739A003AFAA3E075F00CA429F9EA35F0FA128852
:1073AA00E6400302744612978F90107EE0FBA3E03A
:1073BA00FAA3E02402F9E43AFA12941CEF90112796
:1073CA00703074FFF0A37471F0A37474F0A374FFA7
:1073DA00F0A37424F0A37408F090107EE0FBA3E0FD
:1073EA00FAA3E0F9120AE9FF90112DE5F0F0A3EFF4
:1073FA00803174FFF0A37471F0A3746FF0A374FF6B
:10740A00F0A37424F0A37408F090107EE0FBA3E0CC
:10741A00FAA3E02402F9E43AFA90112DEBF0A3EA78
:10742A00F0A3E9F07B017A107982122F117B017A9D
:0F743A00107982E4FD7F01129941D322C322C34E
:017449002220
:101394009010D2EBF0A3EAF0A3E9F0901243E064DA
:1013A4000260147BFF7A717979122F17900CA7E0F1
:1013B400700302187780F59011CFE4F0A3740FF056
:1013C4009010D874FFF0A37471F0A374A5F090107A
:1013D400D2E0FBA3E0FAA3E0F912726290107CEE73
:1013E400F0A3EFF0F47002EEF4603AE02402FF9010
:1013F400107CE034009010D38FF0120ABD9010D806
:1014040074FFF0A37471F0A374A8F0A37401F0A3A3
:101414007410F0A3747EF09010D2E0FBA3E0FAA362
:10142400E0F9123C567BFF7A7179AB90107EE0FFB5
:10143400A3E0901127CFF0A3EFF0122F17E4901040
:101444007CF0A3F090107EE0FEA3E0FFC390107D3B
:10145400E09FEE6480F890107CE064809840030282
:1014640018249010D874FFF0A37471F0A374C1F021
:101474009010D2E0FBA3E0FAA3E0F912726290109C
:1014840080EEF0A3EFF0F47002EEF470030218079C
:10149400E02402FF901080E034009010D38FF0120B
:1014A4000ABD7B017A1079827D507C0012920090F3
:1014B40010D874FFF0A37471F0A374C4F0A3740182
:1014C400F0A37410F0A37482F09010D2E0FBA3E0B8
:1014D400FAA3E0F9123C569010D874FFF0A374718B
:1014E400F0A374C8F09010D2E0FBA3E0FAA3E0F9F3
:1014F400127262901080EEF0A3EFF0F47002EEF43A
:101504007003021586E02402FF901080E0340090FE
:1015140010D38FF0120ABDE4901080F0A3F0901065
:10152400D2E0FBA3E0FAA3E0F91209DC643B6040DB
:10153400901080E0FEA3E0FFC3942AEE64809480C0
:10154400502E9010D2A3E475F001120AD3A9F0FA38
:101554001209DCFD74842FF58274103EF583EDF0DE
:10156400901081E004F070B6901080E004F080AE3A
:10157400901080E0FEA3E02484F58274103EF5838D
:10158400E4F09010D874FFF0A37471F0A374CBF05E
:101594009010D2E0FBA3E0FAA3E0F912726290107B
:1015A40080EEF0A3EFF0F47002EEF4700302163153
:1015B400E02403FF901080E034009010D38FF012E9
:1015C4000ABDE4901080F0A3F09010D2E0FBA3E0F9
:1015D400FAA3E0F91209DC643B6040901080E0FE5D
:1015E400A3E0FFC3940CEE64809480502E9010D23C
:1015F400A3E475F001120AD3A9F0FA1209DCFD7410
:10160400AE2FF58274103EF583EDF0901081E00466
:10161400F070B6901080E004F080AE901080E0FE90
:10162400A3E024AEF58274103EF583E4F09010D864
:1016340074FFF0A37471F0A374CFF09010D2E0FBA8
:10164400A3E0FAA3E0F9127262901080EEF0A3EF27
:10165400F0F47002EEF470030216DCE02403FF9051
:101664001080E034009010D38FF0120ABDE4901083
:1016740080F0A3F09010D2E0FBA3E0FAA3E0F9120B
:1016840009DC643B6040901080E0FEA3E0FFC3945B
:101694000CEE64809480502E9010D2A3E475F00177
:1016A400120AD3A9F0FA1209DCFD74BA2FF5827478
:1016B400103EF583EDF0901081E004F070B69010C8
:1016C40080E004F080AE901080E0FEA3E024BAF540
:1016D4008274103EF583E4F09010D874FFF0A37484
:1016E40071F0A374D3F09010D2E0FBA3E0FAA3E06E
:1016F400F9127262901080EEF0A3EFF0F47002EE33
:10170400F47003021787E02403FF901080E0340094
:101714009010D38FF0120ABDE4901080F0A3F090E3
:1017240010D2E0FBA3E0FAA3E0F91209DC643B6009
:1017340040901080E0FEA3E0FFC3940CEE6480941C
:1017440080502E9010D2A3E475F001120AD3A9F0B0
:10175400FA1209DCFD74C62FF58274103EF583ED90
:10176400F0901081E004F070B6901080E004F080F6
:10177400AE901080E0FEA3E024C6F58274103EF51E
:1017840083E4F07B017A1079821284F4901080EE65
:10179400F0FCA3EFF0FD90107DE02401FE90107C9E
:1017A400E03400901127F0A3CEF0ED2401FEE43CD8
:1017B400A3F0A3CEF0901082E0FFA3E090112BCF12
:1017C400F0A3EFF0A37401F0A37410F0A37484F0F9
:1017D400A37401F0A37410F0A374AEF0A37401F029
:1017E400A37410F0A374BAF0A37401F0A37410F0FE
:1017F400A374C6F07BFF7A7179D7122F17900CA7C8
:10180400E070FA901080E0F47003A3E0F4601190AB
:10181400107DE004F0700690107CE004F00214489F
:1018240090107EE0FEA3E0FF90107CE0B50617A3C5
:10183400E0B507127BFF7A72790790122BE0FFA3C1
:10184400E0901127801F7BFF7A72792690107CE04C
:10185400FFA3E0901127CFF0A3EFF0901080E0FFFA
:10186400A3E0901129CFF0A3EFF0122F17900CA74B
:03187400E070FA27
:01187700224E
:10996D00AD071FED600FE4FEEEC3946E748094801E
:05997D0050EE0E80F326
:0199820022C2
:10998300D2FB0000000000D2FA0000000000C2FB7E
:06999300000000000022AC
:10999900C2FB0000000000D2FA0000000000D2FB68
:0699A90000000000002296
:089302001299837FA0128CC3B5
:10930A00E4FFD2FA000000000030FB0DEFC394FA2C
:10931A007480948050030F80F0C2FA0000000000AD
:01932A002220
:10008E00D2FBC2FA0000000000D2FA00000000000D
:05009E00C2FAC2FB22C2
:109A4000C2FBC2FA0000000000D2FA0000000000D1
:039A5000C2FA2235
:108CC300E4FEEEC39408748094805028C2FA000036
:108CD300000000EF5480648070028001C392FBEFB8
:108CE30025E0FF0000000000D2FA0000000000C2EF
:108CF300FA0E80CEC2FA0000000000D2FB00000092
:028D030000006E
:018D0500224B
:108EE900C2FA0000000000D2FB0000000000E4FE0E
:108EF900EEC3940874809480501BD2FA00000000DD
:108F090000EF25E0FFA2FBE4334FFFC2FA000000A7
:058F190000000E80DBEA
:018F1E002230
:10805C00901125EEF0A3EFF0A3EBF0A3EAF0A3E967
:10806C00F0C2F9805590112A74FFF5F0120AD3452D
:10807C00F06060901127E0FBA3E475F001120AD3C5
:10808C00A9F0FA1209DCFF128CC312930A90112684
:10809C00E004F07006901125E004F0901126E054F5
:1080AC003F70C2D390112BE0940090112AE0940001
:1080BC0040B31299997F6412996D12930290112515
:1080CC00E0FF128CC312930AA3E0FF128CC312932D
:0B80DC000A80921299997F6402996D4E
:04894A00AD07AC06C3
:10894E00129302ECFF128CC312930AAF05128CC362
:10895E0012930A1299837FA1128CC312930AD39099
:10896E00112BE0940190112AE09400401FA3E02403
:10897E00FFF090112AE034FFF0128EE9EF120A2276
:10898E00129A40740129F9E43AFA80D2128EE9EF74
:0E899E00120A2212008E12999990112CE0FFFD
:0189AC0022A8
:1076FE0054616C6B54696D653A2025750D0A005204
:10770E00696E67496E54733A202562640D0A005201
:10771E00696E674F757454733A202562640D0A00C2
:10772E00546F6E65456E3A202562640D0A00436102
:10773E006D6572614F6E3A202562640D0A005265C6
:10774E00616C7954696D653A202562640D0A0055A5
:10775E006E6C6F636B4B657920313A202562640D38
:10776E000A00556E6C6F636B4B657920323A20259B
:10777E0062640D0A0054616C6B566F6C756D3A2025
:10778E002562640D0A004E616D65436F756E743A25
:10779E002025750D0A00507377436F756E743A206D
:1077AE0025750D0A0043617264436F756E743A203D
:0F77BE0025750D0A00257500257325002573001C
:104C3C00411243014812290000000000000000420C
:104C4C001241FFFF4211CF000041122103411244D7
:104C5C00004212230000411226004112220044128D
:0E4C6C00450000000041122504421227012CD1
:106BD3007B017A12793190112AE4F0A37410F0E466
:106BE300FFFE12894A901231E0B45A08A3E0B4635D
:106BF3000330004B901231745AF0A37463F0A3E492
:106C0300F0A3741EF0A37401F0A3740FF0A3740136
:106C1300F0A3F0A3740AF0A37401F0A304F0A37427
:106C230004F0A3120D0C000A2C2A7B017A1279318D
:106C330090112AE4F0A37410F0E4FFFE12805C7B51
:106C4300FF7A7679FE901233E0FFA3E0901127CF0D
:106C5300F0A3EFF0122F177BFF7A77790D9012359F
:106C6300E0901127F0122F177BFF7A77791D90128E
:106C730036E0901127F0122F177BFF7A77792E9049
:106C83001237E0901127F0122F177BFF7A77793CA8
:106C9300901238E0901127F0122F177BFF7A777943
:106CA3004C901239E0901127F0122F177BFF7A775F
:106CB300795D90123AE0901127F0122F177BFF7A3B
:106CC30077797090123BE0901127F0122F177BFF1A
:106CD3007A77798390123CE0901127F0122F179066
:106CE300123CE0D394057480948040037403F090C5
:106CF300123CE0901221F0901238E06003D2E922B6
:036D0300C2E922C0
:1079E0007B017A12792990112AE4F0A37408F07FC0
:1079F000807E0012894A901229E0645A7004A3E044
:107A00006463602C901229745AF0A37463F0E4A3A9
:107A1000F0A3F0A3F0A3F0A3F0A3F07B017A127916
:107A20002990112AF0A37408F07F807E0012805CF8
:107A30007BFF7A77799490122BE0FFA3E0901127D7
:107A4000CFF0A3EFF0122F177BFF7A7779A4901273
:107A50002DE0FFA3E0901127CFF0A3EFF0122F1736
:107A60007BFF7A7779B390122FE0FFA3E090112784
:107A7000CFF0A3EFF0122F17129A2D129A53029AF9
:017A8000669F
:108AB500ED24FE60171460222402702D7C007D5089
:108AC500120A56E42FFF74013EFE801DEF7802C3A3
:108AD50033CE33CED8F92440800A7C007D06120AB5
:108AE5005674682FFF74203EFE7B017A1079E19061
:108AF500112AE4F0A37402F012894A9010E1E0FE15
:038B0500A3E0FFEB
:018B0800224A
:0B81FD009010DAEEF0A3EFF0A3EDF01D
:10820800E4A3F0A3F0ED24FE600C14600E240270C9
:108218001990122B800890122D800390122FE0FFE6
:10822800A3E09010DFCFF0A3EFF09010DFE0FCA305
:10823800E0FD9010DDE0FEA3E0FFC39DEE9C50350D
:108248009010DCE0FD128AB59010DAE0B5060EA3B6
:10825800E0B507099010DDE0FEA3E0FF22EFF4701F
:1082680002EEF460109010DEE004F070BD9010DDB6
:09827800E004F080B57EFF7FFFF9
:0182810022DA
:10932B009012437401F074FF901241F0A3F0E4909B
:10933B0011CFF0A3F0901222F0901267F0A3F090EF
:09934B001262F0A3F0FF027B2185
:108E7A009012437402F012978F7BFF7A2179F67D64
:108E8A00017F011299417BFF7A22790C7D017F03D0
:108E9A001299417B027D067F03129A79E49012238C
:088EAA00F0A3F0901226F02263
:10887F0012978F7BFF7A227964E4FD7F0112994171
:10888F00901223E0FEA3E0FFD39400EE9400404645
:10889F0090112774FFF0A37477F0A374C3F0A3EEC5
:1088AF00F0A3EFF07B017A10797E122F117BFF7A04
:1088BF002279641298CEC3740F9FFFC0077B017A91
:1088CF0010797E12941CC3D0E09FFD7B017A107942
:0688DF007E7F01129941A9
:0188E5002270
:109146009012437407F07E00901223EEF0A3EFF026
:109156009012267401F0EF7001F012887F7B017A7D
:0F9166001179D17D507C001292007F10027D8D17
:10705B0090107DEFF024F6607C24FB60030271122C
:10706B00901223E0FEA3E0FFD39400EE9400404780
:10707B007B017A1179D1128BA5EFF47002EEF460DB
:10708B0036E4901244F07B017A1179D1FD12735AD8
:10709B0050079012437413F0227B017A1179FD1281
:1070AB00941CEF7005129ACC8003129AEC9011CFBE
:1070BB00E4F0A37405F022129AFC7F04127D8D90EC
:1070CB0011CFE4F0A37405F0E4901223F0A3F09039
:1070DB001226F08032901226E0D3940074809480B4
:1070EB00401FE014F0901223E0FEA3E0FF7C007D34
:1070FB000A120A68901223EEF0A3EFF012887F8039
:10710B000612917512932B90107DE0FFC37480943F
:10711B00804046D3EF940974809480503C901226A3
:10712B00E0C3940474809480502FE004F0901223F9
:10713B00E0FEA3E0FF7C007D0A120A56901223EEBC
:10714B00F0A3EFF090107DE0FF901224E02FF09071
:0A715B001223E03400F012887F22B6
:06793800901245120D0043
:10793E0012978F901243E0640E700C7BFF7A2379BE
:10794E004BFD7F0112994190112774FFF0A37477BC
:10795E00F0A374C6F0A374FFF0A37423F0A3742AEB
:10796E00F07B017A10797E122F11E490109CF0902A
:10797E001226E0FF90109CE0C39F50227BFF7A23DB
:10798E00792A12941C90109CE02F247EF582E43408
:10799E0010F583742AF090109CE004F080D17BFFE8
:1079AE007A23792A12941C90109CE02F247EF58263
:1079BE00E43410F583E4F07B017A10797EFD7F02CA
:1079CE00129941901226E0FFC374099FFD7F0202B7
:0279DE009B48C4
:1097AC00901243740EF0901245120D0C0000000044
:0D97BC00E4901226F012793E7F02027D8DAE
:106F4D0090107DEFF024F6606724FB7003026FEE66
:106F5D0024046003026FF1E4FFFEFDFC901245E096
:106F6D00F8A3E0F9A3E0FAA3E0FBD3120C694027E4
:106F7D00901226E06406701F90123DE0FCA3E0FD28
:106F8D00A3E0FEA3E0FF901245E0F8A3A3A3E01257
:106F9D000C697003028E7A129ACC7F05127D8D904A
:106FAD001245120D0C00000000E4901226F0803402
:106FBD00901226E0D3940074809480401FE014F06A
:106FCD00901245E0FCA3E0FDA3E0FEA3E0FFE47B0F
:106FDD000AFAF9F8120BD7127938800812917580D8
:106FED000012932B90107DE0FFC374809480405D60
:106FFD00D3EF9409748094805053901226E0C3947B
:10700D0006748094805046E004F0901245E0FCA395
:10701D00E0FDA3E0FEA3E0FFE47B0AFAF9F8120B12
:10702D004C901245120D00901245E0F8A3E0F9A323
:10703D00E0FAA3E0FB90107DE0FFE4FCFDFEEB2FFA
:0E704D00FFEE3AFEED39FDEC38FC12793822E8
:1068040090107DEFF024F5601C14601F14602214B6
:10681400605E1470030268DA2405600302693712AB
:10682400932B0269371295D60269371297AC026925
:106834003790122BE0FEA3E0FFD39400EE940050B7
:1068440003026937EF24FFFFEE34FFFEC3901242C8
:10685400E09F901241E09E500EA3E004F0706A9015
:106864001241E004F08062E4901241F0A3F08059F8
:1068740090122BE0FEA3E0FFD39400EE94005003AB
:10688400026937901241E0FCA3E0FD9FEC9E502585
:10689400ED9400EC9400400DE024FFF0901241E0F0
:1068A40034FFF08024EF24FFFFEE34FF901241F018
:1068B400A3EFF0801490122CE024FFFE90122BE042
:1068C40034FF901241F0A3CEF0901241E0FEA3E019
:1068D400FF1296A9805D90122BE0FCA3E0FD9012BC
:1068E40041E0FEA3E0FFC39DEE9C5042E4901244BD
:1068F400F07B017A1179D11290E67B017A1179D17A
:10690400E4FD12735A50089012437413F080247BF0
:10691400017A1179FD12941CEF7005129ACC800350
:10692400129AEC9011CFE4F0A37405F08005E4FF13
:1069340012914690107DE0FF7E00D3940074809401
:1069440080400DD3EF9409748094805003129146D3
:016954002220
:10761C0090107DEFF07E00C374809480406BD3EFAC
:10762C009409748094805061901226E0C394027483
:10763C008094805040E004F0901223E0FEA3E0FF21
:10764C007C007D0A120A56901223EEF0A3EFF09004
:10765C00107DE0FF7E00901224E02FF0901223E0CA
:10766C003EF0D3A3E0940D901223E094005003025B
:10767C0076FDEE800990107DE0FF901223E4F0A3DC
:10768C00EFF09012267401F02290107DE0640F70E0
:10769C0002800890107DE0640A700302932B901016
:1076AC007DE0640B704B901223E0FEA3E0FFC394CB
:1076BC0004EE9400400EEF940CEE94005006EF2470
:1076CC0011FF802A901223E0FEA3E0FFEE7022EF60
:1076DC0014601014601014601024F6600F04701104
:1076EC000294FB027FD10280E70281727F1D12623D
:0276FC006D22FD
:1089AD0090107DEFF07E00C374809480400FD3EF64
:1089BD009409748094805005E0FF02925890107DC8
:1089CD00E024F3601014601E1460042405702C1252
:1089DD00986A02932B901221E0C3940574809480C1
:1089ED005019E004800F901221E0D394017480940B
:0C89FD00804008E014F0E0FF12828222AB
:1051CE0012978F901243E024EBB409004003025370
:1051DE00219051ED75F003A4C58325F0C5837302AC
:1051EE00520802522402524002525C0252AD025246
:1051FE00C80252E30252780252FE90112774FFF059
:10520E00A37477F0A374CAF0A374FFF0A37424F010
:10521E00A3741402531790112774FFF0A37477F040
:10522E00A374CAF0A374FFF0A37424F0A37427022E
:10523E00531790112774FFF0A37477F0A374CAF07C
:10524E00A374FFF0A37424F0A374400253179011BB
:10525E002774FFF0A37477F0A374CAF0A374FFF061
:10526E00A37424F0A3745302531790112774FFF004
:10527E00A37477F0A374CAF0A374FFF0A37424F0A0
:10528E00A3746EF07B017A10797E122F1190122387
:10529E00E07002A3E06004D2E98078C2E9807490E5
:1052AE00112774FFF0A37477F0A374CAF0A374FFF0
:1052BE00F0A37424F0A3747A804F90112774FFF03A
:1052CE00A37477F0A374CAF0A374FFF0A37424F050
:1052DE00A3748B803490112774FFF0A37477F0A31E
:1052EE0074CAF0A374FFF0A37424F0A3749F801902
:1052FE0090112774FFF0A37477F0A374CAF0A3740F
:10530E00FFF0A37423F0A374F2F07B017A10797E80
:10531E00122F11901243E0FF6418600AEF641C60B4
:10532E0005EF641670297B017A10797EE4FD7F010A
:10533E00129941901223E07004A3E064017BFF7088
:10534E00067A2479B380047A2479BC7D0580507B5B
:10535E00017A10797EE4FD7F01129941901223E0CB
:10536E00FEA3E0FFD39400EE940040389011277412
:10537E00FFF0A37477F0A374C3F0A3EEF0A3EFF0E5
:10538E007B017A10797E122F117B017A10797E12B1
:10539E00941CC374109FC313FD7B017A10797E7F1A
:0453AE00021299410D
:0153B20022D8
:10626D00901243EFF024EBB40900400302639590C4
:10627D00628A75F003A4C58325F0C583730262A5F8
:10628D000262C30262DD0262F802632B0263450201
:10629D00635F0263120263799012257403F090120A
:1062AD00277401F0A3742CF0901233E0FFA3E0905B
:1062BD001223CF0263919012257402F0901227E4FD
:1062CD00F0A304F0901235E0FF901223E4026391E5
:1062DD009012257402F0901227E4F0A3745AF090F6
:1062ED001236E0FF901223E402639190122574019F
:1062FD00F0901227E4F0A304F0901237E0FF901213
:10630D0023E40263919012257401F0901227E4F0BA
:10631D00A304F0901238E0FF901223E480669012EF
:10632D00257402F0901227E4F0A37463F0901239F3
:10633D00E0FF901223E4804C9012257401F090122E
:10634D0027E4F0A37409F090123AE0FF901223E4D1
:10635D0080329012257401F0901227E4F0A3740995
:10636D00F090123BE0FF901223E4801890122574F8
:10637D0001F0901227E4F0A37405F090123CE0FFB9
:10638D00901223E4F0A3EFF0E4901226F090122384
:10639D00E0FEA3E0FFD3EF9400EE9400400F9012C7
:1063AD0026E004F07C007D0A120A6880E890124312
:1063BD00E0FF64186014EF641C600FEF641A600A4C
:1063CD00EF641B6005EF641D70069012267401F0DA
:0363DD000251CE9C
:1053B30090107EECF0A3EDF0EF24EBB40900400372
:1053C30002557E9053D475F003A4C58325F0C5839D
:1053D300730253EF02541A02543E0254620254C041
:1053E3000254E302551402549102554690107EE094
:1053F300FFA3E0901233CFF0A3EFF0C374339431E3
:10540300FF74129412FE7B017A12793390112AE40D
:10541300F0A3740202554090107EA3E0901235F081
:10542300C374359431FF74129412FE7B017A12799E
:105433003590112AE4F0A30402554090107EA3E0B6
:10544300901236F0C374369431FF74129412FE7BBB
:10545300017A12793690112AE4F0A30402554090A0
:10546300107EE07002A3E07003FF80027F019012C0
:1054730037EFF0C374379431FF74129412FE7B013B
:105483007A12793790112AE4F0A304025540901060
:105493007EE07002A3E07003FF80027F0190123868
:1054A300EFF0C374389431FF74129412FE7B017AC7
:1054B30012793890112AE4F0A30402554090107E2B
:1054C300A3E0901239F0C374399431FF741294122B
:1054D300FE7B017A12793990112AE4F0A304805DEE
:1054E30090107EE0FEA3E0FFD39400EE94005003FF
:1054F30002557E90123AEFF0743A9431FF7412948D
:1055030012FE7B017A12793A90112AE4F0A3048007
:105513002C90107EE0FEA3E0FFD39400EE940040B5
:105523005A90123BEFF0743B9431FF74129412FEC5
:105533007B017A12793B90112AE4F0A304F01280E4
:105543005C803890107EE0FEA3E0FFD39400EE94DD
:1055530000402890123CEFF0743C9431FF74129495
:1055630012FE7B017A12793C90112AE4F0A304F035
:0E55730012805C90123CE0901221F00299DB55
:105AC80090107DEFF0901226E064637003025B573C
:105AD80090107DE024F5605324FC604D240570721D
:105AE800901243E0FF64186010EF641C600BEF64D1
:105AF800166006901226E0700E901238E06004D20C
:105B0800E98002C2E98048901226E014F09012233E
:105B1800E0FEA3E0FF7C007D0A120A68901223EEE3
:105B2800F0A3EFF01251CE80298024901226E0D302
:105B38009400748094804017901243E0FF901223E1
:105B4800E0FCA3E0FD1253B39012267463F0220226
:105B58008E7A90107DE0FF7E00C37480948050039D
:105B6800025C65D3EF9409748094804003025C65FD
:105B7800901243E0FF6418600AEF641C6005EF644C
:105B88001670129012267401F090107DE0FF9012AA
:105B980023E4025C61901243E0FF641A6005EF643D
:105BA8001B702090107DE0FFD39400748094805087
:105BB80003025C659012267401F07E009012231493
:105BC800025C61901243E0641D702B90107DE0FF31
:105BD800D39400748094805003025C657E00901218
:105BE80028E09F901227E09E40739012267401F0DF
:105BF800901223148063901225E0FFA3E0C39F5006
:105C08005C901223E0FEA3E0FF7C007D0A120A5696
:105C1800901227E0FCA3E0FDC39FEC9E403F90124A
:105C280026E004F0901223EEF0A3EFF090107DE050
:105C3800F92FFFE43EFEC3ED9FEC9E4011E9FF9073
:105C48001224E02FF0901223E03400F0800F90121D
:105C580027E0FFA3E0901223CFF0A3EFF01251CE7C
:015C68002219
:105F720090107CEFF09011CFE4F0A3741EF0901219
:105F820043E014B41D0040030260BF905F9B75F0B4
:105F920003A4C58325F0C58373025FF2025FFD028D
:105FA200600802601302601E0260290260670260DC
:105FB2003402603F02604902605302605D02607B0E
:105FC20002607102608502608F0260990260A30222
:105FD20060AD0260AD0260B70260B70260B70260F6
:105FE200B70260B70260B70260B70260B70260B77B
:105FF20090107CE0FF1268040260BF90107CE0FF0A
:1060020012761C0260BF90107CE0FF1296EC0260D8
:10601200BF90107CE0FF1218780260BF90107CE005
:10602200FF1249100260BF90107CE0FF1298E50257
:1060320060BF90107CE0FF12970D0260BF90107C51
:10604200E0FF12265B807690107CE0FF12590D80F3
:106052006C90107CE0FF1298FC806290107CE0FF54
:106062001266AB805890107CE0FF12705B804E90FD
:10607200107CE0FF126F4D804490107CE0FF123ED6
:10608200EF803A90107CE0FF12972E803090107CC7
:10609200E0FF12574A802690107CE0FF1255818063
:1060A2001C90107CE0FF129913801290107CE0FF8C
:1060B2001289AD800890107CE0FF125AC8D390116B
:1060C200D0E0940A9011CFE094004021901243E076
:1060D200FF640E600FEF640C600AEF64076005EF67
:0E60E200640170099011CFE4F0A3740AF0225B
:1088140090107CEBF0A3EAF0A3E9F0901243E0247B
:10882400F1605724FE60071460502402700E90100B
:108834007CE0FBA3E0FAA3E0F9028E0490107CE054
:10884400FBA3E0FAA3E0F912788DEFF47002EEF4E2
:10885400600E901239E0FDD200E4FF12002680037E
:108864001299F0901243E0FF6414600EEF641360F9
:0B887400099011CFE4F0A37405F0227E
:1095FA00436865636B5073773A25750D0A004164B9
:10960A00645073774974656D20310D0A0025750021
:04961A00257325008F
:0E4C7A004113830041138400C10DC10EC10F10
:10964100C3742D9429FF74129412CF2480CF340057
:10965100FE7B017A12792D90112AE4F0A37402F0B5
:0396610002805C28
:0A9B2A00E490122DF0A3F002964122
:109A5300D390122EE0940A90122DE094004003124A
:039A63009B2A2219
:0B93A600901084E0FBA3E0FAA3E0F9C4
:1093B100EF7802C333CE33CED8F92440FFEE342008
:0D93C100FE90112AE4F0A37404F002805C19
:1097C900EF7802C333CE33CED8F92440FFEE3420EC
:0D97D900FE90112AE4F0A37404F002894A06
:0B8BEE00901398EBF0A3EAF0A3E9F06D
:108BF90074FFA3F0A3F07D021281FD90139BEEF0A8
:108C0900A3EFF0F47002EEF4601F90139BE0FEA353
:108C1900E0FF901398E0FBA3E0FAA3E0F91297C9EB
:0D8C290090139BE0FEA3E0FF227EFF7FFF83
:018C3600221B
:08847C0090107EEEF0A3EFF07A
:10848400E4A3F0A3F07BFF7A9579FA901127EEF03C
:10849400A3EFF0122F1790122DE07002A3E07002E8
:1084A400C322E4901080F0A3F090122DE0FCA3E02E
:1084B400FD901080E0FEA3E0FFC39DEE9C502F7B57
:1084C400017A1079821297C990107EE0FEA3E0FF32
:1084D400901084E0B50607A3E0B50702D3229010FC
:0F84E40081E004F070C3901080E004F080BBC30F
:0184F3002266
:0B830500901084EBF0A3EAF0A3E9F075
:1083100074FFA3F0A3F0120AE9FFAEF07D02128110
:10832000FD901087EEF0A3EFF0F47002EEF4601D04
:108330007BFF7A967908122F17901087E0FEA3E052
:10834000FF1293A6901087E0FEA3E0FF2290122D6B
:10835000E0FEA3E0FFC3940AEE940050231293A61C
:1083600090122EE004F0700690122DE004F01296A8
:108370004190122EE024FFFF90122DE034FFFE22E8
:048380007EFF7FFFFE
:0183840022D6
:08873600901082EEF0A3EFF0B9
:10873E0090122DE0FCA3E0FDD39FEC9E4058ED245B
:10874E00FFFFEC34FFFE901082E0B50616A3E0B5F5
:10875E00071190122EE024FFF090122DE034FFF05E
:10876E0002964190122EE024FFF090122DE034FF7D
:10877E00F012964190122DE0FEA3E0FF7B017A10DD
:10878E0079841297C9901082E0FEA3E0FF7B017AF4
:06879E001079841293B172
:0187A40022B2
:08948C00901080EEF0A3EFF058
:109494008013EFF47002EEF460121287369010809D
:0C94A400E0FEA3E0FF7D021281FD80E6E7
:0194B0002299
:0838A7007B017A137979D2004C
:0B38AF00901084EBF0A3EAF0A3E9F016
:1038BA0012978F901243E0640D700E7BFF7A237982
:1038CA004BFDFF129941023975901243E0640C7066
:1038DA0003023975901084E0FBA3E0FAA3E0F91221
:1038EA000AE9D39400E5F094007BFF7A22796FE429
:1038FA00FD7F01405A12994190112774FFF0A37479
:10390A0096F0A37417F0901084E0FBA3E0FAA3E00A
:10391A00F9120AE9FF90112AE5F0F0A3EFF07B0112
:10392A007A107987122F117BFF7A22796F1298CE3B
:10393A00C374109FFFC0077B017A10798712941C09
:10394A00C3D0E09FFD7B017A1079877F0180001246
:10395A009941901383E070137BFF7A22796F129852
:10396A00CEC3740F9FFD7F01129B48200003023BC8
:10397A00CC901084E0FBA3E0FAA3E0F990000212D5
:10398A000CA0E4FBFAF9F8C3120C694003023A6985
:10399A0090112774FFF0A37496F0A3741AF0A3741D
:1039AA00FFF0A37423F0A3742AF00B7A107987121C
:1039BA002F1190137BE0FCA3E0FDA3E0FEA3E0FF40
:1039CA009010A8120D00E49010A7F0E4FFFEFDFC91
:1039DA009010A8E0F8A3E0F9A3E0FAA3E0FBD31261
:1039EA000C69403F7BFF7A23792A12941C9010A716
:1039FA00E02F2487F582E43410F583742AF09010BE
:103A0A00A8E0FCA3E0FDA3E0FEA3E0FFE47B0AFA42
:103A1A00F9F8120BD79010A8120D009010A7E00425
:103A2A00F080A87BFF7A23792A12941C9010A7E0D1
:103A3A002F2487F582E43410F583E4F07B017A10B1
:103A4A007987FD7F02129941901243E0640D600468
:103A5A007F0180027F00901383E06F703780227BA2
:103A6A00FF7A23792AE4FD7F02129941901243E0FA
:103A7A00640D60047F0180027F00901383E0B50724
:103A8A00137BFF7A23792A1298CEC3740F9FFD7F86
:103A9A0002129B48901243E0640C7003023BCC90E4
:103AAA001084E0FBA3E0FAA3E0F9900006120CA050
:103ABA00E4FBFAF9F8C3120C694003023B97901130
:103ACA002774FFF0A37496F0A3741AF0A374FFF09E
:103ADA00A37423F0A37436F00B7A107987122F118E
:103AEA0090137FE0FCA3E0FDA3E0FEA3E0FF9010AB
:103AFA00A8120D00E49010A7F0E4FFFEFDFC901060
:103B0A00A8E0F8A3E0F9A3E0FAA3E0FBD3120C695A
:103B1A00403F7BFF7A23793612941C9010A7E02F3E
:103B2A002487F582E43410F583742AF09010A8E013
:103B3A00FCA3E0FDA3E0FEA3E0FFE47B0AFAF9F8A8
:103B4A00120BD79010A8120D009010A7E004F08075
:103B5A00A87BFF7A23793612941C9010A7E02F24B1
:103B6A0087F582E43410F583E4F07B017A107987D3
:103B7A00FD7F03129941901243E0640D60047F02B5
:103B8A0080027F01901383E06F703780227BFF7A77
:103B9A00237936E4FD7F03129941901243E0640DC4
:103BAA0060047F0280027F01901383E0B507137BD4
:103BBA00FF7A2379361298CEC3740F9FFD7F0312C2
:023BCA009B4816
:013BCC0022D6
:1094B1007B017A1379797D0A7C00129200E4901382
:1094C10083F0A3F09012437409F07B017A13797948
:0594D100D2000238AFDB
:05265B0090107DEFF07E
:10266000640B60030227A8901383E06403600302F5
:102670002730300D147B017A1379797D0AFC129290
:1026800000E4901384F0022730D390137AE0940092
:10269000901379E09400500302272DE4FFFEFDFC27
:1026A00090137BE0F8A3E0F9A3E0FAA3E0FB120C9F
:1026B00069607A90137FE0FCA3E0FDA3E0FEA3E055
:1026C000FF90137BE0F8A3A3A3E0C3120C69705D35
:1026D000901379E0FFA3E0901080CFF0A3EFF0908B
:1026E000137BA3A3E0FFA3E0901082CFF0A3EFF051
:1026F0007B017A107980128305EFF47002EEF460AA
:10270000051299DB8003129ACC7B017A1379797DCB
:102710000A7C00129200D20D90137B120D0C000067
:10272000000090137F120D0C0000000022029ACCD2
:10273000901383E004F0E05403FFF0E4A3F0EF14FF
:10274000604914604B14605A2403600302291BE49F
:10275000901383F0901379E0FFA3E090107ECF8078
:102760002490107EE0FEA3E0FFD39400EE9400508E
