:03000000027C2D52
:0C7C2D00787FE4F6D8FD758123027C749A
:1093910025730044746D66446174613A2030782508
:1093A100623032580D0A005573724B65792025627F
:0493B100640D0A003D
:0947CB004213AD00004113AF00E0
:104C48007F647E0012921DC2AF30C0FD1272A212A4
:104C580089601288601296781291551291A67FE8A1
:104C68007E0312921D1293B5D2AF7F647E0012921A
:104C78001DC200126A571276C27F647E0012921D0E
:104C88001294D012965E1291031278A112541090C9
:104C98000CABE0600C7B017A0C79B4120E7E129694
:104CA800DC900CB3E0602B9011277401F0A3740E14
:104CB800F0A374B4F07BFF7A937991122E257B01CF
:104CC8007A0E79B4900CB0E0FCA3E0FD126B86126A
:104CD80096F5125C74901391E0FF60427BFF7A9323
:104CE8007994901127F0122E2590123AE0FF901334
:104CF80091E0B5070C901239E0FDD200E4FF12955F
:104D08007790123BE0FF901391E0B5070C901239B1
:104D1800E0FDD2007F01129577E4901391F0201DF9
:104D280003024E44C21D128AD5126CA79013AFEF2E
:104D3800F0F4601E7F111288B67BFF7A9379A890F1
:104D480013AFE0901127F0122E259013AFE0FF1259
:104D58005DF7126915128E4A12347C128E18901360
:104D6800ADE475F001120ABDFED3E5F094E8EE94C7
:104D7800035003024E14E49013ADF0A3F0B2811275
:104D880096919011CFE07002A3E06025901267E041
:104D98007002A3E0701B901262E07002A3E0701131
:104DA8009011CF74FFF5F0120ABD45F0700312910F
:104DB80003901243E0B41421128B61901262E070E8
:104DC80002A3E0601490126274FFF5F0120ABD4568
:104DD800F070061296AA129103901222E004F0E0F5
:104DE80075F00A84E5F0F09011CFE07002A3E0704E
:104DF8001B901243E0B40114901241E0B4FF0DA3DC
:104E0800E0B4FF08901222E0FF127803D390131A3F
:104E1800E09400901319E094004021901243E0B40C
:104E2800041A90131AE024FFF0901319E034FFF0ED
:104E3800E07002A3E070057F63121CC73010099070
:104E48001243E0B40102C210200B03024C91300E51
:104E58000E7F111288B67B017A13791212860A1214
:054E6800965E024C9172
:108D7D0055415254315F636F6E666967204F4B21C9
:108D8D000D0A0055415254335F636F6E666967205B
:108D9D004F4B210D0A0052657365744B657954690B
:058DAD006D650D0A00D8
:1047D4004113910041138D0041138E004113921F28
:1047E4004113951F421393000041138F004113900E
:0647F400004213960000D4
:10921D007C007D07120A56E4FDC3ED9FEC9E5015B0
:10922D00E4FBFA0BBB00010AEB646E4A70F50DBD51
:05923D0000010C80E4BB
:019242002209
:0E996F0090114CEFF01291F690114CE0FF2297
:0B924300901124EBF0A3EAF0A3E9F087
:10924E00E4FF901124E0FBA3E475F001120AD3A908
:0A925E00F0FA1209DC60030F80E84B
:0192680022E3
:10978200E4FF1209DC600E0FB4D7011F740129F93E
:05979200E43AFA80ED4D
:0197970022AF
:0B70BE009010D5EBF0A3EAF0A3E9F07E
:1070C900E49010DBF0A3F0A3F0A3F09010D5E0FB5F
:1070D900A3E0FAA3E0F99010DBE0FEA3E0F5828ECD
:1070E900831209F5FF70030271B19010D8E0FBA378
:1070F900E0FAA3E0F91209DC6F600302719D9010B8
:10710900DDF0A3F09010D8E0FBA3E0FAA3E0F9903A
:1071190010DDE0FEA3E0F5828E831209F56051903F
:1071290010DDA3E0FF9010DCE02FFF9010DBE03EC4
:10713900FE9010D5E0FBA3E0FAA3E0F98F828E83DD
:107149001209F5FF9010D8E0FBA3E0FAA3E0F9904B
:1071590010DDE0FCA3E0F5828C831209F5B5071078
:107169009010DEE004F0709C9010DDE004F0809453
:107179009010D8E0FBA3E0FAA3E0F99010DDE0FE5F
:10718900A3E0F5828E831209F570099010DBE0FE09
:10719900A3E0FF229010DCE004F060030270D490B9
:0C71A90010DBE004F00270D47EFF7FFFDA
:0171B50022B7
:10905600901124EBF0A3EAF0A3E9F0ED1DAE047045
:10906600011C4E6016901124E0FBA3E475F001127A
:0C9076000AD3A9F0FAE4120A2280E022DA
:108B1D009010D0EBF0A3EAF0A3E9F09010D674FF1B
:108B2D00F5F0120AD345F0602A9010D3E0FBA3E4D0
:108B3D0075F001120AD3A9F0FA1209DCFF9010D0DA
:108B4D00E0FBA3E475F001120AD3A9F0FAEF120AC3
:048B5D002280C82288
:0B88060090109CEBF0A3EAF0A3E9F057
:10881100E4FFFE90109FE0FBA3E0FAA3E0F9120948
:10882100DC602D90109FA3E475F001120AD3A9F02A
:10883100FA1209DCFD90109CE0FBA3E475F0011233
:108841000AD3A9F0FAED120A220FBF00010E80C36C
:0F88510090109CE0FBA3E0FAA3E0F9E4020A22F6
:108FFA009010C5EBF0A3EAF0A3E9F0ED1DAE047002
:10900A00011C4E60179010C5E0FBA3E475F0011235
:0E901A000AD3A9F0FA1209DC60E1C322D322C6
:1072A20090107D74FFF0E490107CF07B017A1079ED
:1072B2007C7F011243257B017A10797C7F02124385
:1072C200257B017A10797C7F0312432590107D740F
:1072D20060F07B017A10797CE4FF12432590107DE7
:1072E2007401F0FB7A10797C7F0412432590107DA3
:1072F2007430F07B017A10797C7F0512432590105F
:107302007D74F3F07B017A10797C7F06124325901D
:10731200107D7448F07B017A10797C7F0712432537
:1073220090107C7403F0A37413F07B017A10797CC3
:10733200E4FF12432590107D741AF07B017A1079D4
:107342007C7F0412432590107D740CF07B017A102F
:10735200797C7F0512432590107D7437F07B017A8A
:1073620010797C7F0712432590107D7404F07B0115
:107372007A10797C7F06124325C2F8C2C1D2FAD2B2
:07738200FBD2F9C2C3C28473
:0173890022E1
:1088600090107C7440F0A37402F0A3120D0C000170
:10887000C2009010837401F0E4A3F0A304F0A3F00D
:10888000E4A3F07B017A10797C7F011221457BFF04
:108890007A8D797D122E259010877402F07B017AF3
:1088A00010797C7F031221457F581291CE7BFF7A8D
:0688B0008D7990022E25D7
:10896000E490107CF0A3F0A304F0E4A3F0A3F0A340
:108970007496F0A37488F0A37401F0FB7A10797CEC
:10898000E4FF124E6D90108174FEF0A374F2F07B40
:10899000017A10797C7F01124E6D90108174FCF089
:0F89A000A374B5F07B017A10797C7F04024E6DD1
:1096780090107E7401F0E490107DF090107CF07BE7
:09968800017A10797CFF0287A32E
:106CA70090138DE0146036146053146064147003FD
:106CB700026D92147003026DA624056003026DC273
:106CC70075A0F0E5A054F064F07003026DC2901354
:106CD7008E7414F090138D7401F0026DC2E5A05408
:106CE700F0FFBFF004E4026DBE90138EE014F06075
:106CF70003026DC290138D7402F0026DC2E5A044C9
:106D07000F90107CF0E0F5A090138D7403F0026DE6
:106D1700C290107CE5A0F075A0F090138D7404F07C
:106D270090107CE0120D496D8F776D8C7B6D897D9E
:106D37006D867E6D83B76D80BB6D7DBD6D7ABE6DD3
:106D470077D76D74DB6D71DD6D6EDE6D6BE76D682A
:106D5700EB6D65ED6D62EE00006DC27F04227F086A
:106D6700227F0B227F0F227F03227F07227F0022B1
:106D77007F0E227F02227F06227F0A227F0D227F3B
:106D870001227F05227F09227F0C22E5A054F0FF14
:106D9700BFF02890138D7405F0A37414F0801CE5E0
:106DA700A054F064F0600890138D7404F0800C9088
:0D6DB700138EE014F0700490138DF07FFF38
:016DC40022AC
:1069150090138FE01460400460030269A0A2CDE4E7
:106925003325E0FFA2CCE4334F25E0FFA2C0E433DA
:106935004F25E0FFA285E4334F25E0FFA286E4332F
:106945004FFF901392E06F6052901390741EF09079
:10695500138F7401F08044A2CDE43325E0FFA2CC6F
:10696500E4334F25E0FFA2C0E4334F25E0FFA285C5
:10697500E4334F25E0FFA286E4334FFF901392E006
:10698500B50707E490138FF08011901390E014F091
:10699500700990138FF0901392EFF0901392E0FF2F
:1069A500901395E0FE6F6079EE5401FEEF54016E91
:1069B500601C901392E020E015901239E0FDC200B2
:1069C500E4FF1295779011CFE4F0A37405F09013CE
:1069D50095E05402FF901392E0FE54026F6019EEA9
:1069E50020E115901239E0FDC2007F0112957790E4
:1069F50011CFE4F0A37405F0901395E05404FF90D3
:106A05001392E054046F6011A37427F0A37410F07F
:106A15007BFF7A8D79A3122E25901392E090139522
:106A2500F0901395E020E229901393E07002A3E023
:106A3500601F90139374FFF5F0120ABD45F07011B5
:106A4500D200126A5712995F9011CFE4F0A3740532
:016A5500F050
:016A5600221D
:1095770074962FF582E43413F583EDF0EF7004D27F
:10958700C38006EFB40102D284A20092010296C3FF
:10969100901396E0600614F07002C2C3901397E035
:0996A100600614F07002C284227C
:1000A600000000384492BAFE828244380000000004
:1000B60000000038448282FEBA92443800000000F4
:1000C6000000003854AAAAAAC692443800000000CC
:1000D600000000384482AAF68A82443800000000F4
:1000E6000000000000000000000303000000000004
:1000F6000003030F0F3F3FFFFFFFFF00000000005C
:1001060000000000422418182442000000000000ED
:100116000000003844BAC6AAAAAA54380000000053
:1001260000003C42A599FF99A5423C000000000052
:1001360000000000000000000000000000000000B9
:100146000000183C3C3C1818180018180000000065
:10015600006363632200000000000000000000004E
:1001660000000036367F3636367F36360000000011
:100176000C0C3E6361603E030343633E0C0C0000BF
:1001860000000000006163060C18336300000000E5
:100196000000001C36361C3B6E66663B0000000005
:1001A6000030303060000000000000000000000059
:1001B60000000C18183030303018180C0000000001
:1001C6000000180C0C060606060C0C1800000000B1
:1001D6000000000042663CFF3C6642000000000052
:1001E60000000000181818FF18181800000000007A
:1001F6000000000000000000000018181830000081
:1002060000000000000000FF0000000000000000E9
:1002160000000000000000000000181800000000A8
:1002260000000103070E1C3870E0C08000000000CB
:1002360000003E6363636B6B6363633E0000000014
:1002460000000C1C3C0C0C0C0C0C0C3F00000000BD
:1002560000003E6303060C183061637F0000000057
:1002660000003E6303031E030303633E0000000019
:100276000000060E1E3666667F06060F00000000AA
:1002860000007F6060607E030363733E0000000031
:1002960000001C3060607E636363633E0000000004
:1002A60000007F630306060C0C18181800000000F7
:1002B60000003E6363633E636363633E00000000C9
:1002C60000003E636363633F0303063C00000000D7
:1002D60000000000001818000000181800000000B8
:1002E6000000000000181800000018181830000060
:1002F600000000060C18306030180C0600000000E4
:100306000000000000007E00007E000000000000EB
:100316000000006030180C060C1830600000000069
:1003260000003E6363060C0C0C000C0C0000000081
:1003360000003E63636F6B6B6E60603E0000000002
:100346000000081C366363637F636363000000007C
:1003560000007E3333333E333333337E00000000F8
:1003660000001E33616060606061331E00000000A3
:1003760000007C36333333333333367C00000000E1
:1003860000007F3331343C343031337F00000000CD
:1003960000007F3331343C343030307800000000C8
:1003A60000001E336160606F6363371D000000004C
:1003B6000000636363637F6363636363000000003D
:1003C60000003C18181818181818183C00000000EF
:1003D60000000F06060606060666663C00000000DC
:1003E6000000733336363C36363333730000000074
:1003F60000007830303030303031337F000000007C
:10040600000063777F6B63636363636300000000D0
:1004160000006363737B7F6F6763636300000000A4
:1004260000001C36636363636363361C00000000D0
:1004360000007E3333333E30303030780000000029
:1004460000003E6363636363636B6F3E06070000F1
:1004560000007E3333333E363633337300000000FC
:1004660000003E6363301C060363633E0000000029
:100476000000FFDB991818181818183C0000000037
:1004860000006363636363636363633E00000000AD
:10049600000063636363636363361C080000000047
:1004A600000063636363636B6B7F36360000000096
:1004B6000000C3C3663C18183C66C3C300000000B6
:1004C6000000C3C3C3663C181818183C000000009F
:1004D60000007F6343060C183061637F0000000054
:1004E60000003C30303030303030303C000000000E
:1004F600000080C0E070381C0E07030100000000F9
:1005060000003C0C0C0C0C0C0C0C0C3C000000000D
:10051600081C366300000000000000000000000018
:10052600000000000000000000000000FF000000C6
:1005360018180C0000000000000000000000000079
:1005460000000000003C46063E66663B00000000D8
:1005560000007030303C36333333336E0000000019
:1005660000000000003E63606060633E0000000023
:1005760000000E06061E36666666663B0000000034
:1005860000000000003E63637E60633E00000000E2
:1005960000001C3632307C303030307800000000ED
:1005A60000000000003B666666663E06663C00008C
:1005B6000000703030363B333333337300000000B5
:1005C60000000C0C001C0C0C0C0C0C1E0000000097
:1005D60000000606000E060606060666663C0000D5
:1005E60000007030303333363C3633730000000081
:1005F60000001C0C0C0C0C0C0C0C0C1E000000005B
:1006060000000000006E7F6B6B6B6B6B00000000E0
:1006160000000000006E3333333333330000000034
:1006260000000000003E63636363633E0000000059
:1006360000000000006E333333333E303078000064
:1006460000000000003B666666663E06060F000078
:1006560000000000006E3B333030307800000000B0
:1006660000000000003E63380E03633E00000000F9
:1006760000000818187E181818181B0E0000000035
:1006860000000000006666666666663B00000000C5
:100696000000000000636336361C1C0800000000E2
:1006A60000000000006363636B6B7F360000000090
:1006B600000000000063361C1C1C366300000000AE
:1006C600000000000063636363633F03063C0000B1
:1006D60000000000007F660C1830637F00000000F9
:1006E60000000E18181870181818180E00000000D0
:1006F6000000181818181800181818181800000004
:100706000000701818180E1818181870000000004D
:1007160000003B6E0000000000000000000000002A
:100726000070D8D870000000000000000000000033
:100736000000C6C66676DCCCC6C600000000000017
:100746000000F80C0C0C0C0C0CFE00000000000065
:1007560000007018181818386C66000000000000B9
:100766000000FE0C0C0C0C0C0C0C00000000000031
:1007760000007C060606666666660000000000004D
:1007860000001818181818181818000000000000A3
:1007960000007818303030303030000000000000A3
:1007A6000000FCC6C6C6C6C6C6C6000000000000DD
:1007B6000000CCC6C6C6C6C6C67C00000000000047
:1007C60000001818181800000000000000000000C3
:1007D60000007018181818181818180000000000E3
:1007E60000007C0606060606067C000000000000E7
:1007F600C0C0FC060606060C181800000000000023
:100806000000FC66C6C6C6C6C6FE000000000000A4
:100816000000DC7666C6C6C6C6DC00000000000026
:1008260000001818181818181818181818000000BA
:100836000000380C0C0C0C0C0C3C000000000000F6
:1008460000007C66C6C6C6C6CC7800000000000064
:1008560000006666663636361C7000000000000032
:100866000000F84CCCCCCC6C0C0C0C0C0E00000030
:100876000000FC46C6C6E606867C000000000000B6
:1008860000666C38181818181818000000000000C8
:100896000000EE666634180C06FE0000000000003C
:1008A6000000FC060666646C6E6060600000000076
:1008B6000000F80C0C0C0C0C0C0C000000000000E6
:1008C6000000D6D6D6D6D6F6E67C0000000000009C
:1008D6000000FC6666666666E6E60000000000004C
:1047FA00410CA300410CA000C11942089E000041CF
:07480A000CA1FF410CA2FF0D
:109597007590FFC2C4D2CBD2CA0000E59030E70372
:0C95A700D38001C39202C2CA0000A202DD
:0195B3002295
:10970E0012959740FBC2C4C2CBC2CA00008F900014
:08971E0000D2CA0000C2CA22F9
:0C94AE00E0FBA3E0FAA3E0F91209DCFFE8
:1094BA0012959740FBD2C4C2CBC2CA8F900000D289
:0694CA00CA0000C2CA2224
:1093B500C2CA7F3012970E000012970E00007F0C74
:1093C50012970E00007F0112970E00007F0612977C
:0493D5000E00002264
:109628007F0112970E00007B017A0879A07D007CEB
:0B963800041290567DFF7FFF02999BFB
:0B820000901124EBF0A3EAF0A3E9F0DA
:10820B002400F9EA3402FA901128EBF0A3EAF0A368
:10821B00E9F0E4901127F07F3612970E901127E0CA
:10822B004480FF12970E7F8012970E7F3012970EAD
:10823B00301503125C74E4FE9011241294AE90116D
:10824B0025E475F001120ABD0EEEB410EB7E109012
:10825B0011281294AE901129E475F001120ABD0E8B
:10826B00EEB420EB901127E004F0E0C3942040A77C
:01827B0022E0
:107CB900AE077F3612970EEDD394014006ED24FEF0
:107CC900FF8002AF05EFC454F0240F4480FF1297E0
:107CD9000EEEC313FFEDD3940140047C0880027CAF
:107CE90000EF2C4480FF12970E7F3012970EEE3072
:107CF900E02175F000EDA4248FF582E5F03409F553
:107D0900832DF583E5822EF582E43583F583E0FF43
:107D19001294BA3000047FFF801E75F000EDA42490
:107D290090F582E5F03409F5832DF583E5822EF58A
:0B7D390082E43583F583E0FF0294BA7A
:1095B4001209DCFF6015640A6011EFD39480400245
:0D95C400D322740129F9E43AFA80E5C322AC
:1098EF00900CA3E004F0E05403F0E4900CA0F022FD
:0B653900901124EBF0A3EAF0A3E9F0BE
:106544001295B49218901124A3E0FAA3E04A7003C0
:10655400026685901124E0FBA3E0FAA3E0F9120996
:10656400DCFF7003026685640A700302668590117D
:1065740028EFF0900CA0E004F0E0D3941040031254
:1065840098EF90112974FFF0A37403F0A37426F01C
:10659400901128E0FFC39420406EEFD394805010F4
:1065A400EF75F010A42436F974FF35F0FAA3804F88
:1065B400901125E475F001120ABD901128E07F00C6
:1065C400FE901124E0FBA3E0FAA3E0F91209DC2F0A
:1065D400FFE43EFEC3EF9490EE94D7402BD3EF94A8
:1065E400ABEE94D75022EFC4F8540FC868FFEEC442
:1065F40054F048FE74362FF9748E3EFA90112974C3
:10660400FFF0A3EAF0A3E9F0900CA0E06007149077
:106614001127F0800AE4901127F0900CA004F030C8
:10662400180A901127E0FFC3740F9FF0E4FF901144
:1066340029E0FBA3E0FAA3E0F98F82758300120935
:10664400F5FE900CA3E0C454F02F75F010A424A020
:10665400F582E5F03408F583C083C082901127E009
:10666400D082D0832582F582E43583F583EEF00F62
:10667400EFB410BA901125E475F001120ABD026559
:0166840057BE
:0166850022F2
:0883E200901089EFF0A3EDF00B
:1083EA00EB75F010A424A6F9740035F0FA90108DFC
:1083FA0074FFF0A3EAF0A3E9F0E4FF90108DE0FB2C
:10840A00A3E0FAA3E0F98F827583001209F5FE90C2
:10841A00108CE05EFE901089E0C454F02F75F010C5
:10842A00A424A0F582E5F03408F583C083C08290C5
:10843A00108AE0D082D0832582F582E43583F583E1
:07844A00EEF00FEFB410B4D7
:018451002208
:10979800900CA3EFF0900CA0EDF01265397B017AE4
:0697A8000879A002820016
:1098BA0090108C74FFF01283E27B017A0879A0027F
:0298CA0082001A
:0A859F009013B0EFF0A3EDF0AC0371
:1085A900E4A3F0EC75F00584FCD3940540027C0546
:1085B9007E01EEC39C500F9013B2E01313543FF0A9
:1085C90044C0F00E80EC9013B0E0FFA3E0FDECD3C3
:1085D900940040047EFF80027E0090108CEEF07BB8
:1085E900041283E29013B0E0FFA3E004FDA3E0903E
:1085F900108CF07B051283E27B017A0879A0028254
:018609000070
:09999B00900CA1EDF0A3EFF02205
:108E1800900CA1E0FFF46029A3E0FDF46023900822
:108E28009EE475F001120ABDABF0FABA0113BB2C2F
:108E380010E490089EF0A3F0A2199200127CB9B237
:028E48001922ED
:10311F004F4B002B4350494E3A204E4F5420494EAF
:10312F00534552544544004552524F52002B435081
:10313F00494E3A205245414459002B4350494E3A8B
:10314F00204E4F542052454144590025642C25648C
:10315F000061742B6370696E3F2072657475726EB7
:10316F00202562640D0A002B435245473A20002563
:10317F0062642C256264004174436D6443625F6333
:10318F007265673A202562642C2562640D0A00611E
:10319F00742B637265673F2072657475726E20259C
:1031AF0062640D0A002B4353513A20004174436D62
:1031BF006443625F6373713A202562642C256264F5
:1031CF000D0A0061742B6373713F20726574757201
:1031DF006E202562640D0A0041540D0A0041542BE4
:1031EF004350494E3F0D0A0041542B434F50533D1E
:1031FF00300D0A0041542B514346473D226E7773E1
:10320F0063616E6D6F6465222C300D0A0041542B83
:10321F00435245473F0D0A0041542B4346554E3DFF
:10322F00310D0A0041542B515552434346473D221D
:10323F00757263706F7274222C22756172743122F1
:10324F000D0A0041542B43545A553D310D0A00418C
:10325F00542B434C49503D310D0A0041542B4347E9
:10326F004D520D0A0041542B51544F4E4544455475
:10327F003D310D0A0041542B434C564C3D340D0A41
:10328F000041542B4353510D0A0041542B43504FCF
:10329F00460D0A0047534D5F5265706F7765720D8B
:1032AF000A0047534D5F496E69743A310D0A004762
:1032BF00534D5F4765744373710D0A0041542B439F
:1032CF004C564C3D2562640D0A0047534D5F5365C4
:1032DF0074566F6C756D2028256264293A2025730A
:1032EF000D0A00415444003B0D0A0041542B434842
:1032FF0055500D0A0047534D5F496E69743A320DB0
:10330F000A0047534D5F496E69743A330D0A0047FF
:10331F00534D5F496E69743A340D0A0047534D5F40
:10332F004174436D643A256264202D202562640D3B
:10333F000A00415420636D64206578656375746578
:10334F002031306564204661696C203A2025626423
:10335F00205B25735D20210D0A0043616C6C4F7556
:10336F007454696D653A2025640D0A0041542B434E
:10337F004C43430D0A004154410D0A004E4F524D2C
:10338F00414C20504F57455220444F574E00554EF9
:10339F004445522D564F4C5441474520504F5745A9
:1033AF005220444F574E004E4F204449414C544FEA
:1033BF004E45004E4F20434152524945520052490B
:1033CF004E47002B434C43433A20002B44544D4669
:1033DF003A20002B525844544D463A20002B434F6D
:1033EF004C503A002B51544F4E454445543A00250A
:1033FF0062642C2562642C25626400434C43433A7B
:10340F00202562640D0A000D0A2D2D2D2D50614FC0
:10341F0070656E2D2D2D2D0D0A002562640044540C
:10342F004D463A202562640D0A00FF3122FF3136E6
:10343F00FF313CFF3149FF3136FF3176FF3136FF27
:10344F0031B4FF338BFF339DFF33B6FF33C2FF33EE
:10345F00CDFF33D2FF33DAFF33E2FF33ECFF33F329
:0D346F0041542B5654533D2230220D0A00CB
:10481100411264FF41126BFFC110C111C10F41125E
:10482100490041124A0041124B0041124C00411211
:104831004D004112BBFF4112BC00604E126DFF31B1
:10484100E7FF8F3EFF31ECFF5F74FF31F7FF8F3ED3
:10485100FF3203FF8F3EFF321CFF6260FF3227FFF2
:104861008F3EFF3233FF8F3EFF3252FF8F3EFF32CA
:104871005EFF8F3EFF326AFF8F3EFF3274FF8F3E35
:10488100FF3284FF8F3EFF3290FF63D042126700F8
:0F489100004212650000421262000041126C00EA
:108F3E009010D874FFF0A37431F0A3741FF0127068
:108F4E00BEEFF47002EEF460037F0422901249E04B
:0E8F5E0004F0C3940A4005E4F07FFF227F0078
:018F6C0022E2
:105F7400E490107CF074FFA3F0A3F0E4A3F0A3F08A
:105F8400A3F0A3EBF0A3EAF0A3E9F0E4901081F00E
:105F9400901081E0FFC394044003026059EF75F050
:105FA40003A42439F582E43434F583E493F97401C9
:105FB40093FA7402939010D8C9F0A3EAF0A3E9F01D
:105FC400901082E0FBA3E0FAA3E0F91270BEEFF4B4
:105FD4007002EEF46076901081E0FF7E0090107DF8
:105FE400EEF0A3EFF06401706C90107DE0FEA3E08E
:105FF40090343975F003120D3DEE75F003A425833A
:10600400F583E493FB740193FA740293F9129243B7
:106014007E00901082E0FBA3E0FAA3E02FF9EE3AB1
:10602400FA9010D874FFF0A37431F0A3745AF0A35B
:106034007401F0A37410F0A3747FF0A37401F0A3AF
:106044007410F0A37480F0123B588009901081E022
:1060540004F0025F9490107DE0FEA3E0FFEE707305
:10606400EF14604014606014601124037065901094
:106074007C74FFF090126B14F0805890124AE0C3C5
:10608400940A400D90107C74FFF0E490124AF08062
:106094000BE490107CF090124AE004F090126B74C0
:1060A400FDF0802F90124AE0C3940A400D90107CBA
:1060B40074FFF0E490124AF08019E490107CF090A0
:1060C400124AE004F0800C90126B74FCF090107C87
:1060D4007404F07BFF7A31796090107CE090112792
:0960E400F0122E2590107CE0FF63
:0160ED002290
:10626000E490107CF074FFA3F0A3F0E4A3F0A3F09B
:10627000A3F0A3EBF0A3EAF0A3E9F0E4901081F01F
:10628000901081E0FFC39402400302636DEF75F04C
:1062900003A42445F582E43434F583E493F97401CE
:1062A00093FA7402939010D8C9F0A3EAF0A3E9F02E
:1062B000901082E0FBA3E0FAA3E0F91270BEEFF4C5
:1062C0007002EEF47003026364901083EE8FF0129C
:1062D0000ABD901081E0FF7E0090107DEEF0A3EFEC
:1062E000F06401600302636D90107DE0FEA3E09016
:1062F000344575F003120D3DEE75F003A42583F5CA
:1063000083E493FB740193FA740293F91292437E2F
:1063100000901082E0FBA3E0FAA3E02FF9EE3AFA36
:106320009010D874FFF0A37431F0A3747EF0A374BE
:1063300001F0A37410F0A3747FF0A37401F0A374B0
:1063400010F0A37480F0123B587BFF7A317986906D
:10635000107FE0901127F0901080E0901128F0124B
:106360002E258009901081E004F002628090107D5B
:10637000E0FEA3E0FFEE7041EF14600E04703A906F
:10638000124BE0C3941440268017901080E0B401B3
:106390000790107C7404800E90124BE0C39414405C
:1063A0000D90107C74FFF0E490124BF0800BE490A1
:1063B000107CF090124BE004F07BFF7A31799E90D4
:0F63C000107CE0901127F0122E2590107CE0FF4A
:0163CF0022AB
:1063D000E490107CF074FFA3F0A3F0E4A3F0A3F02A
:1063E000A3F0A3EBF0A3EAF0A3E9F0C20FE490104E
:1063F00081F0901081E0FFC3940240030264DFEF5C
:1064000075F003A4244BF582E43434F583E493F966
:10641000740193FA7402939010D8C9F0A3EAF0A320
:10642000E9F0901082E0FBA3E0FAA3E0F91270BE5D
:10643000EFF47002EEF470030264D6901083EE8FD6
:10644000F0120ABD901081E0FF7E0090107DEEF00A
:10645000A3EFF0640160030264DF90107DE0FEA30F
:10646000E090344B75F003120D3DEE75F003A4255A
:1064700083F583E493FB740193FA740293F9129207
:10648000437E00901082E0FBA3E0FAA3E02FF9EE38
:106490003AFA9010D874FFF0A37431F0A3747EF030
:1064A000A37401F0A37410F0A3747FF0A37401F03F
:1064B000A37410F0A37480F0123B587BFF7A3179FB
:1064C000BB90107FE0901127F0901080E090112891
:1064D000F0122E258009901081E004F00263F29002
:1064E000107DE0FEA3E0FFEE7038EF14602404702E
:1064F0003190124CE0B40A0D90107C74FFF0E490DF
:10650000124CF0801DE490107CF090124CE004F0EE
:10651000801090107FE090126BF0D21090107C747D
:1065200004F07BFF7A3179D290107CE0901127F053
:08653000122E2590107CE0FF03
:016538002240
:108F6D009010D874FFF0A37431F0A3741FF0127039
:108F7D00BEEFF47002EEF460037F042290124DE018
:0E8F8D0004F0C3940A4005E4F07FFF227F0049
:018F9B0022B3
:1093D9007BFF7A327999128DE5901264740AF090C4
:1093E90012697407F0A374D0F0D2107BFF7A327936
:0493F900A3022E2578
:1094D000D2F89012697403F0A374E8F090126474E7
:1094E00001F090126B74FFF0D210FB7A3279B10266
:0294F0002E2527
:1090D900901264E0640760219012697403F0A3742C
:1090E900E8F09012647404F09012BB740CF0D20F83
:0A90F9007BFF7A3279BE122E252289
:10807A00901088EFF09012697403F0A374E8F090FE
:10808A0012647404F09012BB740BF090112774FF01
:10809A00F0A37432F0A374CBF0A3EFF07B017A1251
:1080AA00794E122E1F9012BBE0FF75F006A4246DC4
:1080BA00F582E43412F5837401F0A37412F0A37408
:1080CA004EF0901088E0901127F0EF75F006A42486
:1080DA006DF582E43412F583E0F9A3E0FAA3E090A7
:1080EA001128C9F0A3EAF0A3E9F07BFF7A3279D923
:0380FA00022E252E
:1086DC00901096EBF0A3EAF0A3E9F0901264E0FF9F
:1086EC0064056008EF64096003300F467BFF7A3243
:1086FC0079F2128DE5901096E0FBA3E0FAA3E0F975
:10870C00128DE57BFF7A3279F6128DE5901236E008
:10871C00FF901267E4F0A3EFF0A37403F0A374E8E6
:10872C00F09012647406F0C211E490126CF0D280D6
:04873C00D322C3225F
:1096AA00D2807BFF7A3279FA128DE59012647405C2
:0996BA00F0E4901262F0A3F0222A
:10347C00901264E0B40B0040030237A890348FF82C
:10348C002828730234D70234EB0235170235430275
:10349C0035BC02364602365A0236E502374302374D
:1034AC005C0234B090126974FFF5F0120ABD45F05D
:1034BC0060030237A8C2F8901269743AF0A37498AA
:1034CC00F0E4901264F09012BCF02290126974FF38
:1034DC00F5F0120ABD45F060030237A80294D090B3
:1034EC00126974FFF5F0120ABD45F060030237A8AB
:1034FC00D2C19012697404F0A374B0F09012647489
:10350C0002F07BFF7A33790402361490126974FF4F
:10351C00F5F0120ABD45F060030237A8C2C1901243
:10352C00697402F0A37458F09012647403F07BFF7A
:10353C007A33791102361490126974FFF5F0120A7D
:10354C00BD45F060030237A89012647404F0E49057
:10355C0012BBF0A3F090112774FFF0A37432F0A308
:10356C0074CBF090123CE090112AF07B017A127926
:10357C004E122E1F9012AF7401F0A37412F0A374AC
:10358C004EF09012BBE075F006A4246DF582E43485
:10359C0012F583E0FBA3E0FAA3E0F9128DE590129B
:1035AC00697407F0A374D0F07BFF7A33791E8058CE
:1035BC0090126974FFF5F0120ABD45F060030237F2
:1035CC00A89012BCE004F0C394159012BBE0503BE1
:1035DC0075F006A4246DF582E43412F583E0FBA3A8
:1035EC00E0FAA3E0F9128DE59012697407F0A37468
:1035FC00D0F07BFF7A33792B9012BBE0901127F03F
:10360C009012BCE0901128F0022E25901127F07535
:10361C00F006A4246DF582E43412F583E0F9A3E0FE
:10362C00FAA3E0901128C9F0A3EAF0A3E9F07BFF1C
:10363C007A337941122E250293D990126974FFF5D1
:10364C00F0120ABD45F060030237A80290D990121F
:10365C006974FFF5F0120ABD45F060030237A890BB
:10366C0012697403F0A374E8F07BFF7A33796990E4
:10367C001267E0FFA3E0901127CFF0A3EFF0122E1A
:10368C002590126774FFF5F0120ABD45F0704112D7
:10369C0096AAE4901262F0A3F0901244E075F00C3C
:1036AC00A42409F9741235F0FA7B01129243EFD37A
:1036BC00940040109012647409F0901267E4F0A327
:1036CC007402F02212991F9011CFE4F0A37405F04C
:1036DC007BFF7A33797B028DE590126974FFF5F0EC
:1036EC00120ABD45F060030237A89012697403F00A
:1036FC00A374E8F090126574FFF5F0120ABD45F062
:10370C0060030237A87BFF7A337985128DE590121E
:10371C00437414F09012647408F0C280901233E079
:10372C00FFA3E0901262CFF0A3EFF090123CE0FF09
:10373C00901221F002807A90126974FFF5F0120A4F
:10374C00BD45F070579012697403F0A374E8F02231
:10375C0090126974FFF5F0120ABD45F0703E90129C
:10376C00697403F0A374E8F090126774FFF5F0121B
:10377C000ABD45F07026901244E0C394025017E045
:10378C0004F07B017A1179D1E0FD1271B650E7900B
:0D379C0012437413F0221296AA1291032218
:1029B60074FF90107FF0A3F0E4A3F0A3F0A3EBF074
:1029C600A3EAF0A3E9F0E4901081F0A3F09010815F
:1029D600E0FEA3E0FFC3940AEE64809480505F900B
:1029E600345175F003EF120D3DEE75F003A4258307
:1029F600F583E493F9740193FA7402939010D8C99D
:102A0600F0A3EAF0A3E9F0901083E0FBA3E0FAA3B9
:102A1600E0F91270BEEFF47002EEF46011901081CE
:102A2600E0FFA3E090107FCFF0A3EFF080109010AE
:102A360082E004F07097901081E004F0808F90108F
:102A46007FE0FEA3E0FFEE6003022DB9EFB40A00BB
:102A56004003022DB9902A62F8282873022A8002C0
:102A66002A80022A80022AA1022ADC022AFE022CDD
:102A760037022C79022DB9022D1B901264E0FF64F7
:102A8600066009EF64086004EFB4090C12993F90E0
:102A960011CFE4F0A37405F00293D9901264E0B468
:102AA6000626901244E075F00CA42409F974123538
:102AB600F0FA7B01129243EFD39400400B9012641C
:102AC6007409F09012678026901264E0640970031E
:102AD600022DB9022C31901264E064077003022DB6
:102AE600B97407F0901235E0B4010A901265E4F06B
:102AF600A37402F0220296AA903460E493F974015A
:102B060093FA7402939010D8C9F0A3EAF0A3E9F0FF
:102B1600901083E0FBA3E0FAA3E0F91270BE9010D8
:102B260081EEF0A3EFF0901081E0F47003A3E0F4DF
:102B36007003022DB9903460E493FB740193FA7428
:102B46000293F9129243901082E02FFF901081E0D9
:102B560034009010848FF0120ABD9010D874FFF0E4
:102B6600A37433F0A374FEF0A37401F0A37410F001
:102B7600A37481F0A37401F0A37410F0A37486F01B
:102B8600A37401F0A37410F0A37487F0901083E08F
:102B9600FBA3E0FAA3E0F9123B587BFF7A34790AEB
:102BA600901087E0901127F0122E25901087E07084
:102BB600319012437414F09012647408F0E4901289
:102BC60067F0A3F0901233E0FFA3E0901262CFF01B
:102BD600A3EFF090123CE0FF901221F012807AC22F
:102BE6008022901087E06403702B20110FD2119081
:102BF6001236E0FF901267E4F0A3EFF090126CE05B
:102C060004F064056003022DB97BFF7A347916124D
:102C16002E25C28022901087E064066003022DB93B
:102C2600901264E064097003022DB91296AA02910B
:102C360003903463E493F9740193FA740293901049
:102C4600D8C9F0A3EAF0A3E9F0901083E0FBA3E073
:102C5600FAA3E0F91270BE901081EEF0A3EFF090A7
:102C66001081E0F47003A3E0F47003022DB99034F0
:102C7600638040903466E493F9740193FA74029386
:102C86009010D8C9F0A3EAF0A3E9F0901083E0FB16
:102C9600A3E0FAA3E0F91270BE901081EEF0A3EF64
:102CA600F0901081E0F47003A3E0F47003022DB9F4
:102CB600903466E493FB740193FA740293F91292CA
:102CC60043901082E02FFF901081E0340090108432
:102CD6008FF0120ABD9010D874FFF0A37434F0A3DD
:102CE6007429F0A37401F0A37410F0A37487F09014
:102CF6001083E0FBA3E0FAA3E0F9123B589010879B
:102D0600E0FE24D0901391F07BFF7A34792D901158
:102D160027EE022DB590346CE493F9740193FA749E
:102D260002939010D8C9F0A3EAF0A3E9F0901083BB
:102D3600E0FBA3E0FAA3E0F91270BE901081EEF07A
:102D4600A3EFF0901081E0F47003A3E0F4606490C8
:102D5600346CE493FB740193FA740293F912924370
:102D6600901082E02FFF901081E034009010848F45
:102D7600F0120ABD9010D874FFF0A37434F0A37457
:102D860029F0A37401F0A37410F0A37487F09010D7
:102D960083E0FBA3E0FAA3E0F9123B58901087E02A
:102DA60024D0901391F07BFF7A34792D901127F07F
:032DB600122E25B5
:012DB90022F7
:0B6B860090107CEBF0A3EAF0A3E9F014
:106B910090107CE0FBA3E0FAA3E0F9AE04AF058F0F
:106BA100828E83E4120A34901264E064046003026A
:106BB1006C989012BBE0FFC3940D4003026C98EFF8
:106BC10075F006A42470F582E43412F583A3E0FA8B
:106BD100A3E04A7003026CA690107CE0FBA3E0FAEC
:106BE100A3E0F9C0029012BBE075F006A42470F591
:106BF10082E43412F583A3E0FAA3E0F5828A83D01C
:106C010002120D73EF24FC600B2405606F24FE60FB
:106C110003026CA6E49012BCF09012BBE004C39492
:106C21000D503FE004F0E075F006A4246DF582E418
:106C31003412F583E0FBA3E0FAA3E0F9128DE590AD
:106C410012697403F0A374E8F07BFF7A33792B9017
:106C510012BBE0901127F09012BCE0901128F002D5
:106C61002E259012697427F0A37410F090126474A9
:106C710005F0901243E06414702B8007901243E0FA
:106C8100B414119012697403F0A374E8F0901264C3
:106C91007408F0220293D990107CE0FBA3E0FAA3E0
:056CA100E0F91229B624
:016CA60022CB
:0590AE0090107EEFF0C0
:1090B300787F7C107D017BFF7A34796F7E007F0D92
:1090C3001209B690107EE02430901087F07B017A6D
:0690D30010797F028DE51B
:106EC50025732562643A0025750025732573002511
:106ED50073257500446F776E6C6F6164204E616D2C
:106EE500656C697374204572723A28206E6F742040
:106EF500696E2073657474696E672029210D0A0017
:106F0500433A002564005265764E616D656C697380
:106F15007428436E743A2564290D0A00523A0025F7
:106F2500753B004E3A0054313A0054323A0054331E
:106F35003A004964783A25642D282564293B205276
:106F45003A25753B204E3A25733B2054313A25733B
:106F55003B2054323A25733B2054333A25733B0D7D
:106F65000A00446F776E6C6F6164204E616D656CCD
:106F7500697374204F4B21202328257529230D0A79
:106F850000446F776E6C6F6164204E616D656C694E
:106F95007374204572723A28257523257529210DAC
:106FA5000A00969798939495909192A09FA19C9E84
:0D6FB5009D999B9AA8A9AAA6A5A7A2A4A38E
:1048A00041136B0041136C00C11C421319000041FD
:0748B000131800411317FF6C
:10944500C3742B9429FF74129412CF2480CF340057
:10945500FE7B017A12792B90112AE4F0A37402F0B5
:03946500027DCFB6
:0A000E00E490122BF0A3F0029445D9
:10986E00D390122CE0946490122BE09400400312DB
:03987E00000E22B7
:0B8C24009010D5E0FBA3E0FAA3E0F9FC
:0B8C2F00901122EBF0A3EAF0A3E9F0A3
:108C3A007C007D50120A56E42FFFEE3401FE90119B
:108C4A0022E0FBA3E0FAA3E0F990112AE4F0A3746E
:058C5A0050F0027DCF87
:0B8EDE00901122EBF0A3EAF0A3E9F0F2
:108EE9007C007D50120A56E42FFFEE3401FE9011EA
:108EF90022E0FBA3E0FAA3E0F990112AE4F0A374BD
:058F090050F00287405A
:0B89FA009010D0EBF0A3EAF0A3E9F02E
:108A050074FFA3F0A3F07D01127F709010D3EEF0F8
:108A1500A3EFF0F47002EEF4601F9010D3E0FEA314
:108A2500E0FF9010D0E0FBA3E0FAA3E0F9128EDEA0
:0D8A35009010D3E0FEA3E0FF227EFF7FFF44
:018A42002211
:0B82F4009010D5EBF0A3EAF0A3E9F036
:1082FF0074FFA3F0A3F0120AE9FFAEF07D01127F25
:10830F00709010D8EEF0A3EFF0F47002EEF460145A
:10831F009010D8E0FEA3E0FF128C249010D8E0FE5E
:10832F00A3E0FF2290122BE0FEA3E0FFC39464EEC4
:10833F0094005023128C2490122CE004F0700690BD
:10834F00122BE004F012944590122CE024FFFF90C2
:0B835F00122BE034FFFE227EFF7FFFA8
:01836A0022F0
:088452009010D0EEF0A3EFF052
:10845A0090122BE0FCA3E0FDD39FEC9E4058ED2444
:10846A00FFFFEC34FFFE9010D0E0B50616A3E0B58E
:10847A00071190122CE024FFF090122BE034FFF049
:10848A0002944590122CE024FFF090122BE034FF66
:10849A00F012944590122BE0FEA3E0FF7B017A10C4
:1084AA0079D2128EDE9010D0E0FEA3E0FF7B017A33
:0684BA001079D2128C2F94
:0184C0002299
:1098DE007D01127F70EFF47002EEF4600312845279
:0198EE002257
:0B40B2009010D0EBF0A3EAF0A3E9F0BF
:1040BD001296282000030241A4E4901123F09011E0
:1040CD0023E0FFC39403400302432490112774FFA0
:1040DD00F0A3746EF0A374C5F0A374FFF0A374186D
:1040ED00F0A374E8F0EF04A3F07B017A1079D312FA
:1040FD002E1F901123E004FF7B017A1079D3E4FD8C
:10410D001297989010D0E0FBA3E0FAA3E0242CF9CD
:10411D00E43AFA901123E075F00CA429F9EA35F090
:10412D00FA129243C0077B017A1079D3129782C39A
:10413D0074109FD007C39FFD9010D0E0FBA3E0FA51
:10414D00A3E0242CF9E43AFA901123E075F00CA4C5
:10415D0029F9EA35F0FAE004FF129798901123E05F
:10416D002402FF90136BE06F7024901243E0FF6404
:10417D00046004EFB405177B017A1079D31297828E
:10418D00C3740F9FFD901123E004FF12999B9011B2
:10419D0023E004F00240CB9010D0E0FBA3E0FAA3A3
:1041AD00E0F9120AE9D39400E5F0940050030242BD
:1041BD00457BFF7A1879D0E4FD7F01129798901115
:1041CD002774FFF0A3746EF0A374CCF09010D0E0C0
:1041DD00FBA3E0FAA3E0F9120AE9FF90112AE5F03A
:1041ED00F0A3EFF07B017A1079D3122E1F7BFF7AAB
:1041FD001879D0129782C374109FFFC0077B017A84
:10420D001079D3129243C3D0E09FFD7B017A1079D0
:10421D00D37F0112979890136BE0704B901243E08F
:10422D00FF64046005EF6405703D7BFF7A1879D05B
:10423D00129782C3740F80287BFF7A1879D0E4FD22
:10424D007F0112979890136BE0701C901243E0FF62
:10425D0064046004EFB4050F90136CE0FFC3740A9F
:10426D009FFD7F0112999B90112774FFF0A3746E2F
:10427D00F0A374CFF0A374FFF0A37418F0A374E24D
:10428D00F09010D0E0FBA3E0FAA3E02402F9E43AA9
:10429D00FA90112DEBF0A3EAF0A3E9F07B017A106F
:1042AD0079D3122E1F7B017A1079D3E4FD7F021290
:1042BD00979890136BE06401705D901243E0FF647A
:1042CD00046005EF6405704F9010D0E0FBA3E0FA99
:1042DD00A3E02402F9E43AFA129782901123EFF049
:1042ED00E0FF901319E07002A3E07003FE80027EE0
:1042FD0001C3EF9E901123F0D3940C500BE0FFC33C
:10430D00740C9FFD7F02800C901123E0FFC3741C81
:07431D009FFD7F0312999B35
:014324002276
:100026007B017A13791B7D507C00129056E4901365
:100036006BF0A3F09012437404F07B017A13791BE2
:05004600C2000240B2FF
:1076020090136BE014605124FC40030276A17003D6
:107612000276BC240560030276C1E490136BF0A3EA
:10762200F090131BE0FFA3E090107ECF8024901017
:107632007EE0FEA3E0FFD39400EE940050030276B6
:10764200C190136CE004F07C007D0A120A6890106D
:107652007EEEF0A3EFF080D690131BE0FEA3E0FFD6
:1076620090107EEEF0A3EFF07B017A107980128900
:10767200FAEFF47002EEF4601E9010D37401F0A3DE
:107682007410F0A37480F0A3E4F0A37450F07B01B3
:107692007A13791B128B1D7B017A13791D8012904C
:1076A200136BE075F00CA4242FF9741335F0FA7BF8
:0F76B2000112924390136CEFF0221298FFC21C4A
:0176C10022A6
:051CC70090107DEFF01C
:101CCC00640B6003021D6390136BE064057062305B
:101CDC001C137B017A13791B7D50FC129056E490F7
:101CEC00136CF0804CD390131CE0940090131BE009
:101CFC00940040377B017A137947129243EFD394C7
:101D0C000040287B017A13791B1282F4EFF47002E5
:101D1C00EEF4600512981C800312991F7B017A1354
:101D2C00791B7D507C00129056800312991FD21C97
:101D3C002290136BE004F0E075F00684E5F0F012ED
:101D4C007602E4901318F0A3F0A3F090136BE06408
:101D5C00056003021EEA2290107DE0B40E1590136C
:101D6C006BE0C394045005E004F08022E490136B04
:101D7C00F0801B90107DE0B40D1A90136BE0D3949F
:101D8C00004005E014F0800690136B7404F012769A
:101D9C0002021EE190107DE0640A6003021EA9900D
:101DAC00136BE014603C24FC4003021E6B700302B6
:101DBC001E9F24056003021EA790136CE0D39400B1
:101DCC00401DE014F090131BE0FEA3E0FF7C007DAF
:101DDC000A120A6890131BEEF0A3EFF0021EA70282
:101DEC001EB0901319E07002A3E0705990136CE0D0
:101DFC00FF241DF582E43413F583E07048EFD3948F
:101E0C0000403A90136CE0241DF582E43413F58302
:101E1C00E4F090136CE014F0E0FF241DF582E43440
:101E2C0013F583E0D39480401C741D2FF582E434A9
:101E3C0013F583E4F090136CE014F08008E4901335
:101E4C006BF012760290136CE0FF241DF582E434E3
:101E5C0013F583E4F0741E2FF582E434138027907D
:101E6C00136CE0D394004024E014F0E0FF90136B6B
:101E7C00E075F00CA4242FF582E43413F583E5828D
:101E8C002FF582E43583F583E4F0800F90136BE03B
:101E9C00148004E490136BF0127602803890107D5D
:101EAC00E0B40F03027D4490107DE06463702F90CA
:101EBC00136BE0B40128A3E0241DF582E43413F580
:101ECC0083E0601AD39480400690136CE004F09089
:101EDC00136CE004F0E4901318F0A3F0A3F090104E
:101EEC007DE0FFC394005003022124EFD3940940FA
:101EFC000302212490136BE014605A24FC4003026B
:101F0C0020F02405600302212490136CE0C3940498
:101F1C00502F90131BE0FEA3E0FF7C007D0A120AF9
:101F2C005690131BEEF0A3EFF090107DE0FF901392
:101F3C001CE02FF090131BE03400F090136CE004C5
:101F4C00F090131BE07002A3E060030221249013B5
:101F5C006CF00221247B017A13791D129782EFC356
:101F6C009414401C901319E07002A3E0700302213A
:101F7C004490107DE0FF901317E06F600302214442
:101F8C0090107DE0FF901317E06F602790136CE0CA
:101F9C00241DF582E43413F583E0FE6016D394809F
:101FAC00400690136CE004F090136CE004F0E490A5
:101FBC001318F0EF700B901318E090185793022041
:101FCC00A0901318E0FFC39403503B90136CE0FEF9
:101FDC00241DF582E43413F58374D7F090107DE062
:101FEC0075F003A42FF582E435F0F583E58224A483
:101FFC00F582E583346FF583E493FF741E2EF5822E
:10200C00E434130220AC901318E0FFB403269013B1
:10201C006CE0FE241EF582E43413F583E4F090109A
:10202C007DE02430FD741D2EF582E43413F583ED30
:10203C00F00220D890136CE0FE241EF582E43413D9
:10204C00F583E4F0EF24FCFF90107DE0FD64097053
:10205C0055EFC39402500EEF2459FF741D2EF582D8
:10206C00E43413803BEFB4021290136CE0241DF5A2
:10207C0082E43413F583742EF08051EFB405129082
:10208C00136CE0241DF582E43413F583742CF0807A
:10209C003BEF2476FF90136CE0241DF582E434139F
:1020AC00F583EFF08026ED1475F003A42FFEEFD32B
:1020BC00940240047F5E80027F41EE2FFF90136CF0
:1020CC00E0241DF582E43413F583EFF0901318E04F
:1020DC0004F0E075F00A84E5F0F0A37403F0A37447
:1020EC00E8F0803490136CE0C3940B502B90107D6F
:1020FC00E02430FF90136CE0FE04F090136BE0755D
:10210C00F00CA4242FF582E43413F583E5822EF52C
:10211C0082E43583F583EFF090107DE0901317F097
:10212C007B017A13791B90136BE0D394014003D39A
:08213C008001C392001240B2C1
:012144002278
:109269007B017A13791B7D507C00129056E4901390
:109279006BF0A3F09012437405F07B017A13791B0C
:05928900C2000240B22A
:054A190090107DEFF09C
:104A1E00640B6003024B0090136BE06402702A304B
:104A2E001C177B017A13791B7D50FC129056E49073
:104A3E00136CF090136BF0801090131BE0FEA3E04C
:104A4E00FF1298DED21C02981C90136BE004F0E06B
:104A5E0075F00384AFF0EFF0146046147003024A51
:104A6E00F724026003024BCDE490136CF090131BFD
:104A7E00E0FFA3E090107ECF802190107EE0FEA399
:104A8E00E0FFD39400EE9400406590136CE004F0C8
:104A9E007C007D0A120A6890107EEEF0A3EFF08083
:104AAE00D990131BE0FEA3E0FF7B017A10798012F0
:104ABE0089FAEFF47002EEF4601E9010D37401F0D8
:104ACE00A37410F0A37480F0A3E4F0A37450F07BF1
:104ADE00017A13791B128B1D7B017A13791D1292A9
:104AEE004390136CEFF0024BCD12990FC21C2202B1
:104AFE004BCD90107DE0640A6003024BD890136B8F
:104B0E00E014603314607424026003024BCD9013E2
:104B1E006CE0D39400401DE014F090131BE0FEA354
:104B2E00E0FF7C007D0A120A6890131BEEF0A3EFE3
:104B3E00F0024BCD024BDFE490136BF090131DF09F
:104B4E0090131BE0FFA3E090107ECFF0A3EFF0E4F4
:104B5E0090136CF090107EE0FEA3E0FFD39400EE75
:104B6E009400405B90136CE004F07C007D0A120A06
:104B7E006890107EEEF0A3EFF080D9E490136BF006
:104B8E0090131DF090131BE0FFA3E090107ECFF06A
:104B9E00A3EFF0E490136CF090107EE0FEA3E0FF24
:104BAE00D39400EE9400401790136CE004F07C0058
:104BBE007D0A120A6890107EEEF0A3EFF080D9E421
:104BCE00901318F0A3F0A3F0800A90107DE0B40FBC
:104BDE0003027D4490107DE0FFC394004050EFD35C
:104BEE009409504A90136BE07044A3E0C3940450B0
:104BFE002F90131BE0FEA3E0FF7C007D0A120A56E5
:104C0E0090131BEEF0A3EFF090107DE0FF90131CBD
:104C1E00E02FF090131BE03400F090136CE004F0E2
:104C2E0090131BE07002A3E0700490136CF07B01F4
:094C3E007A13791BC2001240B286
:014C4700224A
:1097AE009012437406F01296287BFF7A1879B5E46E
:0697BE00FD7F01029798F7
:10972600EF24F6600E24FB600A2404700912000E72
:0797360002992F127D44226D
:107D44009012437403F01296287BFF7A18797DE42D
:107D5400FDFF1297987BFF7A187996E4FD7F011254
:107D640097987BFF7A1879A4E4FD7F021297987B99
:107D7400FF7A1979AAE4FD7F03129798901127746A
:107D8400FFF0A3746EF0A374CCF090122BE0FFA369
:107D9400E090112ACFF0A3EFF07B017A1079D01292
:107DA4002E1F7BFF7A1979AA129782C3740F9FFF43
:107DB400C0077B017A1079D0129243C3D0E09FFDB3
:0B7DC4007B017A1079D07F03029798B2
:10951400EF24FE601214601224F9601124FB600D24
:10952400240E700C0200260292690297AE128D0E70
:019534002214
:1094F200D390122CE09F90122BE09E40147B017AB5
:1095020010797E128EDE7B017A10797EC2001240C3
:01951200B2A6
:019513002235
:1071B600901081EDF090107EEBF0A3EAF0A3E9F0D9
:1071C600242CF9E43AFAA3E075F00CA429F9EA357F
:1071D600F0FA129243EFD3940050030272A090107B
:1071E6007EE0FBA3E0FAA3E0242CF9E43AFAA3E05C
:1071F60075F00CA429F9EA35F0FA1286DC40030290
:10720600729E12962890107EE0FBA3E0FAA3E0247B
:1072160002F9E43AFA129243EF901127703074FFA4
:10722600F0A3746EF0A374D4F0A374FFF0A3741AE1
:10723600F0A37474F090107EE0FBA3E0FAA3E0F9EB
:10724600120AE9FF90112DE5F0F0A3EF803174FFEB
:10725600F0A3746EF0A374CFF0A374FFF0A3741AB6
:10726600F0A37474F090107EE0FBA3E0FAA3E02490
:1072760002F9E43AFA90112DEBF0A3EAF0A3E9F053
:107286007B017A107982122E1F7B017A107982E4B3
:0B729600FD7F01129798D322C322C392
:0172A10022CA
:100E7E009010D2EBF0A3EAF0A3E9F0901243E064F5
:100E8E000260147BFF7A6E79D9122E25900CA7E0A2
:100E9E00700302136180F59011CFE4F0A3740FF08C
:100EAE009010D874FFF0A3746FF0A37405F0901037
:100EBE00D2E0FBA3E0FAA3E0F91270BE90107CEE34
:100ECE00F0A3EFF0F47002EEF4603AE02402FF902B
:100EDE00107CE034009010D38FF0120ABD9010D821
:100EEE0074FFF0A3746FF0A37408F0A37401F0A361
:100EFE007410F0A3747EF09010D2E0FBA3E0FAA37E
:100F0E00E0F9123B587BFF7A6F790B90107EE0FF71
:100F1E00A3E0901127CFF0A3EFF0122E25E490104E
:100F2E007CF0A3F090107EE0FEA3E0FFC390107D56
:100F3E00E09FEE6480F890107CE06480984003029D
:100F4E00130E9010D874FFF0A3746FF0A37421F0F9
:100F5E009010D2E0FBA3E0FAA3E0F91270BE90105D
:100F6E0080EEF0A3EFF0F47002EEF470030212F1D3
:100F7E00E02402FF901080E034009010D38FF01226
:100F8E000ABD7B017A1079827D507C0012905690BA
:100F9E0010D874FFF0A3746FF0A37424F0A374013F
:100FAE00F0A37410F0A37482F09010D2E0FBA3E0D3
:100FBE00FAA3E0F9123B589010D874FFF0A3746FA7
:100FCE00F0A37428F09010D2E0FBA3E0FAA3E0F9AE
:100FDE001270BE901080EEF0A3EFF0F47002EEF4FB
:100FEE007003021070E02402FF901080E034009035
:100FFE0010D38FF0120ABDE4901080F0A3F0901081
:10100E00D2E0FBA3E0FAA3E0F91209DC643B6040F6
:10101E00901080E0FEA3E0FFC3942AEE64809480DB
:10102E00502E9010D2A3E475F001120AD3A9F0FA53
:10103E001209DCFD74842FF58274103EF583EDF0F9
:10104E00901081E004F070B6901080E004F080AE55
:10105E00901080E0FEA3E02484F58274103EF583A8
:10106E00E4F09010D874FFF0A3746FF0A3742BF01B
:10107E009010D2E0FBA3E0FAA3E0F91270BE90103C
:10108E0080EEF0A3EFF0F47002EEF4700302111B89
:10109E00E02403FF901080E034009010D38FF01204
:1010AE000ABDE4901080F0A3F09010D2E0FBA3E014
:1010BE00FAA3E0F91209DC643B6040901080E0FE78
:1010CE00A3E0FFC3940CEE64809480502E9010D257
:1010DE00A3E475F001120AD3A9F0FA1209DCFD742B
:1010EE00AE2FF58274103EF583EDF0901081E00482
:1010FE00F070B6901080E004F080AE901080E0FEAC
:10110E00A3E024AEF58274103EF583E4F09010D87F
:10111E0074FFF0A3746FF0A3742FF09010D2E0FB65
:10112E00A3E0FAA3E0F91270BE901080EEF0A3EFE8
:10113E00F0F47002EEF470030211C6E02403FF9087
:10114E001080E034009010D38FF0120ABDE490109E
:10115E0080F0A3F09010D2E0FBA3E0FAA3E0F91226
:10116E0009DC643B6040901080E0FEA3E0FFC39476
:10117E000CEE64809480502E9010D2A3E475F00192
:10118E00120AD3A9F0FA1209DCFD74BA2FF5827493
:10119E00103EF583EDF0901081E004F070B69010E3
:1011AE0080E004F080AE901080E0FEA3E024BAF55B
:1011BE008274103EF583E4F09010D874FFF0A3749F
:1011CE006FF0A37433F09010D2E0FBA3E0FAA3E02B
:1011DE00F91270BE901080EEF0A3EFF0F47002EEF4
:1011EE00F47003021271E02403FF901080E03400CB
:1011FE009010D38FF0120ABDE4901080F0A3F090FF
:10120E0010D2E0FBA3E0FAA3E0F91209DC643B6024
:10121E0040901080E0FEA3E0FFC3940CEE64809437
:10122E0080502E9010D2A3E475F001120AD3A9F0CB
:10123E00FA1209DCFD74C62FF58274103EF583EDAB
:10124E00F0901081E004F070B6901080E004F08011
:10125E00AE901080E0FEA3E024C6F58274103EF539
:10126E0083E4F07B017A1079821282F4901080EE82
:10127E00F0FCA3EFF0FD90107DE02401FE90107CB9
:10128E00E03400901127F0A3CEF0ED2401FEE43CF3
:10129E00A3F0A3CEF0901082E0FFA3E090112BCF2D
:1012AE00F0A3EFF0A37401F0A37410F0A37484F014
:1012BE00A37401F0A37410F0A374AEF0A37401F044
:1012CE00A37410F0A374BAF0A37401F0A37410F019
:1012DE00A374C6F07BFF7A6F7937122E25900CA778
:1012EE00E070FA901080E0F47003A3E0F4601190C7
:1012FE00107DE004F0700690107CE004F0020F32D6
:10130E0090107EE0FEA3E0FF90107CE0B50617A3E0
:10131E00E0B507127BFF7A6F796790122BE0FFA37F
:10132E00E0901127801F7BFF7A6F798690107CE00A
:10133E00FFA3E0901127CFF0A3EFF0901080E0FF15
:10134E00A3E0901129CFF0A3EFF0122E25900CA759
:03135E00E070FA42
:011361002269
:1098CC00AD071FED600BE4FEEEC3946E50F20E80FC
:0198DC00F794
:0198DD002268
:1097C400D2FB0000000000D2FA0000000000C2FB3F
:0697D4000000000000226D
:1097DA00C2FB0000000000D2FA0000000000D2FB29
:0697EA0000000000002257
:08928E001297C47FA0128CD5D9
:10929600E4FFD2FA000000000030FB09EFC394FAA5
:0C92A60050030F80F4C2FA00000000002A
:0192B2002299
:10008E00D2FBC2FA0000000000D2FA00000000000D
:05009E00C2FAC2FB22C2
:10988100C2FBC2FA0000000000D2FA000000000092
:03989100C2FA22F6
:108CD500E4FEC2FA0000000000EF30E703D3800194
:108CE500C392FBEF25E0FF0000000000D2FA000070
:108CF500000000C2FA0EEEB408D8C2FA0000000067
:088D050000D2FB000000000099
:018D0D002243
:10902800C2FA0000000000D2FB0000000000E4FECD
:10903800D2FA0000000000EF25E0FFA2FBE4334F66
:0D904800FFC2FA00000000000EEEB408E3C5
:0190550022F8
:107DCF00901125EEF0A3EFF0A3EBF0A3EAF0A3E9F7
:107DDF00F0C2F9805590112A74FFF5F0120AD345BD
:107DEF00F06060901127E0FBA3E475F001120AD355
:107DFF00A9F0FA1209DCFF128CD512929690112677
:107E0F00E004F07006901125E004F0901126E05484
:107E1F003F70C2D390112BE0940090112AE0940090
:107E2F0040B31297DA7F641298CC12928E9011257C
:107E3F00E0FF128CD5129296A3E0FF128CD512920E
:0B7E4F009680921297DA7F640298CCB4
:04874000AD07AC06CF
:1087440012928EECFF128CD5129296AF05128CD534
:108754001292961297C47FA1128CD5129296D3903E
:10876400112BE0940190112AE09400401FA3E0240F
:10877400FFF090112AE034FFF0129028EF120A2241
:10878400129881740129F9E43AFA80D2129028EF00
:0E879400120A2212008E1297DA90112CE0FFCA
:0187A20022B4
:1075370054616C6B54696D653A2025750D0A0052CC
:10754700696E67496E54733A202562640D0A0052CA
:10755700696E674F757454733A202562640D0A008B
:10756700546F6E65456E3A202562640D0A004361CB
:107577006D6572614F6E3A202562640D0A0052658F
:10758700616C7954696D653A202562640D0A00556E
:107597006E6C6F636B4B657920313A202562640D01
:1075A7000A00556E6C6F636B4B657920323A202564
:1075B70062640D0A0054616C6B566F6C756D3A20EE
:1075C7002562640D0A004E616D65436F756E743AEE
:1075D7002025750D0A00507377436F756E743A2036
:1075E70025750D0A0043617264436F756E743A2006
:0B75F70025750D0A00257500257300A6
:1048B7004112430148122900000000000000004295
:1048C7001241FFFF4211CF00004112210341124460
:1048D7000042122300004112260041122200441216
:0E48E700450000000041122504421227012C5A
:106A57007B017A12793190112AE4F0A37410F0E4E3
:106A6700FFFE128740901231E0B45A08A3E0B463E6
:106A77000330004B901231745AF0A37463F0A3E40F
:106A8700F0A3741EF0A37401F0A3740FF0A37401B4
:106A9700F0A3F0A3740AF0A37401F0A304F0A374A5
:106AA70004F0A3120D0C000A2C2A7B017A1279310B
:106AB70090112AE4F0A37410F0E4FFFE127DCF7B5F
:106AC700FF7A757937901233E0FFA3E0901127CF53
:106AD700F0A3EFF0122E257BFF7A757946901235D9
:106AE700E0901127F0122E257BFF7A7579569012C8
:106AF70036E0901127F0122E257BFF7A7579679083
:106B07001237E0901127F0122E257BFF7A757975E1
:106B1700901238E0901127F0122E257BFF7A7579B5
:106B270085901239E0901127F0122E257BFF7A7598
:106B3700799690123AE0901127F0122E257BFF7A72
:106B47007579A990123BE0901127F0122E257BFF53
:106B57007A7579BC90123CE0901127F0122E25909F
:106B6700123CE0D3940540037403F090123CE0908C
:0F6B77001221F0901238E06003D2E922C2E92225
:1076C2007B017A12792990112AE4F0A37408F07FE1
:1076D200807E00128740901229E0645A7004A3E071
:1076E2006463602C901229745AF0A37463F0E4A3CB
:1076F200F0A3F0A3F0A3F0A3F0A3F07B017A127938
:107702002990112AF0A37408F07F807E00127DCFA9
:107712007BFF7A7579CD90122BE0FFA3E0901127C1
:10772200CFF0A3EFF0122E257BFF7A7579DD901250
:107732002DE0FFA3E0901127CFF0A3EFF0122E254A
:107742007BFF7A7579EC90122FE0FFA3E09011276E
:10775200CFF0A3EFF0122E2512986E129894029891
:01776200A77F
:10890C00ED24FE60171460222402702D7C007D5033
:10891C00120A56E42FFF74013EFE801DEF7802C34D
:10892C0033CE33CED8F92440800A7C007D06120A5F
:10893C005674682FFF74203EFE7B017A1079E1900B
:10894C00112AE4F0A37402F01287409010E1E0FECB
:03895C00A3E0FF96
:01895F0022F5
:0B7F70009010DAEEF0A3EFF0A3EDF0AC
:107F7B00E4A3F0A3F0ED24FE600C14600E24027059
:107F8B001990122B800890122D800390122FE0FF76
:107F9B00A3E09010DFCFF0A3EFF09010DFE0FCA395
:107FAB00E0FD9010DDE0FEA3E0FFC39DEE9C50359D
:107FBB009010DCE0FD12890C9010DAE0B5060EA3F0
:107FCB00E0B507099010DDE0FEA3E0FF22EFF470AF
:107FDB0002EEF460109010DEE004F070BD9010DD46
:097FEB00E004F080B57EFF7FFF89
:017FF400226A
:109103009012437401F074FF901241F0A3F0E490C5
:1091130011CFF0A3F0901222F0901267F0A3F09019
:099123001262F0A3F0FF027803D0
:108D0E009012437402F01296287BFF7A1879627DD6
:108D1E00017F011297987BFF7A1879787D017F0386
:108D2E001297987B027D067F031298BAE490122365
:088D3E00F0A3F0901226F022D0
:108675001296287BFF7A1879D0E4FD7F011297982E
:10868500901223E0FEA3E0FFD39400EE9400404651
:1086950090112774FFF0A37475F0A374FCF0A3EE9A
:1086A500F0A3EFF07B017A10797E122E1F7BFF7A03
:1086B5001879D0129782C3740F9FFFC0077B017A88
:1086C50010797E129243C3D0E09FFD7B017A107929
:0686D5007E7F0112979860
:0186DB00227C
:108F9C009012437407F07E00901223EEF0A3EFF0D2
:108FAC009012267401F0EF7001F01286757B017A35
:0F8FBC001179D17D507C001290567F10027B0AF4
:106FC20090107DEFF024F6607C24FB600302707564
:106FD200901223E0FEA3E0FFD39400EE940040471A
:106FE2007B017A1179D11289FAEFF47002EEF46022
:106FF20036E4901244F07B017A1179D1FD1271B618
:1070020050079012437413F0227B017A1179FD121A
:107012009243EF700512991F800312993F9011CF8E
:10702200E4F0A37405F02212994F7F04127B0A90B8
:1070320011CFE4F0A37405F0E4901223F0A3F090D2
:107042001226F0802E901226E0D39400401FE01406
:10705200F0901223E0FEA3E0FF7C007D0A120A6892
:10706200901223EEF0A3EFF01286758006128FCBFA
:1070720012910390107DE0FFC39400403EEFD39441
:10708200095038901226E0C39404502FE004F09087
:107092001223E0FEA3E0FF7C007D0A120A56901242
:1070A20023EEF0A3EFF090107DE0FF901224E02F8A
:0C70B200F0901223E03400F012867522EA
:0680FD00901245120D0077
:10810300129628901243E0B40E0D7BFF7A1979B7CB
:10811300E4FD7F0112979890109F74FFF0A37419E8
:10812300F0A37496F07B017A10797E128806E4FD41
:10813300901226E0FCEDC39C5016ED2FFBE43EFAB3
:10814300747E2BF58274103AF583742AF00D80E067
:10815300ED2FFFE43EFE747E2FF58274103EF5830F
:10816300E4F07B017A10797EFD7F021297989012DA
:0D81730026E0FFC374099FFD7F0202999B67
:1095D100901243740EF0901245120D0C0000000021
:0D95E100E4901226F01281037F02027B0A43
:106DC50090107DEFF024F6606724FB7003026E627D
:106DD50024046003026E65E4FFFEFDFC901245E0AD
:106DE500F8A3E0F9A3E0FAA3E0FBD3120C6940276E
:106DF500901226E0B4062090123DE0FCA3E0FDA32E
:106E0500E0FEA3E0FF901245E0F8A3A3A3E0C312C0
:106E15000C697003028D0E12991F7F05127B0A9073
:106E25001245120D0C00000000E4901226F080308F
:106E3500901226E0D39400401FE014F0901245E034
:106E4500FCA3E0FDA3E0FEA3E0FFE47B0AFAF9F86A
:106E5500120BD71280FD8008128FCB800012910390
:106E650090107DE0FFC394004055EFD39409504F37
:106E7500901226E0C394065046E004F0901245E0D7
:106E8500FCA3E0FDA3E0FEA3E0FFE47B0AFAF9F82A
:106E9500120B4C901245120D00901245E0F8A3E03C
:106EA500F9A3E0FAA3E0FB90107DE0FFE4FCFDFE12
:106EB500EB2FFFEE3AFEED39FDEC38FC1280FD229A
:1067CE0090107DEFF024F5601C14601F14602214ED
:1067DE00605E1470030268A424056003026901124E
:1067EE0091030269011293FD0269011295D10269AA
:1067FE000190122BE0FEA3E0FFD39400EE94005024
:10680E0003026901EF24FFFFEE34FFFEC390124234
:10681E00E09F901241E09E500EA3E004F0706A904B
:10682E001241E004F08062E4901241F0A3F080592E
:10683E0090122BE0FEA3E0FFD39400EE94005003E1
:10684E00026901901241E0FCA3E0FD9FEC9E5025F1
:10685E00ED9400EC9400400DE024FFF0901241E026
:10686E0034FFF08024EF24FFFFEE34FF901241F04E
:10687E00A3EFF0801490122CE024FFFE90122BE078
:10688E0034FF901241F0A3CEF0901241E0FEA3E04F
:10689E00FF1294F2805D90122BE0FCA3E0FD9012AB
:1068AE0041E0FEA3E0FFC39DEE9C5042E4901244F3
:1068BE00F07B017A1179D1128EDE7B017A1179D1BA
:1068CE00E4FD1271B650089012437413F080247BCD
:1068DE00017A1179FD129243EF700512991F800310
:1068EE0012993F9011CFE4F0A37405F08005E4FFF8
:1068FE00128F9C90107DE0FFD394004009EFD3944B
:07690E00095003128F9C22C7
:1074680090107DEFF0C39400405EE0FBD394095088
:1074780057901226E0C39402503AE004F090122389
:10748800E0FEA3E0FF7C007D0A120A56901223EE6C
:10749800F0A3EFF0EBFF7E00E02FF0901223E03E28
:1074A800F0D3A3E0940D901223E0940050030275EA
:1074B80036EE800990107DE0FF901223E4F0A3EFF0
:1074C800F09012267401F02290107DE0B40F028033
:1074D8000790107DE0B40A0302910390107DE064E8
:1074E8000B704B901223E0FEA3E0FFC39404EE94CC
:1074F80000400EEF940CEE94005006EF2411FF802C
:107508002A901223E0FEA3E0FFEE7022EF14601031
:1075180014601014601024F6600F04701102932296
:0F752800027D44027E5A027EE57F1D1260EE2234
:1089AF0090107DEFF0C39400400AE0FFD39409507C
:1089BF00030290AE90107DE024F3601014601A143F
:1089CF006004240570241296AA029103901221E0EC
:1089DF00C394055015E004800B901221E0D394014D
:0B89EF004008E014F0E0FF12807A2244
:10505D00129628901243E024EBB40900400302514C
:10506D00B090507C75F003A4C58325F0C583730201
:10507D0050970250B30250CF0250EB02513C0251F7
:10508D005702517202510702518D90112774FFF092
:10509D00A37475F0A374FFF0A374FFF0A3741AF05A
:1050AD00A374800251A690112774FFF0A37475F0BC
:1050BD00A374FFF0A374FFF0A3741AF0A37493020A
:1050CD0051A690112774FFF0A37475F0A374FFF02F
:1050DD00A374FFF0A3741AF0A374AC0251A690113F
:1050ED002774FFF0A37475F0A374FFF0A374FFF0A1
:1050FD00A3741AF0A374BF0251A690112774FFF088
:10510D00A37475F0A374FFF0A374FFF0A3741AF0E9
:10511D00A374DAF07B017A10797E122E1F90122380
:10512D00E07002A3E06004D2E98078C2E980749057
:10513D00112774FFF0A37475F0A374FFF0A374FF2F
:10514D00F0A3741AF0A374E6804F90112774FFF04A
:10515D00A37475F0A374FFF0A374FFF0A3741AF099
:10516D00A374F7803490112774FFF0A37475F0A326
:10517D0074FFF0A374FFF0A3741BF0A3740B8019DC
:10518D0090112774FFF0A37475F0A374FFF0A3744E
:10519D00FFF0A3741AF0A3745EF07B017A10797E90
:1051AD00122E1F901243E0FF6418600AEF641C601A
:1051BD0005EF641670297B017A10797EE4FD7F017D
:1051CD00129798901223E07004A3E064017BFF70A6
:1051DD00067A1B791F80047A1B79287D0580507B08
:1051ED00017A10797EE4FD7F01129798901223E0E9
:1051FD00FEA3E0FFD39400EE940040389011277485
:10520D00FFF0A37475F0A374FCF0A3EEF0A3EFF020
:10521D007B017A10797E122E1F7B017A10797E1216
:10522D009243C374109FC313FD7B017A10797E7F67
:04523D00021297982A
:01524100224A
:1060EE00901243EFF024EBB40900400302621690C5
:1060FE00610B75F003A4C58325F0C5837302612679
:10610E0002614402615E0261790261AC0261C60203
:10611E0061E00261930261FA9012257403F090120D
:10612E00277401F0A3742CF0901233E0FFA3E090DB
:10613E001223CF0262129012257402F0901227E4FD
:10614E00F0A304F0901235E0FF901223E4026212E5
:10615E009012257402F0901227E4F0A3745AF09076
:10616E001236E0FF901223E402621290122574019F
:10617E00F0901227E4F0A304F0901237E0FF901293
:10618E0023E40262129012257401F0901227E4F0BB
:10619E00A304F0901238E0FF901223E48066901270
:1061AE00257402F0901227E4F0A37463F090123974
:1061BE00E0FF901223E4804C9012257401F09012AF
:1061CE0027E4F0A37409F090123AE0FF901223E452
:1061DE0080329012257401F0901227E4F0A3740916
:1061EE00F090123BE0FF901223E480189012257479
:1061FE0001F0901227E4F0A37405F090123CE0FF3A
:10620E00901223E4F0A3EFF0E4901226F090122304
:10621E00E0FEA3E0FFD3EF9400EE9400400F901247
:10622E0026E004F07C007D0A120A6880E890124392
:10623E00E0FF64186013EF641C600EEF641A6009CF
:10624E00EF641B6004EFB41D069012267401F00279
:02625E00505D91
:1052420090107EECF0A3EDF0EF24EBB409004003E4
:1052520002540D90526375F003A4C58325F0C583F3
:105262007302527E0252A90252CD0252F102534FF0
:105272000253720253A30253200253D590107EE0D0
:10528200FFA3E0901233CFF0A3EFF0C37433943155
:10529200FF74129412FE7B017A12793390112AE480
:1052A200F0A374020253CF90107EA3E0901235F067
:1052B200C374359431FF74129412FE7B017A127911
:1052C2003590112AE4F0A3040253CF90107EA3E09C
:1052D200901236F0C374369431FF74129412FE7B2E
:1052E200017A12793690112AE4F0A3040253CF9086
:1052F200107EE07002A3E07003FF80027F01901233
:1053020037EFF0C374379431FF74129412FE7B01AD
:105312007A12793790112AE4F0A3040253CF901045
:105322007EE07002A3E07003FF80027F01901238DA
:10533200EFF0C374389431FF74129412FE7B017A39
:1053420012793890112AE4F0A3040253CF90107E10
:10535200A3E0901239F0C374399431FF741294129D
:10536200FE7B017A12793990112AE4F0A304805D60
:1053720090107EE0FEA3E0FFD39400EE9400500371
:1053820002540D90123AEFF0743A9431FF74129471
:1053920012FE7B017A12793A90112AE4F0A304807A
:1053A2002C90107EE0FEA3E0FFD39400EE94004028
:1053B2005A90123BEFF0743B9431FF74129412FE38
:1053C2007B017A12793B90112AE4F0A304F0127D5A
:1053D200CF803890107EE0FEA3E0FFD39400EE94DD
:1053E20000402890123CEFF0743C9431FF74129408
:1053F20012FE7B017A12793C90112AE4F0A304F0A8
:0E540200127DCF90123CE0901221F002981C17
:105AEC0090107DEFF0901226E0B46302807B901052
:105AFC007DE024F5605324FC604D2405706E9012FB
:105B0C0043E0FF64186010EF641C600BEF641660D8
:105B1C0006901226E0700E901238E06004D2E980F4
:105B2C0002C2E98044901226E014F0901223E0FEA9
:105B3C00A3E0FF7C007D0A120A68901223EEF0A30A
:105B4C00EFF012505D80258020901226E0D3940057
:105B5C004017901243E0FF901223E0FCA3E0FD12EB
:105B6C0052429012267463F022028D0E90107DE04A
:105B7C00FFC394005003025C70EFD39409400302FE
:105B8C005C70901243E0FF64186009EF641C6004C1
:105B9C00EFB416129012267401F090107DE0FF9075
:105BAC001223E4025C6C901243E0FF641A6004EF71
:105BBC00B41B1C90107DE0FFD394005003025C706A
:105BCC009012267401F07E0090122314025C6C90EB
:105BDC001243E0B41D2790107DE0FFD394005003D6
:105BEC00025C707E00901228E09F901227E09E408D
:105BFC00739012267401F090122314806390122576
:105C0C00E0FFA3E0C39F505C901223E0FEA3E0FFF3
:105C1C007C007D0A120A56901227E0FCA3E0FDC31B
:105C2C009FEC9E403F901226E004F0901223EEF081
:105C3C00A3EFF090107DE0F92FFFE43EFEC3ED9F43
:105C4C00EC9E4011E9FF901224E02FF0901223E01B
:105C5C003400F0800F901227E0FFA3E0901223CFC6
:085C6C00F0A3EFF012505D22DD
:105DF70090107CEFF09011CFE4F0A3741EF0901296
:105E070043E014B41D004003025F44905E2075F028
:105E170003A4C58325F0C58373025E77025E820201
:105E27005E8D025E98025EA3025EAE025EEC025ECB
:105E3700B9025EC4025ECE025ED8025EE2025F0075
:105E4700025EF6025F0A025F14025F1E025F28020B
:105E57005F32025F32025F3C025F3C025F3C025FDF
:105E67003C025F3C025F3C025F3C025F3C025F3CDE
:105E770090107CE0FF1267CE025F4490107CE0FF39
:105E8700127468025F4490107CE0FF129514025F61
:105E97004490107CE0FF121CC7025F4490107CE026
:105EA700FF124A19025F4490107CE0FF1297260206
:105EB7005F4490107CE0FF129535025F4490107CA0
:105EC700E0FF122591807690107CE0FF1259428006
:105ED7006C90107CE0FF12973D806290107CE0FF91
:105EE700126686805890107CE0FF126FC2804E9039
:105EF700107CE0FF126DC5804490107CE0FF123DDE
:105F0700F1803A90107CE0FF129556803090107C1B
:105F1700E0FF125790802690107CE0FF1255D88042
:105F27001C90107CE0FF129754801290107CE0FFC9
:105F37001289AF800890107CE0FF125AECD39011C1
:105F4700D0E0940A9011CFE094004020901243E0F3
:105F5700FF640E600EEF640C6009EF64076004EFE6
:0D5F6700B401099011CFE4F0A3740AF022F8
:10860A0090107CEBF0A3EAF0A3E9F0901243E02487
:10861A00F1605724FE60071460502402700E901017
:10862A007CE0FBA3E0FAA3E0F9028C5F90107CE007
:10863A00FBA3E0FAA3E0F9127763EFF47002EEF419
:10864A00600E901239E0FDD200E4FF1295778003A4
:10865A00129831901243E0FF6414600EEF641360C5
:0B866A00099011CFE4F0A37405F0228A
:10942100436865636B5073773A25750D0A00416493
:10943100645073774974656D20310D0A00257500FC
:04944100257325006A
:0E48F50041138B0041138C00C112C113C1147A
:10946800C3742D9429FF74129412CF2480CF340032
:10947800FE7B017A12792D90112AE4F0A37402F090
:03948800027DCF93
:0A997D00E490122DF0A3F0029468AC
:10989400D390122EE0940A90122DE094004003120B
:0398A400997D2289
:0B917E00901084E0FBA3E0FAA3E0F9EE
:10918900EF7802C333CE33CED8F92440FFEE342032
:0D919900FE90112AE4F0A37404F0027DCFD3
:1095EE00EF7802C333CE33CED8F92440FFEE3420C9
:0D95FE00FE90112AE4F0A37404F0028740EF
:0B8A43009013A8EBF0A3EAF0A3E9F009
:108A4E0074FFA3F0A3F07D02127F709013ABEEF0D3
:108A5E00A3EFF0F47002EEF4601F9013ABE0FEA3F0
:108A6E00E0FF9013A8E0FBA3E0FAA3E0F91295EE65
:0D8A7E009013ABE0FEA3E0FF227EFF7FFF20
:018A8B0022C8
:08827C0090107EEEF0A3EFF07C
:10828400E4A3F0A3F07BFF7A947921901127EEF018
:10829400A3EFF0122E2590122DE07002A3E07002DD
:1082A400C322E4901080F0A3F090122DE0FCA3E030
:1082B400FD901080E0FEA3E0FFC39DEE9C502F7B59
:1082C400017A1079821295EE90107EE0FEA3E0FF11
:1082D400901084E0B50607A3E0B50702D3229010FE
:0F82E40081E004F070C3901080E004F080BBC311
:0182F3002268
:0B818000901084EBF0A3EAF0A3E9F0FC
:10818B0074FFA3F0A3F0120AE9FFAEF07D02127F99
:10819B0070901087EEF0A3EFF0F47002EEF4601D18
:1081AB007BFF7A94792F122E25901087E0FEA3E0A7
:1081BB00FF12917E901087E0FEA3E0FF2290122D1C
:1081CB00E0FEA3E0FFC3940AEE9400502312917ECD
:1081DB0090122EE004F0700690122DE004F0129431
:1081EB006890122EE024FFFF90122DE034FFFE2248
:0481FB007EFF7FFF85
:0181FF00225D
:0884C100901082EEF0A3EFF031
:1084C90090122DE0FCA3E0FDD39FEC9E4058ED24D3
:1084D900FFFFEC34FFFE901082E0B50616A3E0B56D
:1084E900071190122EE024FFF090122DE034FFF0D6
:1084F90002946890122EE024FFF090122DE034FFD0
:10850900F012946890122DE0FEA3E0FF7B017A102F
:1085190079841295EE901082E0FEA3E0FF7B017A48
:0685290010798412918913
:01852F002229
:0892B300901080EEF0A3EFF033
:1092BB008013EFF47002EEF460121284C1901080F0
:0C92CB00E0FEA3E0FF7D02127F7080E651
:0192D7002274
:0837A9007B017A137981D20043
:0B37B100901084EBF0A3EAF0A3E9F015
:1037BC00129628901243E0B40D0F7BFF7A1979B75B
:1037CC00E4FDFF129798023877901243E0640C7076
:1037DC0003023877901084E0FBA3E0FAA3E0F9121F
:1037EC000AE9D39400E5F094007BFF7A1879DBE4C6
:1037FC00FD7F01405A12979890112774FFF0A37423
:10380C0094F0A3743EF0901084E0FBA3E0FAA3E0E4
:10381C00F9120AE9FF90112AE5F0F0A3EFF07B0111
:10382C007A107987122E1F7BFF7A1879DB12978218
:10383C00C374109FFFC0077B017A107987129243E3
:10384C00C3D0E09FFD7B017A1079877F0180001245
:10385C00979890138BE070137BFF7A1879DB129793
:10386C0082C3740F9FFD7F0112999B200003023AC3
:10387C00CE901084E0FBA3E0FAA3E0F990000212D2
:10388C000CA0E4FBFAF9F8C3120C69400302396B83
:10389C0090112774FFF0A37494F0A37441F0A374F7
:1038AC00FFF0A37419F0A37496F00B7A10798712B9
:1038BC002E1F901383E0FCA3E0FDA3E0FEA3E0FF2A
:1038CC009010A8120D00E49010A7F0E4FFFEFDFC90
:1038DC009010A8E0F8A3E0F9A3E0FAA3E0FBD31260
:1038EC000C69403F7BFF7A1979961292439010A78E
:1038FC00E02F2487F582E43410F583742AF09010BD
:10390C00A8E0FCA3E0FDA3E0FEA3E0FFE47B0AFA41
:10391C00F9F8120BD79010A8120D009010A7E00424
:10392C00F080A87BFF7A1979961292439010A7E049
:10393C002F2487F582E43410F583E4F07B017A10B0
:10394C007987FD7F02129798901243E0640D600412
:10395C007F0180027F0090138BE06F703780227B99
:10396C00FF7A197996E4FD7F02129798901243E042
:10397C00640D60047F0180027F0090138BE0B5071B
:10398C00137BFF7A197996129782C3740F9FFD7F70
:10399C000212999B901243E0640C7003023ACE9091
:1039AC001084E0FBA3E0FAA3E0F9900006120CA04F
:1039BC00E4FBFAF9F8C3120C694003023A9990112E
:1039CC002774FFF0A37494F0A37441F0A374FFF078
:1039DC00A37419F0A374A2F00B7A107987122E1F1E
:1039EC00901387E0FCA3E0FDA3E0FEA3E0FF9010A2
:1039FC00A8120D00E49010A7F0E4FFFEFDFC90105F
:103A0C00A8E0F8A3E0F9A3E0FAA3E0FBD3120C6959
:103A1C00403F7BFF7A1979A21292439010A7E02FB6
:103A2C002487F582E43410F583742AF09010A8E012
:103A3C00FCA3E0FDA3E0FEA3E0FFE47B0AFAF9F8A7
:103A4C00120BD79010A8120D009010A7E004F08074
:103A5C00A87BFF7A1979A21292439010A7E02F2429
:103A6C0087F582E43410F583E4F07B017A107987D2
:103A7C00FD7F03129798901243E0640D60047F025F
:103A8C0080027F0190138BE06F703780227BFF7A6E
:103A9C001979A2E4FD7F03129798901243E0640D0C
:103AAC0060047F0280027F0190138BE0B507137BCB
:103ABC00FF7A1979A2129782C3740F9FFD7F0312AC
:023ACC00999BC4
:013ACE0022D5
:1092D8007B017A1379817D0A7C00129056E4901301
:1092E8008BF0A3F09012437409F07B017A13798113
:0592F800D2000237B1B5
:0525910090107DEFF049
:10259600640B60030226DE90138BE0640360030283
:1025A60026663012147B017A1379817D0AFC12901B
:1025B60056E490138CF0022666D3901382E09400C2
:1025C600901381E094005003022663E4FFFEFDFCB5
:1025D600901383E0F8A3E0F9A3E0FAA3E0FB120C62
:1025E60069607A901387E0FCA3E0FDA3E0FEA3E018
:1025F600FF901383E0F8A3A3A3E0C3120C69705DF8
:10260600901381E0FFA3E0901080CFF0A3EFF0904D
:102616001383A3A3E0FFA3E0901082CFF0A3EFF013
:102626007B017A107980128180EFF47002EEF460FB
:102636000512981C800312991F7B017A1379817DFC
:102646000A7C00129056D212901383120D0C0000D1
:102656000000901387120D0C000000002202991F43
:1026660090138BE004F0E05403FFF0E4A3F0EF14C2
:10267600604914604B14605A24036003022844E442
:1026860090138BF0901381E0FFA3E090107ECF8033
:102696002490107EE0FEA3E0FFD39400EE94005059
:1026A6000302284490138CE004F07C007D0A120A91
:1026B6006890107EEEF0A3EFF080D690138380032F
:1026C600901387120D0C00000000E490138CF002AA
:1026D60028441298FFC2122290107DE0640A60031B
:1026E60002283A90138BE014603C1470030227947E
:1026F6001470030227FF2403600302284490138CFE
:10270600E0D39400401DE014F0901381E0FEA3E0B6
:10271600FF7C007D0A120A68901381EEF0A3EFF0A9
:1027260002284402284190138CE0D39400401FE015
:1027360014F0901383E0FCA3E0FDA3E0FEA3E0FF0A
:10274600E47B0AFAF9F8120BD7901383806690138C
:102756008BE014F0E4A3F0901381E0FFA3E0901067
:102766007ECF802490107EE0FEA3E0FFD39400EE9F
:102776009400500302284490138CE004F07C007D02
:102786000A120A6890107EEEF0A3EFF080D690133E
:102796008CE0D394004023E014F0901387E0FCA370
:1027A600E0FDA3E0FEA3E0FFE47B0AFAF9F8120BD2
:1027B600D7901387120D0002284490138BE014F073
:1027C600E4A3F0901383A3A3E0FFA3E090107ECFD1
:1027D600802190107EE0FEA3E0FFD39400EE9400EB
:1027E600405C90138CE004F07C007D0A120A68902D
:1027F600107EEEF0A3EFF080D9E490138BF0A3F0F7
